{
  "address": "0x37Ea7F5D58e7bd2f109C0D6fdf2c748481fb0E2c",
  "abi": [
    {
      "inputs": [
        {
          "internalType": "address",
          "name": "_router",
          "type": "address"
        },
        {
          "internalType": "address[]",
          "name": "_commonPoolTokens",
          "type": "address[]"
        }
      ],
      "stateMutability": "nonpayable",
      "type": "constructor"
    },
    {
      "anonymous": false,
      "inputs": [
        {
          "indexed": false,
          "internalType": "address",
          "name": "holderAddress",
          "type": "address"
        },
        {
          "indexed": false,
          "internalType": "uint256",
          "name": "amount",
          "type": "uint256"
        }
      ],
      "name": "Burn",
      "type": "event"
    },
    {
      "anonymous": false,
      "inputs": [
        {
          "indexed": true,
          "internalType": "address",
          "name": "previousOwner",
          "type": "address"
        },
        {
          "indexed": true,
          "internalType": "address",
          "name": "newOwner",
          "type": "address"
        }
      ],
      "name": "OwnershipTransferred",
      "type": "event"
    },
    {
      "inputs": [
        {
          "internalType": "address",
          "name": "inToken",
          "type": "address"
        }
      ],
      "name": "checkSwappable",
      "outputs": [
        {
          "internalType": "bool",
          "name": "",
          "type": "bool"
        }
      ],
      "stateMutability": "view",
      "type": "function"
    },
    {
      "inputs": [
        {
          "internalType": "uint256",
          "name": "",
          "type": "uint256"
        }
      ],
      "name": "commonPoolTokens",
      "outputs": [
        {
          "internalType": "address",
          "name": "",
          "type": "address"
        }
      ],
      "stateMutability": "view",
      "type": "function"
    },
    {
      "inputs": [
        {
          "internalType": "uint256",
          "name": "amount",
          "type": "uint256"
        },
        {
          "internalType": "address[]",
          "name": "path",
          "type": "address[]"
        }
      ],
      "name": "getAmountOut",
      "outputs": [
        {
          "internalType": "uint256",
          "name": "",
          "type": "uint256"
        }
      ],
      "stateMutability": "view",
      "type": "function"
    },
    {
      "inputs": [
        {
          "internalType": "uint256",
          "name": "amount",
          "type": "uint256"
        },
        {
          "internalType": "address[]",
          "name": "path",
          "type": "address[]"
        },
        {
          "internalType": "uint256[][][]",
          "name": "amountsForSwaps",
          "type": "uint256[][][]"
        },
        {
          "components": [
            {
              "internalType": "uint256",
              "name": "amountIn",
              "type": "uint256"
            },
            {
              "internalType": "uint256",
              "name": "valueIn",
              "type": "uint256"
            },
            {
              "internalType": "uint256",
              "name": "amountOut",
              "type": "uint256"
            },
            {
              "internalType": "uint256",
              "name": "valueOut",
              "type": "uint256"
            },
            {
              "internalType": "int256",
              "name": "slippage",
              "type": "int256"
            },
            {
              "internalType": "address",
              "name": "tokenIn",
              "type": "address"
            },
            {
              "internalType": "address[]",
              "name": "swappers",
              "type": "address[]"
            },
            {
              "internalType": "address",
              "name": "tokenOut",
              "type": "address"
            },
            {
              "internalType": "address[][]",
              "name": "paths",
              "type": "address[][]"
            }
          ],
          "internalType": "struct SwapPoint[]",
          "name": "priorSwaps",
          "type": "tuple[]"
        }
      ],
      "name": "getAmountsOutWithPath",
      "outputs": [
        {
          "internalType": "uint256[]",
          "name": "amountsOut",
          "type": "uint256[]"
        }
      ],
      "stateMutability": "view",
      "type": "function"
    },
    {
      "inputs": [],
      "name": "getCommonPoolTokens",
      "outputs": [
        {
          "internalType": "address[]",
          "name": "",
          "type": "address[]"
        }
      ],
      "stateMutability": "view",
      "type": "function"
    },
    {
      "inputs": [
        {
          "internalType": "address",
          "name": "token",
          "type": "address"
        },
        {
          "internalType": "address",
          "name": "inTermsOf",
          "type": "address"
        }
      ],
      "name": "getPrice",
      "outputs": [
        {
          "internalType": "uint256",
          "name": "",
          "type": "uint256"
        }
      ],
      "stateMutability": "view",
      "type": "function"
    },
    {
      "inputs": [],
      "name": "owner",
      "outputs": [
        {
          "internalType": "address",
          "name": "",
          "type": "address"
        }
      ],
      "stateMutability": "view",
      "type": "function"
    },
    {
      "inputs": [],
      "name": "renounceOwnership",
      "outputs": [],
      "stateMutability": "nonpayable",
      "type": "function"
    },
    {
      "inputs": [],
      "name": "router",
      "outputs": [
        {
          "internalType": "contract IUniswapV2Router02",
          "name": "",
          "type": "address"
        }
      ],
      "stateMutability": "view",
      "type": "function"
    },
    {
      "inputs": [
        {
          "internalType": "uint256",
          "name": "amount",
          "type": "uint256"
        },
        {
          "internalType": "address[]",
          "name": "path",
          "type": "address[]"
        },
        {
          "internalType": "address",
          "name": "self",
          "type": "address"
        }
      ],
      "name": "swap",
      "outputs": [
        {
          "internalType": "uint256",
          "name": "obtained",
          "type": "uint256"
        }
      ],
      "stateMutability": "payable",
      "type": "function"
    },
    {
      "inputs": [
        {
          "internalType": "address",
          "name": "newOwner",
          "type": "address"
        }
      ],
      "name": "transferOwnership",
      "outputs": [],
      "stateMutability": "nonpayable",
      "type": "function"
    }
  ],
  "transactionHash": "0xb9ae67c632f67f2dae891ceac240a988ba4a0ca4824941bcaf3fb2d1bd6797eb",
  "args": [
    "0x3a6d8cA21D1CF76F653A67577FA0D27453350dD8",
    [
      "0xbb4CdB9CBd36B01bD1cBaEBF2De08d9173bc095c",
      "0xe9e7CEA3DedcA5984780Bafc599bD69ADd087D56",
      "0x8AC76a51cc950d9822D68b83fE1Ad97B32Cd580d",
      "0x55d398326f99059fF775485246999027B3197955",
      "0x2170Ed0880ac9A755fd29B2688956BD959F933F8"
    ]
  ],
  "numDeployments": 1,
  "solcInputHash": "0e32d49de90c1ca08094a3215c0047c7",
  "bytecode": "0x60806040523480156200001157600080fd5b5060405162002dd138038062002dd183398101604081905262000034916200017c565b6200003f3362000078565b600180546001600160a01b0319166001600160a01b03841617905580516200006f906002906020840190620000c8565b50505062000265565b600080546001600160a01b038381166001600160a01b0319831681178455604051919092169283917f8be0079c531659141344cd1fd0a4f28419497f9722a3daafe3b4186f6b6457e09190a35050565b82805482825590600052602060002090810192821562000120579160200282015b828111156200012057825182546001600160a01b0319166001600160a01b03909116178255602090920191600190910190620000e9565b506200012e92915062000132565b5090565b5b808211156200012e576000815560010162000133565b80516001600160a01b03811681146200016157600080fd5b919050565b634e487b7160e01b600052604160045260246000fd5b600080604083850312156200019057600080fd5b6200019b8362000149565b602084810151919350906001600160401b0380821115620001bb57600080fd5b818601915086601f830112620001d057600080fd5b815181811115620001e557620001e562000166565b8060051b604051601f19603f830116810181811085821117156200020d576200020d62000166565b6040529182528482019250838101850191898311156200022c57600080fd5b938501935b828510156200025557620002458562000149565b8452938501939285019262000231565b8096505050505050509250929050565b612b5c80620002756000396000f3fe60806040526004361061009c5760003560e01c8063b8239ebb11610064578063b8239ebb14610156578063c0e7d8de14610176578063c663bc85146101a3578063f2fde38b146101c3578063f7d44c46146101e3578063f887ea401461021357600080fd5b80632a5c07fa146100a1578063715018a6146100cc5780638da5cb5b146100e3578063a40103d414610115578063ac41865a14610136575b600080fd5b3480156100ad57600080fd5b506100b6610233565b6040516100c39190612087565b60405180910390f35b3480156100d857600080fd5b506100e1610295565b005b3480156100ef57600080fd5b506000546001600160a01b03165b6040516001600160a01b0390911681526020016100c3565b6101286101233660046121c5565b6102a9565b6040519081526020016100c3565b34801561014257600080fd5b5061012861015136600461221f565b610522565b34801561016257600080fd5b50610128610171366004612258565b6108b1565b34801561018257600080fd5b50610196610191366004612458565b61095d565b6040516100c39190612670565b3480156101af57600080fd5b506100fd6101be3660046126b4565b610c67565b3480156101cf57600080fd5b506100e16101de3660046126cd565b610c91565b3480156101ef57600080fd5b506102036101fe3660046126cd565b610d0f565b60405190151581526020016100c3565b34801561021f57600080fd5b506001546100fd906001600160a01b031681565b6060600280548060200260200160405190810160405280929190818152602001828054801561028b57602002820191906000526020600020905b81546001600160a01b0316815260019091019060200180831161026d575b5050505050905090565b61029d6110f7565b6102a76000611151565b565b600082516000148061030c575082600184516102c59190612700565b815181106102d5576102d5612713565b60200260200101516001600160a01b0316836000815181106102f9576102f9612713565b60200260200101516001600160a01b0316145b80610315575083155b1561032157508261051b565b6000826001600160a01b031663f887ea406040518163ffffffff1660e01b8152600401602060405180830381865afa158015610361573d6000803e3d6000fd5b505050506040513d601f19601f820116820180604052508101906103859190612729565b90506103bf81868660008151811061039f5761039f612713565b60200260200101516001600160a01b03166111a19092919063ffffffff16565b60405163d06ca61f60e01b81526001600160a01b0382169063d06ca61f906103ed9088908890600401612746565b600060405180830381865afa92505050801561042b57506040513d6000823e601f3d908101601f19168201604052610428919081019061275f565b60015b61043957600091505061051b565b80600182516104489190612700565b8151811061045857610458612713565b60200260200101516000036104725760009250505061051b565b6040516338ed173960e01b81526001600160a01b038316906338ed1739906104a79089906000908a90309042906004016127e4565b6000604051808303816000875af11580156104c6573d6000803e3d6000fd5b505050506040513d6000823e601f3d908101601f191682016040526104ee919081019061275f565b5080600182516104fe9190612700565b8151811061050e5761050e612713565b6020026020010151925050505b9392505050565b6000816001600160a01b0316836001600160a01b0316036105b157826001600160a01b031663313ce5676040518163ffffffff1660e01b8152600401602060405180830381865afa15801561057b573d6000803e3d6000fd5b505050506040513d601f19601f8201168201806040525081019061059f9190612820565b6105aa90600a612927565b90506108ab565b6001546040805163c45a015560e01b815290516000926001600160a01b03169163c45a01559160048083019260209291908290030181865afa1580156105fb573d6000803e3d6000fd5b505050506040513d601f19601f8201168201806040525081019061061f9190612729565b90506000816001600160a01b031663e6a4390586866040518363ffffffff1660e01b8152600401610651929190612936565b602060405180830381865afa15801561066e573d6000803e3d6000fd5b505050506040513d601f19601f820116820180604052508101906106929190612729565b90506001600160a01b038116156108a4576000819050600080826001600160a01b0316630902f1ac6040518163ffffffff1660e01b8152600401606060405180830381865afa1580156106e9573d6000803e3d6000fd5b505050506040513d601f19601f8201168201806040525081019061070d919061297b565b506001600160701b031691506001600160701b03169150826001600160a01b0316630dfe16816040518163ffffffff1660e01b8152600401602060405180830381865afa158015610762573d6000803e3d6000fd5b505050506040513d601f19601f820116820180604052508101906107869190612729565b6001600160a01b0316886001600160a01b03160361082c5781886001600160a01b031663313ce5676040518163ffffffff1660e01b8152600401602060405180830381865afa1580156107dd573d6000803e3d6000fd5b505050506040513d601f19601f820116820180604052508101906108019190612820565b61080c90600a612927565b61081690836129be565b61082091906129d5565b955050505050506108ab565b80886001600160a01b031663313ce5676040518163ffffffff1660e01b8152600401602060405180830381865afa15801561086b573d6000803e3d6000fd5b505050506040513d601f19601f8201168201806040525081019061088f9190612820565b61089a90600a612927565b61081690846129be565b6000925050505b92915050565b60015460405163d06ca61f60e01b81526000916001600160a01b03169063d06ca61f906108e49086908690600401612746565b600060405180830381865afa92505050801561092257506040513d6000823e601f3d908101601f1916820160405261091f919081019061275f565b60015b61092e575060006108ab565b806001825161093d9190612700565b8151811061094d5761094d612713565b60200260200101519150506108ab565b60608351600014806109c0575083600185516109799190612700565b8151811061098957610989612713565b60200260200101516001600160a01b0316846000815181106109ad576109ad612713565b60200260200101516001600160a01b0316145b806109c9575084155b15610a335760408051600280825260608201835290916020830190803683370190505090508481600081518110610a0257610a02612713565b6020026020010181815250508481600181518110610a2257610a22612713565b602002602001018181525050610c5f565b83516001600160401b03811115610a4c57610a4c61209a565b604051908082528060200260200182016040528015610a75578160200160208202803683370190505b5090508481600081518110610a8c57610a8c612713565b602090810291909101015260015b8451811015610c5d57600080610aee87610ab5600186612700565b81518110610ac557610ac5612713565b6020026020010151888581518110610adf57610adf612713565b60200260200101518888611309565b9092509050610b6187610b02600186612700565b81518110610b1257610b12612713565b6020026020010151888581518110610b2c57610b2c612713565b602002602001015186600187610b429190612700565b81518110610b5257610b52612713565b602002602001015185856115b0565b848481518110610b7357610b73612713565b60209081029190910101526040805160028082526060820190925260009181602001602082028036833701905050905087610baf600186612700565b81518110610bbf57610bbf612713565b602002602001015181600081518110610bda57610bda612713565b60200260200101906001600160a01b031690816001600160a01b031681525050878481518110610c0c57610c0c612713565b602002602001015181600181518110610c2757610c27612713565b60200260200101906001600160a01b031690816001600160a01b0316815250505050508080610c55906129f7565b915050610a9a565b505b949350505050565b60028181548110610c7757600080fd5b6000918252602090912001546001600160a01b0316905081565b610c996110f7565b6001600160a01b038116610d035760405162461bcd60e51b815260206004820152602660248201527f4f776e61626c653a206e6577206f776e657220697320746865207a65726f206160448201526564647265737360d01b60648201526084015b60405180910390fd5b610d0c81611151565b50565b600080600160009054906101000a90046001600160a01b03166001600160a01b031663c45a01556040518163ffffffff1660e01b8152600401602060405180830381865afa158015610d65573d6000803e3d6000fd5b505050506040513d601f19601f82011682018060405250810190610d899190612729565b90508060005b6002548110156110ec5760028181548110610dac57610dac612713565b6000918252602090912001546001600160a01b0390811690861603610dd657506001949350505050565b6000610e3560028381548110610dee57610dee612713565b600091825260209091200154600280546001600160a01b03909216916001908110610e1b57610e1b612713565b6000918252602090912001546001600160a01b0316610522565b90506000836001600160a01b031663e6a439058860028681548110610e5c57610e5c612713565b6000918252602090912001546040516001600160e01b031960e085901b168152610e9392916001600160a01b031690600401612936565b602060405180830381865afa158015610eb0573d6000803e3d6000fd5b505050506040513d601f19601f82011682018060405250810190610ed49190612729565b90506001600160a01b038116610eeb5750506110da565b600060028481548110610f0057610f00612713565b6000918252602090912001546040516370a0823160e01b81526001600160a01b038481166004830152909116906370a0823190602401602060405180830381865afa158015610f53573d6000803e3d6000fd5b505050506040513d601f19601f82011682018060405250810190610f779190612a10565b905060006002600181548110610f8f57610f8f612713565b600091825260209182902001546040805163313ce56760e01b815290516001600160a01b039092169263313ce567926004808401938290030181865afa158015610fdd573d6000803e3d6000fd5b505050506040513d601f19601f820116820180604052508101906110019190612820565b61100c90600a612927565b6002868154811061101f5761101f612713565b600091825260209182902001546040805163313ce56760e01b815290516001600160a01b039092169263313ce567926004808401938290030181865afa15801561106d573d6000803e3d6000fd5b505050506040513d601f19601f820116820180604052508101906110919190612820565b61109c90600a612927565b6110a691906129be565b6110b085846129be565b6110ba91906129d5565b90506103e88111156110d55750600198975050505050505050565b505050505b806110e4816129f7565b915050610d8f565b506000949350505050565b6000546001600160a01b031633146102a75760405162461bcd60e51b815260206004820181905260248201527f4f776e61626c653a2063616c6c6572206973206e6f7420746865206f776e65726044820152606401610cfa565b600080546001600160a01b038381166001600160a01b0319831681178455604051919092169283917f8be0079c531659141344cd1fd0a4f28419497f9722a3daafe3b4186f6b6457e09190a35050565b604051636eb1769f60e11b81526000906001600160a01b0385169063dd62ed3e906111d29030908790600401612936565b602060405180830381865afa1580156111ef573d6000803e3d6000fd5b505050506040513d601f19601f820116820180604052508101906112139190612a10565b905060006112218383612a29565b90506000856001600160a01b031663095ea7b360e01b868460405160240161124a929190612a3c565b60408051601f198184030181529181526020820180516001600160e01b03166001600160e01b03199094169390931790925290516112889190612a79565b6000604051808303816000865af19150503d80600081146112c5576040519150601f19603f3d011682016040523d82523d6000602084013e6112ca565b606091505b5050905080611301578215611301576112ed6001600160a01b0387168685611c1b565b6113016001600160a01b0387168686611d55565b505050505050565b60008060005b83518110156115a657600084828151811061132c5761132c612713565b6020026020010151905060005b8160c001515181101561159157306001600160a01b03168260c00151828151811061136657611366612713565b60200260200101516001600160a01b03160361157f5760015b826101000151828151811061139657611396612713565b60200260200101515181101561157d57600083610100015183815181106113bf576113bf612713565b60200260200101516001836113d49190612700565b815181106113e4576113e4612713565b602002602001015190506000846101000151848151811061140757611407612713565b6020026020010151838151811061142057611420612713565b602002602001015190508b6001600160a01b0316826001600160a01b031614801561145c57508a6001600160a01b0316816001600160a01b0316145b156114cb5789868151811061147357611473612713565b6020026020010151848151811061148c5761148c612713565b60200260200101516001846114a19190612700565b815181106114b1576114b1612713565b6020026020010151886114c49190612a29565b9750611568565b8a6001600160a01b0316826001600160a01b03161480156114fd57508b6001600160a01b0316816001600160a01b0316145b156115685789868151811061151457611514612713565b6020026020010151848151811061152d5761152d612713565b60200260200101516001846115429190612700565b8151811061155257611552612713565b6020026020010151876115659190612a29565b96505b50508080611575906129f7565b91505061137f565b505b80611589816129f7565b915050611339565b5050808061159e906129f7565b91505061130f565b5094509492505050565b600080600160009054906101000a90046001600160a01b03166001600160a01b031663c45a01556040518163ffffffff1660e01b8152600401602060405180830381865afa158015611606573d6000803e3d6000fd5b505050506040513d601f19601f8201168201806040525081019061162a9190612729565b90506000816001600160a01b031663e6a4390589896040518363ffffffff1660e01b815260040161165c929190612936565b602060405180830381865afa158015611679573d6000803e3d6000fd5b505050506040513d601f19601f8201168201806040525081019061169d9190612729565b9050600080896001600160a01b0316836001600160a01b0316630dfe16816040518163ffffffff1660e01b8152600401602060405180830381865afa1580156116ea573d6000803e3d6000fd5b505050506040513d601f19601f8201168201806040525081019061170e9190612729565b6001600160a01b03160361179457826001600160a01b0316630902f1ac6040518163ffffffff1660e01b8152600401606060405180830381865afa15801561175a573d6000803e3d6000fd5b505050506040513d601f19601f8201168201806040525081019061177e919061297b565b506001600160701b039182169350169050611808565b826001600160a01b0316630902f1ac6040518163ffffffff1660e01b8152600401606060405180830381865afa1580156117d2573d6000803e3d6000fd5b505050506040513d601f19601f820116820180604052508101906117f6919061297b565b506001600160701b0390811693501690505b60408051600481526024810182526020810180516001600160e01b03166354cf2aeb60e01b179052905160009182916001600160a01b0387169161184b91612a79565b600060405180830381855afa9150503d8060008114611886576040519150601f19603f3d011682016040523d82523d6000602084013e61188b565b606091505b509150915081611a4d57600154604051630153543560e21b8152600481018b905260248101869052604481018590526001600160a01b039091169063054d50d490606401602060405180830381865afa925050508015611908575060408051601f3d908101601f1916820190925261190591810190612a10565b60015b15611927576119178a86612a29565b94506119238185612700565b9350505b600154604051630153543560e21b8152600481018a905260248101859052604481018690526001600160a01b039091169063054d50d490606401602060405180830381865afa92505050801561199a575060408051601f3d908101601f1916820190925261199791810190612a10565b60015b156119b9576119a98985612a29565b93506119b58186612700565b9450505b600154604051630153543560e21b8152600481018c905260248101869052604481018590526001600160a01b039091169063054d50d490606401602060405180830381865afa925050508015611a2c575060408051601f3d908101601f19168201909252611a2991810190612a10565b60015b611a3f5760009650505050505050611c12565b9650611c1295505050505050565b600081806020019051810190611a639190612a95565b60015460405163149c1f6360e21b81529192506001600160a01b0316906352707d8c90611a9a908d90899089908790600401612ab0565b602060405180830381865afa925050508015611ad3575060408051601f3d908101601f19168201909252611ad091810190612a10565b60015b15611af257611ae28b87612a29565b9550611aee8186612700565b9450505b60015460405163149c1f6360e21b81526001600160a01b03909116906352707d8c90611b28908c9088908a908790600401612ab0565b602060405180830381865afa925050508015611b61575060408051601f3d908101601f19168201909252611b5e91810190612a10565b60015b15611b8057611b708a86612a29565b9450611b7c8187612700565b9550505b60015460405163149c1f6360e21b81526001600160a01b03909116906352707d8c90611bb6908e90899089908790600401612ab0565b602060405180830381865afa925050508015611bef575060408051601f3d908101601f19168201909252611bec91810190612a10565b60015b611c03576000975050505050505050611c12565b9750611c129650505050505050565b95945050505050565b604051636eb1769f60e11b81526000906001600160a01b0385169063dd62ed3e90611c4c9030908790600401612936565b602060405180830381865afa158015611c69573d6000803e3d6000fd5b505050506040513d601f19601f82011682018060405250810190611c8d9190612a10565b905081811015611cf15760405162461bcd60e51b815260206004820152602960248201527f5361666545524332303a2064656372656173656420616c6c6f77616e63652062604482015268656c6f77207a65726f60b81b6064820152608401610cfa565b60405182820390611d4e90869063095ea7b360e01b90611d179088908690602401612a3c565b60408051601f198184030181529190526020810180516001600160e01b03166001600160e01b031990931692909217909152611e5d565b5050505050565b801580611dce5750604051636eb1769f60e11b81526001600160a01b0384169063dd62ed3e90611d8b9030908690600401612936565b602060405180830381865afa158015611da8573d6000803e3d6000fd5b505050506040513d601f19601f82011682018060405250810190611dcc9190612a10565b155b611e395760405162461bcd60e51b815260206004820152603660248201527f5361666545524332303a20617070726f76652066726f6d206e6f6e2d7a65726f60448201527520746f206e6f6e2d7a65726f20616c6c6f77616e636560501b6064820152608401610cfa565b611e588363095ea7b360e01b8484604051602401611d17929190612a3c565b505050565b6000611eb2826040518060400160405280602081526020017f5361666545524332303a206c6f772d6c6576656c2063616c6c206661696c6564815250856001600160a01b0316611f2f9092919063ffffffff16565b805190915015611e585780806020019051810190611ed09190612ad1565b611e585760405162461bcd60e51b815260206004820152602a60248201527f5361666545524332303a204552433230206f7065726174696f6e20646964206e6044820152691bdd081cdd58d8d9595960b21b6064820152608401610cfa565b6060610c5f8484600085856001600160a01b0385163b611f915760405162461bcd60e51b815260206004820152601d60248201527f416464726573733a2063616c6c20746f206e6f6e2d636f6e74726163740000006044820152606401610cfa565b600080866001600160a01b03168587604051611fad9190612a79565b60006040518083038185875af1925050503d8060008114611fea576040519150601f19603f3d011682016040523d82523d6000602084013e611fef565b606091505b5091509150611fff82828661200a565b979650505050505050565b6060831561201957508161051b565b8251156120295782518084602001fd5b8160405162461bcd60e51b8152600401610cfa9190612af3565b600081518084526020808501945080840160005b8381101561207c5781516001600160a01b031687529582019590820190600101612057565b509495945050505050565b60208152600061051b6020830184612043565b634e487b7160e01b600052604160045260246000fd5b60405161012081016001600160401b03811182821017156120d3576120d361209a565b60405290565b604051601f8201601f191681016001600160401b03811182821017156121015761210161209a565b604052919050565b60006001600160401b038211156121225761212261209a565b5060051b60200190565b6001600160a01b0381168114610d0c57600080fd5b803561214c8161212c565b919050565b600082601f83011261216257600080fd5b8135602061217761217283612109565b6120d9565b82815260059290921b8401810191818101908684111561219657600080fd5b8286015b848110156121ba5780356121ad8161212c565b835291830191830161219a565b509695505050505050565b6000806000606084860312156121da57600080fd5b8335925060208401356001600160401b038111156121f757600080fd5b61220386828701612151565b92505060408401356122148161212c565b809150509250925092565b6000806040838503121561223257600080fd5b823561223d8161212c565b9150602083013561224d8161212c565b809150509250929050565b6000806040838503121561226b57600080fd5b8235915060208301356001600160401b0381111561228857600080fd5b61229485828601612151565b9150509250929050565b600082601f8301126122af57600080fd5b813560206122bf61217283612109565b82815260059290921b840181019181810190868411156122de57600080fd5b8286015b848110156121ba5780356001600160401b038111156123015760008081fd5b61230f8986838b0101612151565b8452509183019183016122e2565b600082601f83011261232e57600080fd5b8135602061233e61217283612109565b82815260059290921b8401810191818101908684111561235d57600080fd5b8286015b848110156121ba5780356001600160401b03808211156123815760008081fd5b90880190610120828b03601f190181131561239c5760008081fd5b6123a46120b0565b87840135815260408085013589830152606080860135828401526080915081860135818401525060a0808601358284015260c091506123e4828701612141565b9083015260e085810135858111156123fc5760008081fd5b61240a8f8c838a0101612151565b8385015250610100915061241f828701612141565b908301529184013591838311156124365760008081fd5b6124448d8a8588010161229e565b908201528652505050918301918301612361565b6000806000806080858703121561246e57600080fd5b843593506001600160401b036020860135111561248a57600080fd5b61249a8660208701358701612151565b92506001600160401b03604086013511156124b457600080fd5b6040850135850186601f8201126124ca57600080fd5b6124d76121728235612109565b81358082526020808301929160051b8401018910156124f557600080fd5b602083015b6020843560051b850101811015612638576001600160401b038135111561252057600080fd5b803584018a603f82011261253357600080fd5b6125436121726020830135612109565b602082810135808352908201919060051b83016040018d101561256557600080fd5b604083015b6040602085013560051b850101811015612627576001600160401b038135111561259357600080fd5b8d605f8235860101126125a557600080fd5b6125b86121726040833587010135612109565b80604083358701013582526020820191508f6060604085358901013560051b85358901010111156125e857600080fd5b606083358701015b83358701604081013560051b016060018110156126175780358352602092830192016125f0565b508452506020928301920161256a565b5085525050602092830192016124fa565b50935050506001600160401b036060860135111561265557600080fd5b612665866060870135870161231d565b905092959194509250565b6020808252825182820181905260009190848201906040850190845b818110156126a85783518352928401929184019160010161268c565b50909695505050505050565b6000602082840312156126c657600080fd5b5035919050565b6000602082840312156126df57600080fd5b813561051b8161212c565b634e487b7160e01b600052601160045260246000fd5b818103818111156108ab576108ab6126ea565b634e487b7160e01b600052603260045260246000fd5b60006020828403121561273b57600080fd5b815161051b8161212c565b828152604060208201526000610c5f6040830184612043565b6000602080838503121561277257600080fd5b82516001600160401b0381111561278857600080fd5b8301601f8101851361279957600080fd5b80516127a761217282612109565b81815260059190911b820183019083810190878311156127c657600080fd5b928401925b82841015611fff578351825292840192908401906127cb565b85815284602082015260a06040820152600061280360a0830186612043565b6001600160a01b0394909416606083015250608001529392505050565b60006020828403121561283257600080fd5b815160ff8116811461051b57600080fd5b600181815b8085111561287e578160001904821115612864576128646126ea565b8085161561287157918102915b93841c9390800290612848565b509250929050565b600082612895575060016108ab565b816128a2575060006108ab565b81600181146128b857600281146128c2576128de565b60019150506108ab565b60ff8411156128d3576128d36126ea565b50506001821b6108ab565b5060208310610133831016604e8410600b8410161715612901575081810a6108ab565b61290b8383612843565b806000190482111561291f5761291f6126ea565b029392505050565b600061051b60ff841683612886565b6001600160a01b0392831681529116602082015260400190565b80516001600160701b038116811461214c57600080fd5b805163ffffffff8116811461214c57600080fd5b60008060006060848603121561299057600080fd5b61299984612950565b92506129a760208501612950565b91506129b560408501612967565b90509250925092565b80820281158282048414176108ab576108ab6126ea565b6000826129f257634e487b7160e01b600052601260045260246000fd5b500490565b600060018201612a0957612a096126ea565b5060010190565b600060208284031215612a2257600080fd5b5051919050565b808201808211156108ab576108ab6126ea565b6001600160a01b03929092168252602082015260400190565b60005b83811015612a70578181015183820152602001612a58565b50506000910152565b60008251612a8b818460208701612a55565b9190910192915050565b600060208284031215612aa757600080fd5b61051b82612967565b9384526020840192909252604083015263ffffffff16606082015260800190565b600060208284031215612ae357600080fd5b8151801515811461051b57600080fd5b6020815260008251806020840152612b12816040850160208701612a55565b601f01601f1916919091016040019291505056fea2646970667358221220c438343b9843cb3fb9b1f883f4f0488c64b20327cefc545e1cce99234d228dca64736f6c63430008110033",
  "devdoc": {
    "kind": "dev",
    "methods": {
      "owner()": {
        "details": "Returns the address of the current owner."
      },
      "renounceOwnership()": {
        "details": "Leaves the contract without owner. It will not be possible to call `onlyOwner` functions anymore. Can only be called by the current owner. NOTE: Renouncing ownership will leave the contract without an owner, thereby removing any functionality that is only available to the owner."
      },
      "transferOwnership(address)": {
        "details": "Transfers ownership of the contract to a new account (`newOwner`). Can only be called by the current owner."
      }
    },
    "version": 1
  },
  "userdoc": {
    "kind": "user",
    "methods": {},
    "version": 1
  },
  "storageLayout": {
    "storage": [
      {
        "astId": 7,
        "contract": "contracts/Swappers/UniswapV2Swapper.sol:UniswapV2Swapper",
        "label": "_owner",
        "offset": 0,
        "slot": "0",
        "type": "t_address"
      },
      {
        "astId": 17999,
        "contract": "contracts/Swappers/UniswapV2Swapper.sol:UniswapV2Swapper",
        "label": "router",
        "offset": 0,
        "slot": "1",
        "type": "t_contract(IUniswapV2Router02)25555"
      },
      {
        "astId": 18002,
        "contract": "contracts/Swappers/UniswapV2Swapper.sol:UniswapV2Swapper",
        "label": "commonPoolTokens",
        "offset": 0,
        "slot": "2",
        "type": "t_array(t_address)dyn_storage"
      }
    ],
    "types": {
      "t_address": {
        "encoding": "inplace",
        "label": "address",
        "numberOfBytes": "20"
      },
      "t_array(t_address)dyn_storage": {
        "base": "t_address",
        "encoding": "dynamic_array",
        "label": "address[]",
        "numberOfBytes": "32"
      },
      "t_contract(IUniswapV2Router02)25555": {
        "encoding": "inplace",
        "label": "contract IUniswapV2Router02",
        "numberOfBytes": "20"
      }
    }
  }
}