{
  "address": "0xb8a314bCC7C6f3445FC6Dd7902b08B805F2539FE",
  "abi": [
    {
      "inputs": [
        {
          "internalType": "address[]",
          "name": "_poolInteractors",
          "type": "address[]"
        },
        {
          "internalType": "address[]",
          "name": "_nftPoolInteractors",
          "type": "address[]"
        },
        {
          "internalType": "address",
          "name": "_networkToken",
          "type": "address"
        },
        {
          "internalType": "address",
          "name": "_stableToken",
          "type": "address"
        },
        {
          "internalType": "address[]",
          "name": "_swappers",
          "type": "address[]"
        },
        {
          "internalType": "address",
          "name": "_oracle",
          "type": "address"
        }
      ],
      "stateMutability": "nonpayable",
      "type": "constructor"
    },
    {
      "anonymous": false,
      "inputs": [
        {
          "indexed": false,
          "internalType": "address",
          "name": "receiver",
          "type": "address"
        },
        {
          "indexed": false,
          "internalType": "address[]",
          "name": "tokens",
          "type": "address[]"
        },
        {
          "indexed": false,
          "internalType": "address[]",
          "name": "managers",
          "type": "address[]"
        },
        {
          "indexed": false,
          "internalType": "uint256[]",
          "name": "amountsAndIds",
          "type": "uint256[]"
        }
      ],
      "name": "AssetsSent",
      "type": "event"
    },
    {
      "anonymous": false,
      "inputs": [
        {
          "indexed": false,
          "internalType": "address",
          "name": "manager",
          "type": "address"
        },
        {
          "indexed": false,
          "internalType": "uint256",
          "name": "tokenId",
          "type": "uint256"
        },
        {
          "indexed": false,
          "internalType": "address",
          "name": "pool",
          "type": "address"
        }
      ],
      "name": "NFTMinted",
      "type": "event"
    },
    {
      "anonymous": false,
      "inputs": [
        {
          "indexed": true,
          "internalType": "address",
          "name": "previousOwner",
          "type": "address"
        },
        {
          "indexed": true,
          "internalType": "address",
          "name": "newOwner",
          "type": "address"
        }
      ],
      "name": "OwnershipTransferred",
      "type": "event"
    },
    {
      "inputs": [],
      "name": "conversionHelper",
      "outputs": [
        {
          "internalType": "contract ConversionHelper",
          "name": "",
          "type": "address"
        }
      ],
      "stateMutability": "view",
      "type": "function"
    },
    {
      "inputs": [
        {
          "components": [
            {
              "internalType": "address[]",
              "name": "tokens",
              "type": "address[]"
            },
            {
              "internalType": "uint256[]",
              "name": "amounts",
              "type": "uint256[]"
            },
            {
              "components": [
                {
                  "internalType": "address",
                  "name": "pool",
                  "type": "address"
                },
                {
                  "internalType": "address",
                  "name": "manager",
                  "type": "address"
                },
                {
                  "internalType": "uint256",
                  "name": "tokenId",
                  "type": "uint256"
                },
                {
                  "internalType": "uint256",
                  "name": "liquidity",
                  "type": "uint256"
                },
                {
                  "internalType": "bytes",
                  "name": "data",
                  "type": "bytes"
                }
              ],
              "internalType": "struct Asset[]",
              "name": "nfts",
              "type": "tuple[]"
            }
          ],
          "internalType": "struct Provided",
          "name": "assets",
          "type": "tuple"
        },
        {
          "internalType": "address",
          "name": "inTermsOf",
          "type": "address"
        }
      ],
      "name": "estimateValue",
      "outputs": [
        {
          "internalType": "uint256",
          "name": "",
          "type": "uint256"
        }
      ],
      "stateMutability": "view",
      "type": "function"
    },
    {
      "inputs": [
        {
          "internalType": "address",
          "name": "token",
          "type": "address"
        },
        {
          "internalType": "uint256",
          "name": "amount",
          "type": "uint256"
        },
        {
          "internalType": "address",
          "name": "inTermsOf",
          "type": "address"
        }
      ],
      "name": "estimateValueERC20",
      "outputs": [
        {
          "internalType": "uint256",
          "name": "",
          "type": "uint256"
        }
      ],
      "stateMutability": "view",
      "type": "function"
    },
    {
      "inputs": [
        {
          "components": [
            {
              "internalType": "address",
              "name": "pool",
              "type": "address"
            },
            {
              "internalType": "address",
              "name": "manager",
              "type": "address"
            },
            {
              "internalType": "uint256",
              "name": "tokenId",
              "type": "uint256"
            },
            {
              "internalType": "uint256",
              "name": "liquidity",
              "type": "uint256"
            },
            {
              "internalType": "bytes",
              "name": "data",
              "type": "bytes"
            }
          ],
          "internalType": "struct Asset",
          "name": "nft",
          "type": "tuple"
        },
        {
          "internalType": "address",
          "name": "inTermsOf",
          "type": "address"
        }
      ],
      "name": "estimateValueERC721",
      "outputs": [
        {
          "internalType": "uint256",
          "name": "",
          "type": "uint256"
        }
      ],
      "stateMutability": "view",
      "type": "function"
    },
    {
      "inputs": [
        {
          "components": [
            {
              "internalType": "address[]",
              "name": "tokens",
              "type": "address[]"
            },
            {
              "internalType": "uint256[]",
              "name": "amounts",
              "type": "uint256[]"
            },
            {
              "components": [
                {
                  "internalType": "address",
                  "name": "pool",
                  "type": "address"
                },
                {
                  "internalType": "address",
                  "name": "manager",
                  "type": "address"
                },
                {
                  "internalType": "uint256",
                  "name": "tokenId",
                  "type": "uint256"
                },
                {
                  "internalType": "uint256",
                  "name": "liquidity",
                  "type": "uint256"
                },
                {
                  "internalType": "bytes",
                  "name": "data",
                  "type": "bytes"
                }
              ],
              "internalType": "struct Asset[]",
              "name": "nfts",
              "type": "tuple[]"
            }
          ],
          "internalType": "struct Provided",
          "name": "provided",
          "type": "tuple"
        },
        {
          "components": [
            {
              "internalType": "address[]",
              "name": "outputERC20s",
              "type": "address[]"
            },
            {
              "components": [
                {
                  "internalType": "address",
                  "name": "pool",
                  "type": "address"
                },
                {
                  "internalType": "address",
                  "name": "manager",
                  "type": "address"
                },
                {
                  "internalType": "uint256",
                  "name": "tokenId",
                  "type": "uint256"
                },
                {
                  "internalType": "uint256",
                  "name": "liquidity",
                  "type": "uint256"
                },
                {
                  "internalType": "bytes",
                  "name": "data",
                  "type": "bytes"
                }
              ],
              "internalType": "struct Asset[]",
              "name": "outputERC721s",
              "type": "tuple[]"
            },
            {
              "internalType": "uint256[]",
              "name": "ratios",
              "type": "uint256[]"
            },
            {
              "internalType": "uint256[]",
              "name": "minAmountsOut",
              "type": "uint256[]"
            }
          ],
          "internalType": "struct Desired",
          "name": "desired",
          "type": "tuple"
        }
      ],
      "name": "getAmountsOut",
      "outputs": [
        {
          "internalType": "uint256[]",
          "name": "amounts",
          "type": "uint256[]"
        },
        {
          "components": [
            {
              "internalType": "uint256",
              "name": "amountIn",
              "type": "uint256"
            },
            {
              "internalType": "uint256",
              "name": "valueIn",
              "type": "uint256"
            },
            {
              "internalType": "uint256",
              "name": "amountOut",
              "type": "uint256"
            },
            {
              "internalType": "uint256",
              "name": "valueOut",
              "type": "uint256"
            },
            {
              "internalType": "int256",
              "name": "slippage",
              "type": "int256"
            },
            {
              "internalType": "address",
              "name": "tokenIn",
              "type": "address"
            },
            {
              "internalType": "address[]",
              "name": "swappers",
              "type": "address[]"
            },
            {
              "internalType": "address",
              "name": "tokenOut",
              "type": "address"
            },
            {
              "internalType": "address[][]",
              "name": "paths",
              "type": "address[][]"
            }
          ],
          "internalType": "struct SwapPoint[]",
          "name": "swaps",
          "type": "tuple[]"
        },
        {
          "components": [
            {
              "components": [
                {
                  "internalType": "address",
                  "name": "pool",
                  "type": "address"
                },
                {
                  "internalType": "address",
                  "name": "manager",
                  "type": "address"
                },
                {
                  "internalType": "uint256",
                  "name": "tokenId",
                  "type": "uint256"
                },
                {
                  "internalType": "uint256",
                  "name": "liquidity",
                  "type": "uint256"
                },
                {
                  "internalType": "bytes",
                  "name": "data",
                  "type": "bytes"
                }
              ],
              "internalType": "struct Asset",
              "name": "desiredERC721",
              "type": "tuple"
            },
            {
              "internalType": "address",
              "name": "desiredERC20",
              "type": "address"
            },
            {
              "internalType": "uint256",
              "name": "value",
              "type": "uint256"
            },
            {
              "internalType": "address[]",
              "name": "underlying",
              "type": "address[]"
            },
            {
              "internalType": "uint256[]",
              "name": "underlyingValues",
              "type": "uint256[]"
            }
          ],
          "internalType": "struct Conversion[]",
          "name": "conversions",
          "type": "tuple[]"
        },
        {
          "internalType": "uint256[]",
          "name": "expectedUSDValues",
          "type": "uint256[]"
        }
      ],
      "stateMutability": "view",
      "type": "function"
    },
    {
      "inputs": [
        {
          "components": [
            {
              "internalType": "address[]",
              "name": "tokens",
              "type": "address[]"
            },
            {
              "internalType": "uint256[]",
              "name": "amounts",
              "type": "uint256[]"
            },
            {
              "components": [
                {
                  "internalType": "address",
                  "name": "pool",
                  "type": "address"
                },
                {
                  "internalType": "address",
                  "name": "manager",
                  "type": "address"
                },
                {
                  "internalType": "uint256",
                  "name": "tokenId",
                  "type": "uint256"
                },
                {
                  "internalType": "uint256",
                  "name": "liquidity",
                  "type": "uint256"
                },
                {
                  "internalType": "bytes",
                  "name": "data",
                  "type": "bytes"
                }
              ],
              "internalType": "struct Asset[]",
              "name": "nfts",
              "type": "tuple[]"
            }
          ],
          "internalType": "struct Provided",
          "name": "provided",
          "type": "tuple"
        },
        {
          "components": [
            {
              "internalType": "address[]",
              "name": "outputERC20s",
              "type": "address[]"
            },
            {
              "components": [
                {
                  "internalType": "address",
                  "name": "pool",
                  "type": "address"
                },
                {
                  "internalType": "address",
                  "name": "manager",
                  "type": "address"
                },
                {
                  "internalType": "uint256",
                  "name": "tokenId",
                  "type": "uint256"
                },
                {
                  "internalType": "uint256",
                  "name": "liquidity",
                  "type": "uint256"
                },
                {
                  "internalType": "bytes",
                  "name": "data",
                  "type": "bytes"
                }
              ],
              "internalType": "struct Asset[]",
              "name": "outputERC721s",
              "type": "tuple[]"
            },
            {
              "internalType": "uint256[]",
              "name": "ratios",
              "type": "uint256[]"
            },
            {
              "internalType": "uint256[]",
              "name": "minAmountsOut",
              "type": "uint256[]"
            }
          ],
          "internalType": "struct Desired",
          "name": "desired",
          "type": "tuple"
        },
        {
          "components": [
            {
              "internalType": "uint256",
              "name": "amountIn",
              "type": "uint256"
            },
            {
              "internalType": "uint256",
              "name": "valueIn",
              "type": "uint256"
            },
            {
              "internalType": "uint256",
              "name": "amountOut",
              "type": "uint256"
            },
            {
              "internalType": "uint256",
              "name": "valueOut",
              "type": "uint256"
            },
            {
              "internalType": "int256",
              "name": "slippage",
              "type": "int256"
            },
            {
              "internalType": "address",
              "name": "tokenIn",
              "type": "address"
            },
            {
              "internalType": "address[]",
              "name": "swappers",
              "type": "address[]"
            },
            {
              "internalType": "address",
              "name": "tokenOut",
              "type": "address"
            },
            {
              "internalType": "address[][]",
              "name": "paths",
              "type": "address[][]"
            }
          ],
          "internalType": "struct SwapPoint[]",
          "name": "swaps",
          "type": "tuple[]"
        },
        {
          "components": [
            {
              "components": [
                {
                  "internalType": "address",
                  "name": "pool",
                  "type": "address"
                },
                {
                  "internalType": "address",
                  "name": "manager",
                  "type": "address"
                },
                {
                  "internalType": "uint256",
                  "name": "tokenId",
                  "type": "uint256"
                },
                {
                  "internalType": "uint256",
                  "name": "liquidity",
                  "type": "uint256"
                },
                {
                  "internalType": "bytes",
                  "name": "data",
                  "type": "bytes"
                }
              ],
              "internalType": "struct Asset",
              "name": "desiredERC721",
              "type": "tuple"
            },
            {
              "internalType": "address",
              "name": "desiredERC20",
              "type": "address"
            },
            {
              "internalType": "uint256",
              "name": "value",
              "type": "uint256"
            },
            {
              "internalType": "address[]",
              "name": "underlying",
              "type": "address[]"
            },
            {
              "internalType": "uint256[]",
              "name": "underlyingValues",
              "type": "uint256[]"
            }
          ],
          "internalType": "struct Conversion[]",
          "name": "conversions",
          "type": "tuple[]"
        }
      ],
      "name": "getAmountsOutWithSwaps",
      "outputs": [
        {
          "internalType": "uint256[]",
          "name": "amounts",
          "type": "uint256[]"
        },
        {
          "internalType": "uint256[]",
          "name": "expectedUSDValues",
          "type": "uint256[]"
        }
      ],
      "stateMutability": "view",
      "type": "function"
    },
    {
      "inputs": [],
      "name": "getNFTPoolInteractors",
      "outputs": [
        {
          "internalType": "address[]",
          "name": "",
          "type": "address[]"
        }
      ],
      "stateMutability": "view",
      "type": "function"
    },
    {
      "inputs": [],
      "name": "getPoolInteractors",
      "outputs": [
        {
          "internalType": "address[]",
          "name": "",
          "type": "address[]"
        }
      ],
      "stateMutability": "view",
      "type": "function"
    },
    {
      "inputs": [
        {
          "internalType": "address",
          "name": "token",
          "type": "address"
        }
      ],
      "name": "getProtocol",
      "outputs": [
        {
          "internalType": "address",
          "name": "",
          "type": "address"
        }
      ],
      "stateMutability": "view",
      "type": "function"
    },
    {
      "inputs": [],
      "name": "getSwappers",
      "outputs": [
        {
          "internalType": "address[]",
          "name": "",
          "type": "address[]"
        }
      ],
      "stateMutability": "view",
      "type": "function"
    },
    {
      "inputs": [
        {
          "internalType": "address[]",
          "name": "tokens",
          "type": "address[]"
        },
        {
          "internalType": "uint256[]",
          "name": "tokenAmounts",
          "type": "uint256[]"
        }
      ],
      "name": "getTokenValues",
      "outputs": [
        {
          "internalType": "uint256[]",
          "name": "values",
          "type": "uint256[]"
        },
        {
          "internalType": "uint256",
          "name": "total",
          "type": "uint256"
        }
      ],
      "stateMutability": "view",
      "type": "function"
    },
    {
      "inputs": [
        {
          "components": [
            {
              "internalType": "address[]",
              "name": "tokens",
              "type": "address[]"
            },
            {
              "internalType": "uint256[]",
              "name": "amounts",
              "type": "uint256[]"
            },
            {
              "components": [
                {
                  "internalType": "address",
                  "name": "pool",
                  "type": "address"
                },
                {
                  "internalType": "address",
                  "name": "manager",
                  "type": "address"
                },
                {
                  "internalType": "uint256",
                  "name": "tokenId",
                  "type": "uint256"
                },
                {
                  "internalType": "uint256",
                  "name": "liquidity",
                  "type": "uint256"
                },
                {
                  "internalType": "bytes",
                  "name": "data",
                  "type": "bytes"
                }
              ],
              "internalType": "struct Asset[]",
              "name": "nfts",
              "type": "tuple[]"
            }
          ],
          "internalType": "struct Provided",
          "name": "provided",
          "type": "tuple"
        }
      ],
      "name": "getUnderlying",
      "outputs": [
        {
          "internalType": "address[]",
          "name": "",
          "type": "address[]"
        },
        {
          "internalType": "uint256[]",
          "name": "",
          "type": "uint256[]"
        }
      ],
      "stateMutability": "view",
      "type": "function"
    },
    {
      "inputs": [
        {
          "internalType": "address",
          "name": "token",
          "type": "address"
        }
      ],
      "name": "isSimpleToken",
      "outputs": [
        {
          "internalType": "bool",
          "name": "",
          "type": "bool"
        }
      ],
      "stateMutability": "view",
      "type": "function"
    },
    {
      "inputs": [
        {
          "internalType": "address",
          "name": "token",
          "type": "address"
        }
      ],
      "name": "isSupported",
      "outputs": [
        {
          "internalType": "bool",
          "name": "",
          "type": "bool"
        }
      ],
      "stateMutability": "view",
      "type": "function"
    },
    {
      "inputs": [],
      "name": "networkToken",
      "outputs": [
        {
          "internalType": "address",
          "name": "",
          "type": "address"
        }
      ],
      "stateMutability": "view",
      "type": "function"
    },
    {
      "inputs": [
        {
          "internalType": "uint256",
          "name": "",
          "type": "uint256"
        }
      ],
      "name": "nftPoolInteractors",
      "outputs": [
        {
          "internalType": "address",
          "name": "",
          "type": "address"
        }
      ],
      "stateMutability": "view",
      "type": "function"
    },
    {
      "inputs": [],
      "name": "oracle",
      "outputs": [
        {
          "internalType": "address",
          "name": "",
          "type": "address"
        }
      ],
      "stateMutability": "view",
      "type": "function"
    },
    {
      "inputs": [],
      "name": "owner",
      "outputs": [
        {
          "internalType": "address",
          "name": "",
          "type": "address"
        }
      ],
      "stateMutability": "view",
      "type": "function"
    },
    {
      "inputs": [
        {
          "internalType": "uint256",
          "name": "",
          "type": "uint256"
        }
      ],
      "name": "poolInteractors",
      "outputs": [
        {
          "internalType": "address",
          "name": "",
          "type": "address"
        }
      ],
      "stateMutability": "view",
      "type": "function"
    },
    {
      "inputs": [
        {
          "components": [
            {
              "internalType": "address[]",
              "name": "tokens",
              "type": "address[]"
            },
            {
              "internalType": "uint256[]",
              "name": "amounts",
              "type": "uint256[]"
            },
            {
              "components": [
                {
                  "internalType": "address",
                  "name": "pool",
                  "type": "address"
                },
                {
                  "internalType": "address",
                  "name": "manager",
                  "type": "address"
                },
                {
                  "internalType": "uint256",
                  "name": "tokenId",
                  "type": "uint256"
                },
                {
                  "internalType": "uint256",
                  "name": "liquidity",
                  "type": "uint256"
                },
                {
                  "internalType": "bytes",
                  "name": "data",
                  "type": "bytes"
                }
              ],
              "internalType": "struct Asset[]",
              "name": "nfts",
              "type": "tuple[]"
            }
          ],
          "internalType": "struct Provided",
          "name": "provided",
          "type": "tuple"
        },
        {
          "components": [
            {
              "internalType": "address[]",
              "name": "outputERC20s",
              "type": "address[]"
            },
            {
              "components": [
                {
                  "internalType": "address",
                  "name": "pool",
                  "type": "address"
                },
                {
                  "internalType": "address",
                  "name": "manager",
                  "type": "address"
                },
                {
                  "internalType": "uint256",
                  "name": "tokenId",
                  "type": "uint256"
                },
                {
                  "internalType": "uint256",
                  "name": "liquidity",
                  "type": "uint256"
                },
                {
                  "internalType": "bytes",
                  "name": "data",
                  "type": "bytes"
                }
              ],
              "internalType": "struct Asset[]",
              "name": "outputERC721s",
              "type": "tuple[]"
            },
            {
              "internalType": "uint256[]",
              "name": "ratios",
              "type": "uint256[]"
            },
            {
              "internalType": "uint256[]",
              "name": "minAmountsOut",
              "type": "uint256[]"
            }
          ],
          "internalType": "struct Desired",
          "name": "desired",
          "type": "tuple"
        }
      ],
      "name": "preSwapCalculateSwaps",
      "outputs": [
        {
          "components": [
            {
              "internalType": "uint256",
              "name": "amountIn",
              "type": "uint256"
            },
            {
              "internalType": "uint256",
              "name": "valueIn",
              "type": "uint256"
            },
            {
              "internalType": "uint256",
              "name": "amountOut",
              "type": "uint256"
            },
            {
              "internalType": "uint256",
              "name": "valueOut",
              "type": "uint256"
            },
            {
              "internalType": "int256",
              "name": "slippage",
              "type": "int256"
            },
            {
              "internalType": "address",
              "name": "tokenIn",
              "type": "address"
            },
            {
              "internalType": "address[]",
              "name": "swappers",
              "type": "address[]"
            },
            {
              "internalType": "address",
              "name": "tokenOut",
              "type": "address"
            },
            {
              "internalType": "address[][]",
              "name": "paths",
              "type": "address[][]"
            }
          ],
          "internalType": "struct SwapPoint[]",
          "name": "swaps",
          "type": "tuple[]"
        },
        {
          "components": [
            {
              "components": [
                {
                  "internalType": "address",
                  "name": "pool",
                  "type": "address"
                },
                {
                  "internalType": "address",
                  "name": "manager",
                  "type": "address"
                },
                {
                  "internalType": "uint256",
                  "name": "tokenId",
                  "type": "uint256"
                },
                {
                  "internalType": "uint256",
                  "name": "liquidity",
                  "type": "uint256"
                },
                {
                  "internalType": "bytes",
                  "name": "data",
                  "type": "bytes"
                }
              ],
              "internalType": "struct Asset",
              "name": "desiredERC721",
              "type": "tuple"
            },
            {
              "internalType": "address",
              "name": "desiredERC20",
              "type": "address"
            },
            {
              "internalType": "uint256",
              "name": "value",
              "type": "uint256"
            },
            {
              "internalType": "address[]",
              "name": "underlying",
              "type": "address[]"
            },
            {
              "internalType": "uint256[]",
              "name": "underlyingValues",
              "type": "uint256[]"
            }
          ],
          "internalType": "struct Conversion[]",
          "name": "conversions",
          "type": "tuple[]"
        }
      ],
      "stateMutability": "view",
      "type": "function"
    },
    {
      "inputs": [
        {
          "components": [
            {
              "internalType": "address[]",
              "name": "tokens",
              "type": "address[]"
            },
            {
              "internalType": "uint256[]",
              "name": "amounts",
              "type": "uint256[]"
            },
            {
              "components": [
                {
                  "internalType": "address",
                  "name": "pool",
                  "type": "address"
                },
                {
                  "internalType": "address",
                  "name": "manager",
                  "type": "address"
                },
                {
                  "internalType": "uint256",
                  "name": "tokenId",
                  "type": "uint256"
                },
                {
                  "internalType": "uint256",
                  "name": "liquidity",
                  "type": "uint256"
                },
                {
                  "internalType": "bytes",
                  "name": "data",
                  "type": "bytes"
                }
              ],
              "internalType": "struct Asset[]",
              "name": "nfts",
              "type": "tuple[]"
            }
          ],
          "internalType": "struct Provided",
          "name": "provided",
          "type": "tuple"
        },
        {
          "components": [
            {
              "internalType": "address[]",
              "name": "outputERC20s",
              "type": "address[]"
            },
            {
              "components": [
                {
                  "internalType": "address",
                  "name": "pool",
                  "type": "address"
                },
                {
                  "internalType": "address",
                  "name": "manager",
                  "type": "address"
                },
                {
                  "internalType": "uint256",
                  "name": "tokenId",
                  "type": "uint256"
                },
                {
                  "internalType": "uint256",
                  "name": "liquidity",
                  "type": "uint256"
                },
                {
                  "internalType": "bytes",
                  "name": "data",
                  "type": "bytes"
                }
              ],
              "internalType": "struct Asset[]",
              "name": "outputERC721s",
              "type": "tuple[]"
            },
            {
              "internalType": "uint256[]",
              "name": "ratios",
              "type": "uint256[]"
            },
            {
              "internalType": "uint256[]",
              "name": "minAmountsOut",
              "type": "uint256[]"
            }
          ],
          "internalType": "struct Desired",
          "name": "desired",
          "type": "tuple"
        }
      ],
      "name": "preSwapCalculateUnderlying",
      "outputs": [
        {
          "internalType": "address[]",
          "name": "",
          "type": "address[]"
        },
        {
          "internalType": "uint256[]",
          "name": "",
          "type": "uint256[]"
        },
        {
          "internalType": "uint256[]",
          "name": "",
          "type": "uint256[]"
        },
        {
          "components": [
            {
              "components": [
                {
                  "internalType": "address",
                  "name": "pool",
                  "type": "address"
                },
                {
                  "internalType": "address",
                  "name": "manager",
                  "type": "address"
                },
                {
                  "internalType": "uint256",
                  "name": "tokenId",
                  "type": "uint256"
                },
                {
                  "internalType": "uint256",
                  "name": "liquidity",
                  "type": "uint256"
                },
                {
                  "internalType": "bytes",
                  "name": "data",
                  "type": "bytes"
                }
              ],
              "internalType": "struct Asset",
              "name": "desiredERC721",
              "type": "tuple"
            },
            {
              "internalType": "address",
              "name": "desiredERC20",
              "type": "address"
            },
            {
              "internalType": "uint256",
              "name": "value",
              "type": "uint256"
            },
            {
              "internalType": "address[]",
              "name": "underlying",
              "type": "address[]"
            },
            {
              "internalType": "uint256[]",
              "name": "underlyingValues",
              "type": "uint256[]"
            }
          ],
          "internalType": "struct Conversion[]",
          "name": "",
          "type": "tuple[]"
        },
        {
          "internalType": "address[]",
          "name": "",
          "type": "address[]"
        },
        {
          "internalType": "uint256[]",
          "name": "",
          "type": "uint256[]"
        }
      ],
      "stateMutability": "view",
      "type": "function"
    },
    {
      "inputs": [],
      "name": "providedHelper",
      "outputs": [
        {
          "internalType": "contract ProvidedHelper",
          "name": "",
          "type": "address"
        }
      ],
      "stateMutability": "view",
      "type": "function"
    },
    {
      "inputs": [],
      "name": "renounceOwnership",
      "outputs": [],
      "stateMutability": "nonpayable",
      "type": "function"
    },
    {
      "inputs": [
        {
          "internalType": "address[]",
          "name": "_nftPoolInteractors",
          "type": "address[]"
        }
      ],
      "name": "setNFTPoolInteractors",
      "outputs": [],
      "stateMutability": "nonpayable",
      "type": "function"
    },
    {
      "inputs": [
        {
          "internalType": "address",
          "name": "_oracle",
          "type": "address"
        }
      ],
      "name": "setOracle",
      "outputs": [],
      "stateMutability": "nonpayable",
      "type": "function"
    },
    {
      "inputs": [
        {
          "internalType": "address[]",
          "name": "_poolInteractors",
          "type": "address[]"
        }
      ],
      "name": "setPoolInteractors",
      "outputs": [],
      "stateMutability": "nonpayable",
      "type": "function"
    },
    {
      "inputs": [
        {
          "internalType": "address[]",
          "name": "_swappers",
          "type": "address[]"
        }
      ],
      "name": "setSwappers",
      "outputs": [],
      "stateMutability": "nonpayable",
      "type": "function"
    },
    {
      "inputs": [],
      "name": "stableToken",
      "outputs": [
        {
          "internalType": "address",
          "name": "",
          "type": "address"
        }
      ],
      "stateMutability": "view",
      "type": "function"
    },
    {
      "inputs": [
        {
          "components": [
            {
              "internalType": "address[]",
              "name": "tokens",
              "type": "address[]"
            },
            {
              "internalType": "uint256[]",
              "name": "amounts",
              "type": "uint256[]"
            },
            {
              "components": [
                {
                  "internalType": "address",
                  "name": "pool",
                  "type": "address"
                },
                {
                  "internalType": "address",
                  "name": "manager",
                  "type": "address"
                },
                {
                  "internalType": "uint256",
                  "name": "tokenId",
                  "type": "uint256"
                },
                {
                  "internalType": "uint256",
                  "name": "liquidity",
                  "type": "uint256"
                },
                {
                  "internalType": "bytes",
                  "name": "data",
                  "type": "bytes"
                }
              ],
              "internalType": "struct Asset[]",
              "name": "nfts",
              "type": "tuple[]"
            }
          ],
          "internalType": "struct Provided",
          "name": "provided",
          "type": "tuple"
        },
        {
          "components": [
            {
              "internalType": "uint256",
              "name": "amountIn",
              "type": "uint256"
            },
            {
              "internalType": "uint256",
              "name": "valueIn",
              "type": "uint256"
            },
            {
              "internalType": "uint256",
              "name": "amountOut",
              "type": "uint256"
            },
            {
              "internalType": "uint256",
              "name": "valueOut",
              "type": "uint256"
            },
            {
              "internalType": "int256",
              "name": "slippage",
              "type": "int256"
            },
            {
              "internalType": "address",
              "name": "tokenIn",
              "type": "address"
            },
            {
              "internalType": "address[]",
              "name": "swappers",
              "type": "address[]"
            },
            {
              "internalType": "address",
              "name": "tokenOut",
              "type": "address"
            },
            {
              "internalType": "address[][]",
              "name": "paths",
              "type": "address[][]"
            }
          ],
          "internalType": "struct SwapPoint[]",
          "name": "swaps",
          "type": "tuple[]"
        },
        {
          "components": [
            {
              "components": [
                {
                  "internalType": "address",
                  "name": "pool",
                  "type": "address"
                },
                {
                  "internalType": "address",
                  "name": "manager",
                  "type": "address"
                },
                {
                  "internalType": "uint256",
                  "name": "tokenId",
                  "type": "uint256"
                },
                {
                  "internalType": "uint256",
                  "name": "liquidity",
                  "type": "uint256"
                },
                {
                  "internalType": "bytes",
                  "name": "data",
                  "type": "bytes"
                }
              ],
              "internalType": "struct Asset",
              "name": "desiredERC721",
              "type": "tuple"
            },
            {
              "internalType": "address",
              "name": "desiredERC20",
              "type": "address"
            },
            {
              "internalType": "uint256",
              "name": "value",
              "type": "uint256"
            },
            {
              "internalType": "address[]",
              "name": "underlying",
              "type": "address[]"
            },
            {
              "internalType": "uint256[]",
              "name": "underlyingValues",
              "type": "uint256[]"
            }
          ],
          "internalType": "struct Conversion[]",
          "name": "conversions",
          "type": "tuple[]"
        },
        {
          "components": [
            {
              "internalType": "address[]",
              "name": "outputERC20s",
              "type": "address[]"
            },
            {
              "components": [
                {
                  "internalType": "address",
                  "name": "pool",
                  "type": "address"
                },
                {
                  "internalType": "address",
                  "name": "manager",
                  "type": "address"
                },
                {
                  "internalType": "uint256",
                  "name": "tokenId",
                  "type": "uint256"
                },
                {
                  "internalType": "uint256",
                  "name": "liquidity",
                  "type": "uint256"
                },
                {
                  "internalType": "bytes",
                  "name": "data",
                  "type": "bytes"
                }
              ],
              "internalType": "struct Asset[]",
              "name": "outputERC721s",
              "type": "tuple[]"
            },
            {
              "internalType": "uint256[]",
              "name": "ratios",
              "type": "uint256[]"
            },
            {
              "internalType": "uint256[]",
              "name": "minAmountsOut",
              "type": "uint256[]"
            }
          ],
          "internalType": "struct Desired",
          "name": "desired",
          "type": "tuple"
        },
        {
          "internalType": "address",
          "name": "receiver",
          "type": "address"
        }
      ],
      "name": "swap",
      "outputs": [
        {
          "internalType": "uint256[]",
          "name": "",
          "type": "uint256[]"
        }
      ],
      "stateMutability": "payable",
      "type": "function"
    },
    {
      "inputs": [
        {
          "components": [
            {
              "internalType": "address[]",
              "name": "tokens",
              "type": "address[]"
            },
            {
              "internalType": "uint256[]",
              "name": "amounts",
              "type": "uint256[]"
            },
            {
              "components": [
                {
                  "internalType": "address",
                  "name": "pool",
                  "type": "address"
                },
                {
                  "internalType": "address",
                  "name": "manager",
                  "type": "address"
                },
                {
                  "internalType": "uint256",
                  "name": "tokenId",
                  "type": "uint256"
                },
                {
                  "internalType": "uint256",
                  "name": "liquidity",
                  "type": "uint256"
                },
                {
                  "internalType": "bytes",
                  "name": "data",
                  "type": "bytes"
                }
              ],
              "internalType": "struct Asset[]",
              "name": "nfts",
              "type": "tuple[]"
            }
          ],
          "internalType": "struct Provided",
          "name": "provided",
          "type": "tuple"
        },
        {
          "components": [
            {
              "internalType": "uint256",
              "name": "amountIn",
              "type": "uint256"
            },
            {
              "internalType": "uint256",
              "name": "valueIn",
              "type": "uint256"
            },
            {
              "internalType": "uint256",
              "name": "amountOut",
              "type": "uint256"
            },
            {
              "internalType": "uint256",
              "name": "valueOut",
              "type": "uint256"
            },
            {
              "internalType": "int256",
              "name": "slippage",
              "type": "int256"
            },
            {
              "internalType": "address",
              "name": "tokenIn",
              "type": "address"
            },
            {
              "internalType": "address[]",
              "name": "swappers",
              "type": "address[]"
            },
            {
              "internalType": "address",
              "name": "tokenOut",
              "type": "address"
            },
            {
              "internalType": "address[][]",
              "name": "paths",
              "type": "address[][]"
            }
          ],
          "internalType": "struct SwapPoint[]",
          "name": "swaps",
          "type": "tuple[]"
        },
        {
          "components": [
            {
              "components": [
                {
                  "internalType": "address",
                  "name": "pool",
                  "type": "address"
                },
                {
                  "internalType": "address",
                  "name": "manager",
                  "type": "address"
                },
                {
                  "internalType": "uint256",
                  "name": "tokenId",
                  "type": "uint256"
                },
                {
                  "internalType": "uint256",
                  "name": "liquidity",
                  "type": "uint256"
                },
                {
                  "internalType": "bytes",
                  "name": "data",
                  "type": "bytes"
                }
              ],
              "internalType": "struct Asset",
              "name": "desiredERC721",
              "type": "tuple"
            },
            {
              "internalType": "address",
              "name": "desiredERC20",
              "type": "address"
            },
            {
              "internalType": "uint256",
              "name": "value",
              "type": "uint256"
            },
            {
              "internalType": "address[]",
              "name": "underlying",
              "type": "address[]"
            },
            {
              "internalType": "uint256[]",
              "name": "underlyingValues",
              "type": "uint256[]"
            }
          ],
          "internalType": "struct Conversion[]",
          "name": "conversions",
          "type": "tuple[]"
        },
        {
          "components": [
            {
              "internalType": "address[]",
              "name": "outputERC20s",
              "type": "address[]"
            },
            {
              "components": [
                {
                  "internalType": "address",
                  "name": "pool",
                  "type": "address"
                },
                {
                  "internalType": "address",
                  "name": "manager",
                  "type": "address"
                },
                {
                  "internalType": "uint256",
                  "name": "tokenId",
                  "type": "uint256"
                },
                {
                  "internalType": "uint256",
                  "name": "liquidity",
                  "type": "uint256"
                },
                {
                  "internalType": "bytes",
                  "name": "data",
                  "type": "bytes"
                }
              ],
              "internalType": "struct Asset[]",
              "name": "outputERC721s",
              "type": "tuple[]"
            },
            {
              "internalType": "uint256[]",
              "name": "ratios",
              "type": "uint256[]"
            },
            {
              "internalType": "uint256[]",
              "name": "minAmountsOut",
              "type": "uint256[]"
            }
          ],
          "internalType": "struct Desired",
          "name": "desired",
          "type": "tuple"
        },
        {
          "internalType": "address",
          "name": "receiver",
          "type": "address"
        }
      ],
      "name": "swapAfterTransfer",
      "outputs": [
        {
          "internalType": "uint256[]",
          "name": "",
          "type": "uint256[]"
        }
      ],
      "stateMutability": "payable",
      "type": "function"
    },
    {
      "inputs": [],
      "name": "swapHelper",
      "outputs": [
        {
          "internalType": "contract SwapHelper",
          "name": "",
          "type": "address"
        }
      ],
      "stateMutability": "view",
      "type": "function"
    },
    {
      "inputs": [
        {
          "internalType": "uint256",
          "name": "",
          "type": "uint256"
        }
      ],
      "name": "swappers",
      "outputs": [
        {
          "internalType": "address",
          "name": "",
          "type": "address"
        }
      ],
      "stateMutability": "view",
      "type": "function"
    },
    {
      "inputs": [
        {
          "internalType": "address",
          "name": "newOwner",
          "type": "address"
        }
      ],
      "name": "transferOwnership",
      "outputs": [],
      "stateMutability": "nonpayable",
      "type": "function"
    },
    {
      "stateMutability": "payable",
      "type": "receive"
    }
  ],
  "transactionHash": "0x04dae6bf13cde3630b6822aeef98dcc3d32eb39551d7f3aba3b5389fd8c2ecb0",
  "args": [
    [
      "0x55eD688cDc9b87803a2fD1DAaD1EFF71E6C4052D",
      "0xbc491236549Beb761d3d775F1f065612193a2469"
    ],
    [],
    "0xbb4CdB9CBd36B01bD1cBaEBF2De08d9173bc095c",
    "0xe9e7CEA3DedcA5984780Bafc599bD69ADd087D56",
    [
      "0x37Ea7F5D58e7bd2f109C0D6fdf2c748481fb0E2c",
      "0x55cCAB581d458145a16F8e6b2eE292542642301a"
    ],
    "0xDAd98C39925F3E4dd2cB89B69A8F9C223161A87E"
  ],
  "numDeployments": 1,
  "solcInputHash": "0e32d49de90c1ca08094a3215c0047c7",
  "bytecode": "0x60806040523480156200001157600080fd5b506040516200e7d63803806200e7d68339810160408190526200003491620003e7565b6200003f336200020c565b8551620000549060049060208901906200025c565b5084516200006a9060059060208801906200025c565b508151620000809060039060208501906200025c565b50600180546001600160a01b038087166001600160a01b031992831617909255600280548684169083161790556006805492841692909116919091179055604051620000cc90620002c6565b604051809103906000f080158015620000e9573d6000803e3d6000fd5b50600780546001600160a01b0319166001600160a01b03929092169190911790556040516200011890620002d4565b604051809103906000f08015801562000135573d6000803e3d6000fd5b50600880546001600160a01b0319166001600160a01b039290921691821790556040516200016390620002e2565b6001600160a01b039091168152602001604051809103906000f08015801562000190573d6000803e3d6000fd5b50600980546001600160a01b0319166001600160a01b0392909216918217905560405163f2fde38b60e01b815233600482015263f2fde38b90602401600060405180830381600087803b158015620001e757600080fd5b505af1158015620001fc573d6000803e3d6000fd5b50505050505050505050620004af565b600080546001600160a01b038381166001600160a01b0319831681178455604051919092169283917f8be0079c531659141344cd1fd0a4f28419497f9722a3daafe3b4186f6b6457e09190a35050565b828054828255906000526020600020908101928215620002b4579160200282015b82811115620002b457825182546001600160a01b0319166001600160a01b039091161782556020909201916001909101906200027d565b50620002c2929150620002f0565b5090565b61160f80620062d683390190565b61215c80620078e583390190565b614d958062009a4183390190565b5b80821115620002c25760008155600101620002f1565b634e487b7160e01b600052604160045260246000fd5b80516001600160a01b03811681146200033557600080fd5b919050565b600082601f8301126200034c57600080fd5b815160206001600160401b03808311156200036b576200036b62000307565b8260051b604051601f19603f8301168101818110848211171562000393576200039362000307565b604052938452858101830193838101925087851115620003b257600080fd5b83870191505b84821015620003dc57620003cc826200031d565b83529183019190830190620003b8565b979650505050505050565b60008060008060008060c087890312156200040157600080fd5b86516001600160401b03808211156200041957600080fd5b620004278a838b016200033a565b975060208901519150808211156200043e57600080fd5b6200044c8a838b016200033a565b96506200045c60408a016200031d565b95506200046c60608a016200031d565b945060808901519150808211156200048357600080fd5b506200049289828a016200033a565b925050620004a360a088016200031d565b90509295509295509295565b615e1780620004bf6000396000f3fe6080604052600436106101b25760003560e01c80636d6f00a4116100ed5780639b1fbbe7116100905780639b1fbbe7146105015780639d9c503b14610521578063a37c7a491461054f578063a9d75b2b1461057d578063cc62c8521461059d578063e7c87f19146105b0578063f2fde38b146105d0578063f485d942146105f0578063fa3f66991461061057600080fd5b80636d6f00a41461040e578063715018a61461042e5780637adbf973146104435780637dc0d1d01461046357806388719125146104835780638da5cb5b146104a35780639817ad1c146104c15780639b0b872b146104e157600080fd5b806341b2b5371161015557806341b2b537146102e757806345725af0146103095780634f129c531461031e5780634f92a1a51461034e5780635c9512db1461037c57806367f2ac131461039c5780636b757755146103ce5780636ca95a4e146103ee57600080fd5b8063090f2f63146101be5780630b3be65b146101f45780630fc6a11c1461022257806311ef73c51461024257806318f7b610146102645780631d75097d1461028457806321027dc5146102b25780633ccced4a146102d257600080fd5b366101b957005b600080fd5b3480156101ca57600080fd5b506101de6101d9366004614339565b610640565b6040516101eb9190614352565b60405180910390f35b34801561020057600080fd5b5061021461020f366004614525565b61066a565b6040519081526020016101eb565b34801561022e57600080fd5b506009546101de906001600160a01b031681565b34801561024e57600080fd5b5061025761075a565b6040516101eb91906145ba565b34801561027057600080fd5b506101de61027f366004614339565b6107bc565b34801561029057600080fd5b506102a461029f3660046146ba565b6107cc565b6040516101eb92919061474d565b3480156102be57600080fd5b506101de6102cd36600461476f565b6109e7565b3480156102de57600080fd5b50610257610bad565b3480156102f357600080fd5b5061030761030236600461478c565b610c0d565b005b34801561031557600080fd5b50610257610c26565b34801561032a57600080fd5b5061033e61033936600461476f565b610c86565b60405190151581526020016101eb565b34801561035a57600080fd5b5061036e6103693660046149e5565b610cc7565b6040516101eb929190614ca8565b34801561038857600080fd5b5061030761039736600461478c565b610d74565b3480156103a857600080fd5b506103bc6103b73660046149e5565b610d88565b6040516101eb96959493929190614cd6565b6103e16103dc366004615036565b610f86565b6040516101eb91906150f7565b3480156103fa57600080fd5b506001546101de906001600160a01b031681565b34801561041a57600080fd5b5061021461042936600461510a565b61103e565b34801561043a57600080fd5b50610307611161565b34801561044f57600080fd5b5061030761045e36600461476f565b611175565b34801561046f57600080fd5b506006546101de906001600160a01b031681565b34801561048f57600080fd5b5061030761049e36600461478c565b61119f565b3480156104af57600080fd5b506000546001600160a01b03166101de565b3480156104cd57600080fd5b506101de6104dc366004614339565b6111b3565b3480156104ed57600080fd5b506008546101de906001600160a01b031681565b34801561050d57600080fd5b5061021461051c36600461514c565b6111c3565b34801561052d57600080fd5b5061054161053c366004615181565b61136c565b6040516101eb9291906151b5565b34801561055b57600080fd5b5061056f61056a3660046151da565b6113ef565b6040516101eb929190615286565b34801561058957600080fd5b506002546101de906001600160a01b031681565b6103e16105ab366004615036565b61158b565b3480156105bc57600080fd5b5061033e6105cb36600461476f565b6115f9565b3480156105dc57600080fd5b506103076105eb36600461476f565b6116e6565b3480156105fc57600080fd5b506007546101de906001600160a01b031681565b34801561061c57600080fd5b5061063061062b3660046149e5565b611764565b6040516101eb9493929190615299565b6003818154811061065057600080fd5b6000918252602090912001546001600160a01b0316905081565b604080516001808252818301909252600091829190816020015b61068c614280565b81526020019060019003908161068457905050905083816000815181106106b5576106b56152e6565b6020026020010181905250610750604051806060016040528060006001600160401b038111156106e7576106e7614366565b604051908082528060200260200182016040528015610710578160200160208202803683370190505b5081526020016000604051908082528060200260200182016040528015610741578160200160208202803683370190505b508152602001839052846111c3565b9150505b92915050565b606060048054806020026020016040519081016040528092919081815260200182805480156107b257602002820191906000526020600020905b81546001600160a01b03168152600190910190602001808311610794575b5050505050905090565b6005818154811061065057600080fd5b6060600083516001600160401b038111156107e9576107e9614366565b604051908082528060200260200182016040528015610812578160200160208202803683370190505b50915060005b84518110156109df57848181518110610833576108336152e6565b60200260200101516001600160a01b031663313ce5676040518163ffffffff1660e01b8152600401602060405180830381865afa158015610878573d6000803e3d6000fd5b505050506040513d601f19601f8201168201806040525081019061089c91906152fc565b6108a790600a615411565b8482815181106108b9576108b96152e6565b6020026020010151600660009054906101000a90046001600160a01b03166001600160a01b031663ac41865a8885815181106108f7576108f76152e6565b602090810291909101015160015460405160e084901b6001600160e01b03191681526001600160a01b03928316600482015291166024820152604401602060405180830381865afa158015610950573d6000803e3d6000fd5b505050506040513d601f19601f820116820180604052508101906109749190615420565b61097e9190615439565b6109889190615450565b83828151811061099a5761099a6152e6565b6020026020010181815250508281815181106109b8576109b86152e6565b6020026020010151826109cb9190615472565b9150806109d781615485565b915050610818565b509250929050565b60006109f2826115f9565b156109ff57506000919050565b60005b600454811015610adf5760048181548110610a1f57610a1f6152e6565b600091825260209091200154604051632d53013b60e21b81526001600160a01b039091169063b54c04ec90610a58908690600401614352565b602060405180830381865afa158015610a75573d6000803e3d6000fd5b505050506040513d601f19601f82011682018060405250810190610a99919061549e565b15610acd5760048181548110610ab157610ab16152e6565b6000918252602090912001546001600160a01b03169392505050565b80610ad781615485565b915050610a02565b5060005b600554811015610ba45760058181548110610b0057610b006152e6565b600091825260209091200154604051632d53013b60e21b81526001600160a01b039091169063b54c04ec90610b39908690600401614352565b602060405180830381865afa158015610b56573d6000803e3d6000fd5b505050506040513d601f19601f82011682018060405250810190610b7a919061549e565b15610b925760058181548110610ab157610ab16152e6565b80610b9c81615485565b915050610ae3565b50600092915050565b606060058054806020026020016040519081016040528092919081815260200182805480156107b2576020028201919060005260206000209081546001600160a01b03168152600190910190602001808311610794575050505050905090565b610c15611804565b610c21600383836142c1565b505050565b606060038054806020026020016040519081016040528092919081815260200182805480156107b2576020028201919060005260206000209081546001600160a01b03168152600190910190602001808311610794575050505050905090565b6000610c91826115f9565b15610c9e57506001919050565b6000610ca9836109e7565b6001600160a01b031614610cbf57506001919050565b506000919050565b6060806060806060610cd98787610d88565b60208d01859052858d52600954604051631573458360e11b8152939a5093985090965094506001600160a01b0390911692632ae68b0692610d22928890889088906004016154c0565b600060405180830381865afa158015610d3f573d6000803e3d6000fd5b505050506040513d6000823e601f3d908101601f19168201604052610d67919081019061561b565b94505050505b9250929050565b610d7c611804565b610c21600583836142c1565b60608060608060608060005b885151811015610e2257885180516000919083908110610db657610db66152e6565b60200260200101516001600160a01b031603610e1057600154895180516001600160a01b039092169183908110610def57610def6152e6565b60200260200101906001600160a01b031690816001600160a01b0316815250505b80610e1a81615485565b915050610d94565b50600754604051630c1eb7ed60e21b81526001600160a01b039091169063307adfb490610e53908b9060040161580a565b600060405180830381865afa158015610e70573d6000803e3d6000fd5b505050506040513d6000823e601f3d908101601f19168201604052610e989190810190615878565b60208a01819052818a52600091606091610eb291906107cc565b6008548b5160208d01516040808f0151905163390d345960e11b81529497509495506000946001600160a01b039093169363721a68b293610ef993929189906004016158d1565b600060405180830381865afa158015610f16573d6000803e3d6000fd5b505050506040513d6000823e601f3d908101601f19168201604052610f3e91908101906159da565b9050600080610f4c8361185e565b9092509050610f5b828261199d565b9092509050610f6983611ccd565b8d516020909e01519d9e949c509a50909850965090945050505050565b8451606090600090610f989082611f9a565b8751519091508114610fc7578651610fb09082611ffb565b87526020870151610fc190826120ce565b60208801525b610fde87600001518860200151896040015161218c565b60208901528752600060405190808252806020026020018201604052801561102057816020015b61100d614280565b8152602001906001900390816110055790505b50604088015261103387878787876122d7565b979650505050505050565b604080516001808252818301909252600091829190602080830190803683375050604080516001808252818301909252929350600092915060208083019080368337019050509050858260008151811061109a5761109a6152e6565b60200260200101906001600160a01b031690816001600160a01b03168152505084816000815181106110ce576110ce6152e6565b6020026020010181815250506000604051806060016040528084815260200183815260200160006001600160401b0381111561110c5761110c614366565b60405190808252806020026020018201604052801561114557816020015b611132614280565b81526020019060019003908161112a5790505b509052905061115481866111c3565b93505050505b9392505050565b611169611804565b6111736000612466565b565b61117d611804565b600680546001600160a01b0319166001600160a01b0392909216919091179055565b6111a7611804565b610c21600483836142c1565b6004818154811061065057600080fd5b600754604051630c1eb7ed60e21b8152600091829182916001600160a01b03169063307adfb4906111f890889060040161580a565b600060405180830381865afa158015611215573d6000803e3d6000fd5b505050506040513d6000823e601f3d908101601f1916820160405261123d9190810190615878565b91509150600061124d83836107cc565b915050600160009054906101000a90046001600160a01b03166001600160a01b031663313ce5676040518163ffffffff1660e01b8152600401602060405180830381865afa1580156112a3573d6000803e3d6000fd5b505050506040513d601f19601f820116820180604052508101906112c791906152fc565b6112d290600a615411565b600654600154604051635620c32d60e11b81526001600160a01b03918216600482015288821660248201528492919091169063ac41865a90604401602060405180830381865afa15801561132a573d6000803e3d6000fd5b505050506040513d601f19601f8201168201806040525081019061134e9190615420565b6113589190615439565b6113629190615450565b9695505050505050565b600754604051630c1eb7ed60e21b815260609182916001600160a01b039091169063307adfb4906113a190869060040161580a565b600060405180830381865afa1580156113be573d6000803e3d6000fd5b505050506040513d6000823e601f3d908101601f191682016040526113e69190810190615878565b91509150915091565b60608060005b86515181101561148357865180516000919083908110611417576114176152e6565b60200260200101516001600160a01b03160361147157600154875180516001600160a01b039092169183908110611450576114506152e6565b60200260200101906001600160a01b031690816001600160a01b0316815250505b8061147b81615485565b9150506113f5565b50600754604051630c1eb7ed60e21b81526001600160a01b039091169063307adfb4906114b490899060040161580a565b600060405180830381865afa1580156114d1573d6000803e3d6000fd5b505050506040513d6000823e601f3d908101601f191682016040526114f99190810190615878565b6020880152865260095460405160016202d05960e61b031981526001600160a01b039091169063ff4be9c090611539908990899089908990600401615b1e565b600060405180830381865afa158015611556573d6000803e3d6000fd5b505050506040513d6000823e601f3d908101601f1916820160405261157e9190810190615bc3565b9097909650945050505050565b60606115a48660000151876020015188604001516124b6565b6020880152865260006040519080825280602002602001820160405280156115e657816020015b6115d3614280565b8152602001906001900390816115cb5790505b50604087015261136286868686866122d7565b6001546000906001600160a01b038381169116148061161f57506001600160a01b038216155b1561162c57506001919050565b60005b600354811015610ba4576003818154811061164c5761164c6152e6565b600091825260209091200154604051637bea262360e11b81526001600160a01b039091169063f7d44c4690611685908690600401614352565b602060405180830381865afa1580156116a2573d6000803e3d6000fd5b505050506040513d601f19601f820116820180604052508101906116c6919061549e565b156116d45750600192915050565b806116de81615485565b91505061162f565b6116ee611804565b6001600160a01b0381166117585760405162461bcd60e51b815260206004820152602660248201527f4f776e61626c653a206e6577206f776e657220697320746865207a65726f206160448201526564647265737360d01b60648201526084015b60405180910390fd5b61176181612466565b50565b6060806060806117748686610cc7565b60095460405160016202d05960e61b031981529295509093506001600160a01b03169063ff4be9c0906117b1908990899088908890600401615b1e565b600060405180830381865afa1580156117ce573d6000803e3d6000fd5b505050506040513d6000823e601f3d908101601f191682016040526117f69190810190615bc3565b909793965091945090925050565b6000546001600160a01b031633146111735760405162461bcd60e51b815260206004820181905260248201527f4f776e61626c653a2063616c6c6572206973206e6f7420746865206f776e6572604482015260640161174f565b60608060005b83518110156119975760005b848281518110611882576118826152e6565b60200260200101516060015151811015611984576118d6858684815181106118ac576118ac6152e6565b60200260200101516060015183815181106118c9576118c96152e6565b6020026020010151612631565b15611972576119248583815181106118f0576118f06152e6565b602002602001015160600151828151811061190d5761190d6152e6565b6020026020010151856126f090919063ffffffff16565b935061196f85838151811061193b5761193b6152e6565b6020026020010151608001518281518110611958576119586152e6565b6020026020010151846127dc90919063ffffffff16565b92505b8061197c81615485565b915050611870565b508061198f81615485565b915050611864565b50915091565b606080600084516001600160401b038111156119bb576119bb614366565b6040519080825280602002602001820160405280156119e4578160200160208202803683370190505b50905060005b8551811015611b1757805b8651811015611b04578181118015611a505750868181518110611a1a57611a1a6152e6565b60200260200101516001600160a01b0316878381518110611a3d57611a3d6152e6565b60200260200101516001600160a01b0316145b15611af257858181518110611a6757611a676152e6565b6020026020010151868381518110611a8157611a816152e6565b6020026020010151611a939190615472565b868381518110611aa557611aa56152e6565b6020026020010181815250506000868281518110611ac557611ac56152e6565b6020026020010181815250506001838281518110611ae557611ae56152e6565b6020026020010181815250505b80611afc81615485565b9150506119f5565b5080611b0f81615485565b9150506119ea565b506000805b8651811015611b67576000868281518110611b3957611b396152e6565b60200260200101511115611b5557611b52600183615472565b91505b80611b5f81615485565b915050611b1c565b50806001600160401b03811115611b8057611b80614366565b604051908082528060200260200182016040528015611ba9578160200160208202803683370190505b509350806001600160401b03811115611bc457611bc4614366565b604051908082528060200260200182016040528015611bed578160200160208202803683370190505b5092506000805b8751811015611cc2576000878281518110611c1157611c116152e6565b60200260200101511115611cb057878181518110611c3157611c316152e6565b6020026020010151868381518110611c4b57611c4b6152e6565b60200260200101906001600160a01b031690816001600160a01b031681525050868181518110611c7d57611c7d6152e6565b6020026020010151858381518110611c9757611c976152e6565b6020908102919091010152611cad600183615472565b91505b80611cba81615485565b915050611bf4565b505050509250929050565b606060005b8251811015611e315760005b838281518110611cf057611cf06152e6565b60200260200101516060015151811015611e1e57611d1a848584815181106118ac576118ac6152e6565b15611e0c576000611d628584878681518110611d3857611d386152e6565b6020026020010151606001518581518110611d5557611d556152e6565b60200260200101516128ad565b905060008111611d7a57670de0b6b3a7640000611dcf565b80858481518110611d8d57611d8d6152e6565b6020026020010151608001518381518110611daa57611daa6152e6565b6020026020010151670de0b6b3a7640000611dc59190615439565b611dcf9190615450565b858481518110611de157611de16152e6565b6020026020010151608001518381518110611dfe57611dfe6152e6565b602002602001018181525050505b80611e1681615485565b915050611cde565b5080611e2981615485565b915050611cd2565b5060005b8251811015611f935760005b838281518110611e5357611e536152e6565b60200260200101516060015151811015611f8057611e7d848584815181106118ac576118ac6152e6565b611f6e576000611ec48584878681518110611e9a57611e9a6152e6565b6020026020010151606001518581518110611eb757611eb76152e6565b6020026020010151612973565b905060008111611edc57670de0b6b3a7640000611f31565b80858481518110611eef57611eef6152e6565b6020026020010151608001518381518110611f0c57611f0c6152e6565b6020026020010151670de0b6b3a7640000611f279190615439565b611f319190615450565b858481518110611f4357611f436152e6565b6020026020010151608001518381518110611f6057611f606152e6565b602002602001018181525050505b80611f7881615485565b915050611e41565b5080611f8b81615485565b915050611e35565b5090919050565b6000805b8351811015611ff257826001600160a01b0316848281518110611fc357611fc36152e6565b60200260200101516001600160a01b031603611fe0579050610754565b80611fea81615485565b915050611f9e565b50509051919050565b60606001835161200b9190615bf9565b6001600160401b0381111561202257612022614366565b60405190808252806020026020018201604052801561204b578160200160208202803683370190505b5090506000805b84518110156120c6578381146120b457848181518110612074576120746152e6565b602002602001015183838151811061208e5761208e6152e6565b6001600160a01b03909216602092830291909101909101526120b1600183615472565b91505b806120be81615485565b915050612052565b505092915050565b6060600183516120de9190615bf9565b6001600160401b038111156120f5576120f5614366565b60405190808252806020026020018201604052801561211e578160200160208202803683370190505b5090506000805b84518110156120c65783811461217a57848181518110612147576121476152e6565b6020026020010151838381518110612161576121616152e6565b6020908102919091010152612177600183615472565b91505b8061218481615485565b915050612125565b60608060005b835181101561229e5760008482815181106121af576121af6152e6565b6020026020010151905060006121c882602001516109e7565b90506001600160a01b0381166121f05760405162461bcd60e51b815260040161174f90615c0c565b600061225063a274ab5b60e01b8460405160240161220e9190615c28565b60408051601f198184030181529190526020810180516001600160e01b03166001600160e01b0319909316929092179091526001600160a01b03841690612a7c565b9050600080828060200190518101906122699190615878565b90925090506122788b83612aa1565b9a506122848a82612bc7565b99505050505050808061229690615485565b915050612192565b506000806122ac8787612cd3565b915091506122ba828261304e565b90925090506122c9828261199d565b909890975095505050505050565b60608451600014806122e857508351155b156122fd576122f78684610cc7565b90955093505b8551516123305760405162461bcd60e51b81526020600482015260016024820152600d60fa1b604482015260640161174f565b6000806123468789600001518a6020015161328d565b91509150600061236287876000015188606001518887876135ac565b905060008660200151516001600160401b0381111561238357612383614366565b6040519080825280602002602001820160405280156123ac578160200160208202803683370190505b50905060005b815181101561241957876020015181815181106123d1576123d16152e6565b6020026020010151602001518282815181106123ef576123ef6152e6565b6001600160a01b03909216602092830291909101909101528061241181615485565b9150506123b2565b5086516040517fc014be9dd9744cb77b4420620a6e0c5bb840225d53a7b1d924b7e57f9af6dfa3916124519133919085908790615c3b565b60405180910390a15098975050505050505050565b600080546001600160a01b038381166001600160a01b0319831681178455604051919092169283917f8be0079c531659141344cd1fd0a4f28419497f9722a3daafe3b4186f6b6457e09190a35050565b60608060005b845181101561255d5760006001600160a01b03168682815181106124e2576124e26152e6565b60200260200101516001600160a01b0316031561254b5761254b3330878481518110612510576125106152e6565b602002602001015189858151811061252a5761252a6152e6565b60200260200101516001600160a01b03166137b8909392919063ffffffff16565b8061255581615485565b9150506124bc565b5060005b83518110156126195783818151811061257c5761257c6152e6565b6020026020010151602001516001600160a01b03166323b872dd33308785815181106125aa576125aa6152e6565b6020026020010151604001516040518463ffffffff1660e01b81526004016125d493929190615c71565b600060405180830381600087803b1580156125ee57600080fd5b505af1158015612602573d6000803e3d6000fd5b50505050808061261190615485565b915050612561565b5061262585858561218c565b91509150935093915050565b6000805b83518110156126e657826001600160a01b031684828151811061265a5761265a6152e6565b6020026020010151602001516001600160a01b03161480156126c55750826001600160a01b0316848281518110612693576126936152e6565b6020026020010151606001516000815181106126b1576126b16152e6565b60200260200101516001600160a01b031614155b156126d4576000915050610754565b806126de81615485565b915050612635565b5060019392505050565b60606000835160016127029190615472565b6001600160401b0381111561271957612719614366565b604051908082528060200260200182016040528015612742578160200160208202803683370190505b50905060005b84518110156127a757848181518110612763576127636152e6565b602002602001015182828151811061277d5761277d6152e6565b6001600160a01b03909216602092830291909101909101528061279f81615485565b915050612748565b5082818551815181106127bc576127bc6152e6565b6001600160a01b0390921660209283029190910190910152905092915050565b60606000835160016127ee9190615472565b6001600160401b0381111561280557612805614366565b60405190808252806020026020018201604052801561282e578160200160208202803683370190505b50905060005b84518110156128865784818151811061284f5761284f6152e6565b6020026020010151828281518110612869576128696152e6565b60209081029190910101528061287e81615485565b915050612834565b50828185518151811061289b5761289b6152e6565b60209081029190910101529392505050565b6000825b845181101561296b5760006128ec848784815181106128d2576128d26152e6565b602002602001015160600151611f9a90919063ffffffff16565b9050858281518110612900576129006152e6565b60200260200101516060015151811461295857858281518110612925576129256152e6565b6020026020010151608001518181518110612942576129426152e6565b6020026020010151836129559190615472565b92505b508061296381615485565b9150506128b1565b509392505050565b6000805b83811161296b57826001600160a01b031685828151811061299a5761299a6152e6565b6020026020010151602001516001600160a01b0316036129e4578481815181106129c6576129c66152e6565b602002602001015160400151826129dd9190615472565b9150612a6a565b60006129fc848784815181106128d2576128d26152e6565b9050858281518110612a1057612a106152e6565b602002602001015160600151518114612a6857858281518110612a3557612a356152e6565b6020026020010151608001518181518110612a5257612a526152e6565b602002602001015183612a659190615bf9565b92505b505b80612a7481615485565b915050612977565b606061115a8383604051806060016040528060278152602001615dbb602791396137d3565b6060600082518451612ab39190615472565b6001600160401b03811115612aca57612aca614366565b604051908082528060200260200182016040528015612af3578160200160208202803683370190505b50905060005b8451811015612b5857848181518110612b1457612b146152e6565b6020026020010151828281518110612b2e57612b2e6152e6565b6001600160a01b039092166020928302919091019091015280612b5081615485565b915050612af9565b5060005b835181101561296b57838181518110612b7757612b776152e6565b602002602001015182865183612b8d9190615472565b81518110612b9d57612b9d6152e6565b6001600160a01b039092166020928302919091019091015280612bbf81615485565b915050612b5c565b6060600082518451612bd99190615472565b6001600160401b03811115612bf057612bf0614366565b604051908082528060200260200182016040528015612c19578160200160208202803683370190505b50905060005b8451811015612c7157848181518110612c3a57612c3a6152e6565b6020026020010151828281518110612c5457612c546152e6565b602090810291909101015280612c6981615485565b915050612c1f565b5060005b835181101561296b57838181518110612c9057612c906152e6565b602002602001015182865183612ca69190615472565b81518110612cb657612cb66152e6565b602090810291909101015280612ccb81615485565b915050612c75565b6060806001848460005b875181101561302357612d08888281518110612cfb57612cfb6152e6565b60200260200101516115f9565b6130115760009350600080612d4f8a8481518110612d2857612d286152e6565b60200260200101518a8581518110612d4257612d426152e6565b60200260200101516138a6565b9150915081600081518110612d6657612d666152e6565b6020026020010151858481518110612d8057612d806152e6565b60200260200101906001600160a01b031690816001600160a01b03168152505080600081518110612db357612db36152e6565b6020026020010151848481518110612dcd57612dcd6152e6565b6020026020010181815250506000600183518751612deb9190615472565b612df59190615bf9565b6001600160401b03811115612e0c57612e0c614366565b604051908082528060200260200182016040528015612e35578160200160208202803683370190505b5090506000600183518751612e4a9190615472565b612e549190615bf9565b6001600160401b03811115612e6b57612e6b614366565b604051908082528060200260200182016040528015612e94578160200160208202803683370190505b50905060005b8751811015612f3857878181518110612eb557612eb56152e6565b6020026020010151838281518110612ecf57612ecf6152e6565b60200260200101906001600160a01b031690816001600160a01b031681525050868181518110612f0157612f016152e6565b6020026020010151828281518110612f1b57612f1b6152e6565b602090810291909101015280612f3081615485565b915050612e9a565b60005b60018651612f499190615bf9565b8110156130075785612f5c826001615472565b81518110612f6c57612f6c6152e6565b6020026020010151848284612f819190615472565b81518110612f9157612f916152e6565b6001600160a01b039092166020928302919091019091015284612fb5826001615472565b81518110612fc557612fc56152e6565b6020026020010151838284612fda9190615472565b81518110612fea57612fea6152e6565b602090810291909101015280612fff81615485565b915050612f3b565b5091965094505050505b8061301b81615485565b915050612cdd565b50821561303857868694509450505050610d6d565b6130428282612cd3565b94509450505050610d6d565b6001546040516370a0823160e01b815260609182916000916001600160a01b0316906370a0823190613084903090600401614352565b602060405180830381865afa1580156130a1573d6000803e3d6000fd5b505050506040513d601f19601f820116820180604052508101906130c59190615420565b9050341561313757600160009054906101000a90046001600160a01b03166001600160a01b031663d0e30db0346040518263ffffffff1660e01b81526004016000604051808303818588803b15801561311d57600080fd5b505af1158015613131573d6000803e3d6000fd5b50505050505b47156131a757600160009054906101000a90046001600160a01b03166001600160a01b031663d0e30db0476040518263ffffffff1660e01b81526004016000604051808303818588803b15801561318d57600080fd5b505af11580156131a1573d6000803e3d6000fd5b50505050505b6001546040516370a0823160e01b815260009183916001600160a01b03909116906370a08231906131dc903090600401614352565b602060405180830381865afa1580156131f9573d6000803e3d6000fd5b505050506040513d601f19601f8201168201806040525081019061321d9190615420565b6132279190615bf9565b90508015613255576001546132469087906001600160a01b03166126f0565b955061325285826127dc565b94505b60006132618782611f9a565b905086518114613282576132758782611ffb565b5061328086826120ce565b505b509495939450505050565b60608084516001600160401b038111156132a9576132a9614366565b6040519080825280602002602001820160405280156132d2578160200160208202803683370190505b50915084516001600160401b038111156132ee576132ee614366565b604051908082528060200260200182016040528015613317578160200160208202803683370190505b50905060005b8551811015613595576000670de0b6b3a764000085613362898581518110613347576133476152e6565b602002602001015160a0015189611f9a90919063ffffffff16565b81518110613372576133726152e6565b602002602001015188848151811061338c5761338c6152e6565b6020026020010151600001516133a29190615439565b6133ac9190615450565b905060005b8783815181106133c3576133c36152e6565b602002602001015160c00151518110156135135760006134e763a40103d460e01b848b87815181106133f7576133f76152e6565b602002602001015161010001518581518110613415576134156152e6565b60200260200101518c888151811061342f5761342f6152e6565b602002602001015160c00151868151811061344c5761344c6152e6565b602002602001015160405160240161346693929190615c95565b604051602081830303815290604052906001600160e01b0319166020820180516001600160e01b0383818316178352505050508a86815181106134ab576134ab6152e6565b602002602001015160c0015184815181106134c8576134c86152e6565b60200260200101516001600160a01b0316612a7c90919063ffffffff16565b9050808060200190518101906134fd9190615420565b925050808061350b90615485565b9150506133b1565b50868281518110613526576135266152e6565b602002602001015160e00151848381518110613544576135446152e6565b60200260200101906001600160a01b031690816001600160a01b03168152505080838381518110613577576135776152e6565b6020908102919091010152508061358d81615485565b91505061331d565b506135a0828261199d565b90969095509350505050565b606086516001600160401b038111156135c7576135c7614366565b6040519080825280602002602001820160405280156135f0578160200160208202803683370190505b5090506000805b88518110156137ac5760006001600160a01b031689828151811061361d5761361d6152e6565b602002602001015160000151602001516001600160a01b0316146136955760006136628a8381518110613652576136526152e6565b60200260200101518888886138ee565b905080848481518110613677576136776152e6565b602090810291909101015261368d600184615472565b92505061379a565b60006136bc8a83815181106136ac576136ac6152e6565b6020026020010151888888613b50565b90506136ee8a83815181106136d3576136d36152e6565b6020026020010151602001518a613e0f90919063ffffffff16565b80156137195750898281518110613707576137076152e6565b60200260200101516060015151600014155b156137985780848481518110613731576137316152e6565b60200260200101818152505087838151811061374f5761374f6152e6565b602002602001015181101561378a5760405162461bcd60e51b81526020600482015260016024820152603360f81b604482015260640161174f565b613795600184615472565b92505b505b806137a481615485565b9150506135f7565b50509695505050505050565b6137cd6001600160a01b038516848484613e74565b50505050565b60606001600160a01b0384163b61383b5760405162461bcd60e51b815260206004820152602660248201527f416464726573733a2064656c65676174652063616c6c20746f206e6f6e2d636f6044820152651b9d1c9858dd60d21b606482015260840161174f565b600080856001600160a01b0316856040516138569190615cc6565b600060405180830381855af49150503d8060008114613891576040519150601f19603f3d011682016040523d82523d6000602084013e613896565b606091505b5091509150611362828286613ecc565b60608060006138b4856109e7565b905060006138d863b8ce670d60e01b87878560405160240161220e93929190615ce2565b90508080602001905181019061157e9190615878565b83516020810151600091908290613904906109e7565b90506001600160a01b03811661392c5760405162461bcd60e51b815260040161174f90615c0c565b60008760600151516001600160401b0381111561394b5761394b614366565b604051908082528060200260200182016040528015613974578160200160208202803683370190505b50905060005b886060015151811015613a7b5760006139b98a6060015183815181106139a2576139a26152e6565b602002602001015189611f9a90919063ffffffff16565b905060008782815181106139cf576139cf6152e6565b602002602001015190506000670de0b6b3a76400008c6080015185815181106139fa576139fa6152e6565b602002602001015183613a0d9190615439565b613a179190615450565b905080898481518110613a2c57613a2c6152e6565b60200260200101818151613a409190615bf9565b90525084518190869086908110613a5957613a596152e6565b6020026020010181815250505050508080613a7390615485565b91505061397a565b506000613ae6631de2625c60e01b858b60600151858c604051602401613aa49493929190615d05565b60408051601f198184030181529190526020810180516001600160e01b03166001600160e01b0319909316929092179091526001600160a01b03851690612a7c565b9050600081806020019051810190613afe9190615420565b602086015186516040519293507f89a2c92e65780856b461f06435fffd0fb445240ba3cfee7e8f18e01dca40c07392613b3992918591615ce2565b60405180910390a19450505050505b949350505050565b600084602001516001600160a01b03168560600151600081518110613b7757613b776152e6565b60200260200101516001600160a01b0316148015613b9a57508460600151516001145b15613ca3576000613bd28660600151600081518110613bbb57613bbb6152e6565b602002602001015185611f9a90919063ffffffff16565b90506000838281518110613be857613be86152e6565b602002602001015190506000670de0b6b3a76400008860800151600081518110613c1457613c146152e6565b602002602001015183613c279190615439565b613c319190615450565b9050613c6f87828a60600151600081518110613c4f57613c4f6152e6565b60200260200101516001600160a01b0316613f059092919063ffffffff16565b80858481518110613c8257613c826152e6565b60200260200101818151613c969190615bf9565b9052509250613b48915050565b60008560600151516001600160401b03811115613cc257613cc2614366565b604051908082528060200260200182016040528015613ceb578160200160208202803683370190505b50905060005b866060015151811015613df2576000613d3088606001518381518110613d1957613d196152e6565b602002602001015187611f9a90919063ffffffff16565b90506000858281518110613d4657613d466152e6565b602002602001015190506000670de0b6b3a76400008a608001518581518110613d7157613d716152e6565b602002602001015183613d849190615439565b613d8e9190615450565b905080878481518110613da357613da36152e6565b60200260200101818151613db79190615bf9565b90525084518190869086908110613dd057613dd06152e6565b6020026020010181815250505050508080613dea90615485565b915050613cf1565b50613e07866020015187606001518388613f19565b915050613b48565b6000805b8351811015613e6a57826001600160a01b0316848281518110613e3857613e386152e6565b60200260200101516001600160a01b031603613e58576001915050610754565b80613e6281615485565b915050613e13565b5060009392505050565b6137cd846323b872dd60e01b858585604051602401613e9593929190615c71565b60408051601f198184030181529190526020810180516001600160e01b03166001600160e01b0319909316929092179091526140ae565b60608315613edb57508161115a565b825115613eeb5782518084602001fd5b8160405162461bcd60e51b815260040161174f9190615d58565b610c216001600160a01b0384168383614180565b600083600081518110613f2e57613f2e6152e6565b60200260200101516001600160a01b0316856001600160a01b031603613f705782600081518110613f6157613f616152e6565b60200260200101519050613b48565b6001600160a01b0385166140655760015483516001600160a01b0390911690632e1a7d4d908590600090613fa657613fa66152e6565b60200260200101516040518263ffffffff1660e01b8152600401613fcc91815260200190565b600060405180830381600087803b158015613fe657600080fd5b505af1158015613ffa573d6000803e3d6000fd5b50505050816001600160a01b03166108fc8460008151811061401e5761401e6152e6565b60200260200101519081150290604051600060405180830381858888f19350505050158015614051573d6000803e3d6000fd5b5082600081518110613f6157613f616152e6565b6000614070866109e7565b9050600061409863d65bd61660e01b888888888760405160240161220e959493929190615d6b565b9050808060200190518101906110339190615420565b6000614103826040518060400160405280602081526020017f5361666545524332303a206c6f772d6c6576656c2063616c6c206661696c6564815250856001600160a01b03166141b09092919063ffffffff16565b805190915015610c215780806020019051810190614121919061549e565b610c215760405162461bcd60e51b815260206004820152602a60248201527f5361666545524332303a204552433230206f7065726174696f6e20646964206e6044820152691bdd081cdd58d8d9595960b21b606482015260840161174f565b6040516001600160a01b038316602482015260448101829052610c2190849063a9059cbb60e01b90606401613e95565b6060613b488484600085856001600160a01b0385163b6142125760405162461bcd60e51b815260206004820152601d60248201527f416464726573733a2063616c6c20746f206e6f6e2d636f6e7472616374000000604482015260640161174f565b600080866001600160a01b0316858760405161422e9190615cc6565b60006040518083038185875af1925050503d806000811461426b576040519150601f19603f3d011682016040523d82523d6000602084013e614270565b606091505b5091509150611033828286613ecc565b6040518060a0016040528060006001600160a01b0316815260200160006001600160a01b031681526020016000815260200160008152602001606081525090565b828054828255906000526020600020908101928215614314579160200282015b828111156143145781546001600160a01b0319166001600160a01b038435161782556020909201916001909101906142e1565b50614320929150614324565b5090565b5b808211156143205760008155600101614325565b60006020828403121561434b57600080fd5b5035919050565b6001600160a01b0391909116815260200190565b634e487b7160e01b600052604160045260246000fd5b60405160a081016001600160401b038111828210171561439e5761439e614366565b60405290565b604051608081016001600160401b038111828210171561439e5761439e614366565b60405161012081016001600160401b038111828210171561439e5761439e614366565b604051601f8201601f191681016001600160401b038111828210171561441157614411614366565b604052919050565b6001600160a01b038116811461176157600080fd5b803561443981614419565b919050565b60006001600160401b0382111561445757614457614366565b50601f01601f191660200190565b600060a0828403121561447757600080fd5b61447f61437c565b9050813561448c81614419565b815260208281013561449d81614419565b808284015250604083013560408301526060830135606083015260808301356001600160401b038111156144d057600080fd5b8301601f810185136144e157600080fd5b80356144f46144ef8261443e565b6143e9565b818152868483850101111561450857600080fd5b818484018583013760009181019093015250608082015292915050565b6000806040838503121561453857600080fd5b82356001600160401b0381111561454e57600080fd5b61455a85828601614465565b925050602083013561456b81614419565b809150509250929050565b600081518084526020808501945080840160005b838110156145af5781516001600160a01b03168752958201959082019060010161458a565b509495945050505050565b60208152600061115a6020830184614576565b60006001600160401b038211156145e6576145e6614366565b5060051b60200190565b600082601f83011261460157600080fd5b813560206146116144ef836145cd565b82815260059290921b8401810191818101908684111561463057600080fd5b8286015b8481101561465457803561464781614419565b8352918301918301614634565b509695505050505050565b600082601f83011261467057600080fd5b813560206146806144ef836145cd565b82815260059290921b8401810191818101908684111561469f57600080fd5b8286015b8481101561465457803583529183019183016146a3565b600080604083850312156146cd57600080fd5b82356001600160401b03808211156146e457600080fd5b6146f0868387016145f0565b9350602085013591508082111561470657600080fd5b506147138582860161465f565b9150509250929050565b600081518084526020808501945080840160005b838110156145af57815187529582019590820190600101614731565b604081526000614760604083018561471d565b90508260208301529392505050565b60006020828403121561478157600080fd5b813561115a81614419565b6000806020838503121561479f57600080fd5b82356001600160401b03808211156147b657600080fd5b818501915085601f8301126147ca57600080fd5b8135818111156147d957600080fd5b8660208260051b85010111156147ee57600080fd5b60209290920196919550909350505050565b600082601f83011261481157600080fd5b813560206148216144ef836145cd565b82815260059290921b8401810191818101908684111561484057600080fd5b8286015b848110156146545780356001600160401b038111156148635760008081fd5b6148718986838b0101614465565b845250918301918301614844565b60006060828403121561489157600080fd5b604051606081016001600160401b0382821081831117156148b4576148b4614366565b8160405282935084359150808211156148cc57600080fd5b6148d8868387016145f0565b835260208501359150808211156148ee57600080fd5b6148fa8683870161465f565b6020840152604085013591508082111561491357600080fd5b5061492085828601614800565b6040830152505092915050565b60006080828403121561493f57600080fd5b6149476143a4565b905081356001600160401b038082111561496057600080fd5b61496c858386016145f0565b8352602084013591508082111561498257600080fd5b61498e85838601614800565b602084015260408401359150808211156149a757600080fd5b6149b38583860161465f565b604084015260608401359150808211156149cc57600080fd5b506149d98482850161465f565b60608301525092915050565b600080604083850312156149f857600080fd5b82356001600160401b0380821115614a0f57600080fd5b614a1b8683870161487f565b93506020850135915080821115614a3157600080fd5b506147138582860161492d565b6000815180845260208085019450848260051b860182860160005b85811015614a83578383038952614a71838351614576565b98850198925090840190600101614a59565b5090979650505050505050565b6000815180845260208085019450848260051b860182860160005b85811015614a83578383038952815180518452858101518685015260408082015190850152606080820151908501526080808201519085015260a0808201516001600160a01b03169085015260c0808201516101208287018190529190614b1483880182614576565b9250505060e080830151614b32828801826001600160a01b03169052565b50506101008083015192508582038187015250614b4f8183614a3e565b9a87019a9450505090840190600101614aab565b60005b83811015614b7e578181015183820152602001614b66565b50506000910152565b60008151808452614b9f816020860160208601614b63565b601f01601f19169290920160200192915050565b600060018060a01b03808351168452806020840151166020850152506040820151604084015260608201516060840152608082015160a0608085015261075060a0850182614b87565b600082825180855260208086019550808260051b84010181860160005b84811015614a8357601f19868403018952815160a08151818652614c3f82870182614bb3565b838801516001600160a01b03168789015260408085015190880152606080850151888303828a01529193509150614c768382614576565b9250505060808083015192508582038187015250614c94818361471d565b9a86019a9450505090830190600101614c19565b604081526000614cbb6040830185614a90565b8281036020840152614ccd8185614bfc565b95945050505050565b60c081526000614ce960c0830189614576565b8281036020840152614cfb818961471d565b90508281036040840152614d0f818861471d565b90508281036060840152614d238187614bfc565b90508281036080840152614d378186614576565b905082810360a0840152614d4b818561471d565b9998505050505050505050565b600082601f830112614d6957600080fd5b81356020614d796144ef836145cd565b82815260059290921b84018101918181019086841115614d9857600080fd5b8286015b848110156146545780356001600160401b03811115614dbb5760008081fd5b614dc98986838b01016145f0565b845250918301918301614d9c565b600082601f830112614de857600080fd5b81356020614df86144ef836145cd565b82815260059290921b84018101918181019086841115614e1757600080fd5b8286015b848110156146545780356001600160401b0380821115614e3b5760008081fd5b90880190610120828b03601f1901811315614e565760008081fd5b614e5e6143c6565b87840135815260408085013589830152606080860135828401526080915081860135818401525060a0808601358284015260c09150614e9e82870161442e565b9083015260e08581013585811115614eb65760008081fd5b614ec48f8c838a01016145f0565b83850152506101009150614ed982870161442e565b90830152918401359183831115614ef05760008081fd5b614efe8d8a85880101614d58565b908201528652505050918301918301614e1b565b600082601f830112614f2357600080fd5b81356020614f336144ef836145cd565b82815260059290921b84018101918181019086841115614f5257600080fd5b8286015b848110156146545780356001600160401b0380821115614f765760008081fd5b9088019060a0828b03601f1901811315614f905760008081fd5b614f9861437c565b8784013583811115614faa5760008081fd5b614fb88d8a83880101614465565b8252506040614fc881860161442e565b8983015260608086013582840152608091508186013585811115614fec5760008081fd5b614ffa8f8c838a01016145f0565b828501525050828501359250838311156150145760008081fd5b6150228d8a8588010161465f565b908201528652505050918301918301614f56565b600080600080600060a0868803121561504e57600080fd5b85356001600160401b038082111561506557600080fd5b61507189838a0161487f565b9650602088013591508082111561508757600080fd5b61509389838a01614dd7565b955060408801359150808211156150a957600080fd5b6150b589838a01614f12565b945060608801359150808211156150cb57600080fd5b506150d88882890161492d565b92505060808601356150e981614419565b809150509295509295909350565b60208152600061115a602083018461471d565b60008060006060848603121561511f57600080fd5b833561512a81614419565b925060208401359150604084013561514181614419565b809150509250925092565b6000806040838503121561515f57600080fd5b82356001600160401b0381111561517557600080fd5b61455a8582860161487f565b60006020828403121561519357600080fd5b81356001600160401b038111156151a957600080fd5b6107508482850161487f565b6040815260006151c86040830185614576565b8281036020840152614ccd818561471d565b600080600080608085870312156151f057600080fd5b84356001600160401b038082111561520757600080fd5b6152138883890161487f565b9550602087013591508082111561522957600080fd5b6152358883890161492d565b9450604087013591508082111561524b57600080fd5b61525788838901614dd7565b9350606087013591508082111561526d57600080fd5b5061527a87828801614f12565b91505092959194509250565b6040815260006151c8604083018561471d565b6080815260006152ac608083018761471d565b82810360208401526152be8187614a90565b905082810360408401526152d28186614bfc565b90508281036060840152611033818561471d565b634e487b7160e01b600052603260045260246000fd5b60006020828403121561530e57600080fd5b815160ff8116811461115a57600080fd5b634e487b7160e01b600052601160045260246000fd5b600181815b808511156109df5781600019048211156153565761535661531f565b8085161561536357918102915b93841c939080029061533a565b60008261537f57506001610754565b8161538c57506000610754565b81600181146153a257600281146153ac576153c8565b6001915050610754565b60ff8411156153bd576153bd61531f565b50506001821b610754565b5060208310610133831016604e8410600b84101617156153eb575081810a610754565b6153f58383615335565b80600019048211156154095761540961531f565b029392505050565b600061115a60ff841683615370565b60006020828403121561543257600080fd5b5051919050565b80820281158282048414176107545761075461531f565b60008261546d57634e487b7160e01b600052601260045260246000fd5b500490565b808201808211156107545761075461531f565b6000600182016154975761549761531f565b5060010190565b6000602082840312156154b057600080fd5b8151801515811461115a57600080fd5b60a0815260006154d360a0830188614576565b82810360208401526154e5818861471d565b905082810360408401526154f9818761471d565b9050828103606084015261550d8186614576565b90508281036080840152615521818561471d565b98975050505050505050565b805161443981614419565b600082601f83011261554957600080fd5b815160206155596144ef836145cd565b82815260059290921b8401810191818101908684111561557857600080fd5b8286015b8481101561465457805161558f81614419565b835291830191830161557c565b600082601f8301126155ad57600080fd5b815160206155bd6144ef836145cd565b82815260059290921b840181019181810190868411156155dc57600080fd5b8286015b848110156146545780516001600160401b038111156155ff5760008081fd5b61560d8986838b0101615538565b8452509183019183016155e0565b6000602080838503121561562e57600080fd5b82516001600160401b038082111561564557600080fd5b818501915085601f83011261565957600080fd5b81516156676144ef826145cd565b81815260059190911b8301840190848101908883111561568657600080fd5b8585015b83811015615770578051858111156156a157600080fd5b8601610120818c03601f19018113156156b957600080fd5b6156c16143c6565b89830151815260408301518a820152606083015160408201526080830151606082015260a083015160808201526156fa60c0840161552d565b60a082015260e080840151898111156157135760008081fd5b6157218f8d83880101615538565b60c08401525061010061573581860161552d565b8383015292840151928984111561574e57600091508182fd5b61575c8f8d8688010161559c565b90830152508552505091860191860161568a565b5098975050505050505050565b6000815180845260208085019450848260051b860182860160005b85811015614a835783830389526157b0838351614bb3565b98850198925090840190600101615798565b60008151606084526157d76060850182614576565b9050602083015184820360208601526157f0828261471d565b91505060408301518482036040860152614ccd828261577d565b60208152600061115a60208301846157c2565b600082601f83011261582e57600080fd5b8151602061583e6144ef836145cd565b82815260059290921b8401810191818101908684111561585d57600080fd5b8286015b848110156146545780518352918301918301615861565b6000806040838503121561588b57600080fd5b82516001600160401b03808211156158a257600080fd5b6158ae86838701615538565b935060208501519150808211156158c457600080fd5b506147138582860161581d565b6080815260006158e46080830187614576565b82810360208401526158f6818761577d565b9050828103604084015261590a818661471d565b91505082606083015295945050505050565b600060a0828403121561592e57600080fd5b61593661437c565b9050815161594381614419565b8152602082015161595381614419565b80602083015250604082015160408201526060820151606082015260808201516001600160401b0381111561598757600080fd5b8201601f8101841361599857600080fd5b80516159a66144ef8261443e565b8181528560208385010111156159bb57600080fd5b6159cc826020830160208601614b63565b608084015250909392505050565b600060208083850312156159ed57600080fd5b82516001600160401b0380821115615a0457600080fd5b818501915085601f830112615a1857600080fd5b8151615a266144ef826145cd565b81815260059190911b83018401908481019088831115615a4557600080fd5b8585015b8381101561577057805185811115615a6057600080fd5b860160a0818c03601f19011215615a775760008081fd5b615a7f61437c565b8882015187811115615a915760008081fd5b615a9f8d8b8386010161591c565b8252506040615aaf81840161552d565b8a83015260608084015182840152608091508184015189811115615ad35760008081fd5b615ae18f8d83880101615538565b82850152505060a083015188811115615afa5760008081fd5b615b088e8c8387010161581d565b9183019190915250845250918601918601615a49565b608081526000615b3160808301876157c2565b8281036020840152855160808252615b4c6080830182614576565b905060208701518282036020840152615b65828261577d565b91505060408701518282036040840152615b7f828261471d565b91505060608701518282036060840152615b99828261471d565b925050508281036040840152615baf8186614a90565b905082810360608401526110338185614bfc565b60008060408385031215615bd657600080fd5b82516001600160401b0380821115615bed57600080fd5b6158ae8683870161581d565b818103818111156107545761075461531f565b602080825260029082015261155560f21b604082015260600190565b60208152600061115a6020830184614bb3565b6001600160a01b0385168152608060208201819052600090615c5f90830186614576565b82810360408401526152d28186614576565b6001600160a01b039384168152919092166020820152604081019190915260600190565b838152606060208201526000615cae6060830185614576565b905060018060a01b0383166040830152949350505050565b60008251615cd8818460208701614b63565b9190910192915050565b6001600160a01b0393841681526020810192909252909116604082015260600190565b608081526000615d186080830187614bb3565b8281036020840152615d2a8187614576565b90508281036040840152615d3e818661471d565b91505060018060a01b038316606083015295945050505050565b60208152600061115a6020830184614b87565b600060018060a01b03808816835260a06020840152615d8d60a0840188614576565b8381036040850152615d9f818861471d565b9582166060850152509290921660809091015250939250505056fe416464726573733a206c6f772d6c6576656c2064656c65676174652063616c6c206661696c6564a26469706673582212209b6274863580b6967a01f813889d4a631ca80d9ca70d5d44b5749831a2480fae64736f6c63430008110033608060405234801561001057600080fd5b50600080546001600160a01b031916331790556115dd806100326000396000f3fe608060405234801561001057600080fd5b50600436106100365760003560e01c8063307adfb41461003b57806360f96a8f14610065575b600080fd5b61004e61004936600461117d565b610085565b60405161005c92919061128d565b60405180910390f35b600054610078906001600160a01b031681565b60405161005c9190611311565b60608060008060009054906101000a90046001600160a01b03166001600160a01b03166345725af06040518163ffffffff1660e01b8152600401600060405180830381865afa1580156100dc573d6000803e3d6000fd5b505050506040513d6000823e601f3d908101601f191682016040526101049190810190611389565b905060008060009054906101000a90046001600160a01b03166001600160a01b03166311ef73c56040518163ffffffff1660e01b8152600401600060405180830381865afa15801561015a573d6000803e3d6000fd5b505050506040513d6000823e601f3d908101601f191682016040526101829190810190611389565b905060008060009054906101000a90046001600160a01b03166001600160a01b0316633ccced4a6040518163ffffffff1660e01b8152600401600060405180830381865afa1580156101d8573d6000803e3d6000fd5b505050506040513d6000823e601f3d908101601f191682016040526102009190810190611389565b905061021786600001518760200151848487610266565b8095508196505050600080610230886040015184610615565b909250905061023f87836107cb565b965061024b86826108fb565b95506102578787610a07565b90999098509650505050505050565b60608060008060009054906101000a90046001600160a01b03166001600160a01b0316636ca95a4e6040518163ffffffff1660e01b8152600401602060405180830381865afa1580156102bd573d6000803e3d6000fd5b505050506040513d601f19601f820116820180604052508101906102e191906113c5565b905060005b88518110156106095760005489516001600160a01b039091169063e7c87f19908b9084908110610318576103186113e9565b60200260200101516040518263ffffffff1660e01b815260040161033c9190611311565b602060405180830381865afa158015610359573d6000803e3d6000fd5b505050506040513d601f19601f8201168201806040525081019061037d91906113ff565b156104285760006001600160a01b031689828151811061039f5761039f6113e9565b60200260200101516001600160a01b0316146103e8576103e18982815181106103ca576103ca6113e9565b602002602001015185610d3790919063ffffffff16565b93506103f5565b6103f28483610d37565b93505b61042188828151811061040a5761040a6113e9565b602002602001015184610e2390919063ffffffff16565b92506105f7565b60005b87518110156105f557878181518110610446576104466113e9565b60200260200101516001600160a01b031663b54c04ec8b848151811061046e5761046e6113e9565b60200260200101516040518263ffffffff1660e01b81526004016104929190611311565b602060405180830381865afa1580156104af573d6000803e3d6000fd5b505050506040513d601f19601f820116820180604052508101906104d391906113ff565b156105e3576000808983815181106104ed576104ed6113e9565b60200260200101516001600160a01b0316636331f17f8d8681518110610515576105156113e9565b60200260200101518d878151811061052f5761052f6113e9565b60200260200101516040518363ffffffff1660e01b81526004016105689291906001600160a01b03929092168252602082015260400190565b600060405180830381865afa158015610585573d6000803e3d6000fd5b505050506040513d6000823e601f3d908101601f191682016040526105ad9190810190611421565b915091506000806105c184848e8e8e610266565b90925090506105d089836107cb565b98506105dc88826108fb565b9750505050505b806105ed816114f1565b91505061042b565b505b80610601816114f1565b9150506102e6565b50509550959350505050565b60608060005b84518110156107c35760005b84518110156107b057848181518110610642576106426113e9565b60200260200101516001600160a01b031663b54c04ec87848151811061066a5761066a6113e9565b6020026020010151602001516040518263ffffffff1660e01b81526004016106929190611311565b602060405180830381865afa1580156106af573d6000803e3d6000fd5b505050506040513d601f19601f820116820180604052508101906106d391906113ff565b1561079e576000808683815181106106ed576106ed6113e9565b60200260200101516001600160a01b031663ec7c6dee898681518110610715576107156113e9565b60200260200101516040518263ffffffff1660e01b8152600401610739919061150a565b600060405180830381865afa158015610756573d6000803e3d6000fd5b505050506040513d6000823e601f3d908101601f1916820160405261077e9190810190611421565b909250905061078d86836107cb565b955061079985826108fb565b945050505b806107a8816114f1565b915050610627565b50806107bb816114f1565b91505061061b565b509250929050565b60606000825184516107dd9190611594565b6001600160401b038111156107f4576107f4610ef4565b60405190808252806020026020018201604052801561081d578160200160208202803683370190505b50905060005b84518110156108825784818151811061083e5761083e6113e9565b6020026020010151828281518110610858576108586113e9565b6001600160a01b03909216602092830291909101909101528061087a816114f1565b915050610823565b5060005b83518110156108f1578381815181106108a1576108a16113e9565b6020026020010151828651836108b79190611594565b815181106108c7576108c76113e9565b6001600160a01b0390921660209283029190910190910152806108e9816114f1565b915050610886565b5090505b92915050565b606060008251845161090d9190611594565b6001600160401b0381111561092457610924610ef4565b60405190808252806020026020018201604052801561094d578160200160208202803683370190505b50905060005b84518110156109a55784818151811061096e5761096e6113e9565b6020026020010151828281518110610988576109886113e9565b60209081029190910101528061099d816114f1565b915050610953565b5060005b83518110156108f1578381815181106109c4576109c46113e9565b6020026020010151828651836109da9190611594565b815181106109ea576109ea6113e9565b6020908102919091010152806109ff816114f1565b9150506109a9565b606080600084516001600160401b03811115610a2557610a25610ef4565b604051908082528060200260200182016040528015610a4e578160200160208202803683370190505b50905060005b8551811015610b8157805b8651811015610b6e578181118015610aba5750868181518110610a8457610a846113e9565b60200260200101516001600160a01b0316878381518110610aa757610aa76113e9565b60200260200101516001600160a01b0316145b15610b5c57858181518110610ad157610ad16113e9565b6020026020010151868381518110610aeb57610aeb6113e9565b6020026020010151610afd9190611594565b868381518110610b0f57610b0f6113e9565b6020026020010181815250506000868281518110610b2f57610b2f6113e9565b6020026020010181815250506001838281518110610b4f57610b4f6113e9565b6020026020010181815250505b80610b66816114f1565b915050610a5f565b5080610b79816114f1565b915050610a54565b506000805b8651811015610bd1576000868281518110610ba357610ba36113e9565b60200260200101511115610bbf57610bbc600183611594565b91505b80610bc9816114f1565b915050610b86565b50806001600160401b03811115610bea57610bea610ef4565b604051908082528060200260200182016040528015610c13578160200160208202803683370190505b509350806001600160401b03811115610c2e57610c2e610ef4565b604051908082528060200260200182016040528015610c57578160200160208202803683370190505b5092506000805b8751811015610d2c576000878281518110610c7b57610c7b6113e9565b60200260200101511115610d1a57878181518110610c9b57610c9b6113e9565b6020026020010151868381518110610cb557610cb56113e9565b60200260200101906001600160a01b031690816001600160a01b031681525050868181518110610ce757610ce76113e9565b6020026020010151858381518110610d0157610d016113e9565b6020908102919091010152610d17600183611594565b91505b80610d24816114f1565b915050610c5e565b505050509250929050565b6060600083516001610d499190611594565b6001600160401b03811115610d6057610d60610ef4565b604051908082528060200260200182016040528015610d89578160200160208202803683370190505b50905060005b8451811015610dee57848181518110610daa57610daa6113e9565b6020026020010151828281518110610dc457610dc46113e9565b6001600160a01b039092166020928302919091019091015280610de6816114f1565b915050610d8f565b508281855181518110610e0357610e036113e9565b6001600160a01b0390921660209283029190910190910152905092915050565b6060600083516001610e359190611594565b6001600160401b03811115610e4c57610e4c610ef4565b604051908082528060200260200182016040528015610e75578160200160208202803683370190505b50905060005b8451811015610ecd57848181518110610e9657610e966113e9565b6020026020010151828281518110610eb057610eb06113e9565b602090810291909101015280610ec5816114f1565b915050610e7b565b508281855181518110610ee257610ee26113e9565b60209081029190910101529392505050565b634e487b7160e01b600052604160045260246000fd5b60405160a081016001600160401b0381118282101715610f2c57610f2c610ef4565b60405290565b604051606081016001600160401b0381118282101715610f2c57610f2c610ef4565b604051601f8201601f191681016001600160401b0381118282101715610f7c57610f7c610ef4565b604052919050565b60006001600160401b03821115610f9d57610f9d610ef4565b5060051b60200190565b6001600160a01b0381168114610fbc57600080fd5b50565b600082601f830112610fd057600080fd5b81356020610fe5610fe083610f84565b610f54565b82815260059290921b8401810191818101908684111561100457600080fd5b8286015b8481101561101f5780358352918301918301611008565b509695505050505050565b600082601f83011261103b57600080fd5b8135602061104b610fe083610f84565b82815260059290921b8401810191818101908684111561106a57600080fd5b8286015b8481101561101f5780356001600160401b038082111561108e5760008081fd5b9088019060a0601f19838c0381018213156110a95760008081fd5b6110b1610f0a565b888501356110be81610fa7565b81526040858101356110cf81610fa7565b828b015260608681013582840152608080880135828501529487013594868611156110fc57600091508182fd5b85880197508f603f89011261111357600095508586fd5b8b88013595508686111561112957611129610ef4565b6111398c86601f89011601610f54565b96508587528f83878a0101111561115257600094508485fd5b858389018d89013760009587018c01959095525050918201929092528552505091830191830161106e565b6000602080838503121561119057600080fd5b82356001600160401b03808211156111a757600080fd5b90840190606082870312156111bb57600080fd5b6111c3610f32565b8235828111156111d257600080fd5b8301601f810188136111e357600080fd5b80356111f1610fe082610f84565b81815260059190911b8201860190868101908a83111561121057600080fd5b928701925b8284101561123757833561122881610fa7565b82529287019290870190611215565b8452505050828401358281111561124d57600080fd5b61125988828601610fbf565b8583015250604083013593508184111561127257600080fd5b61127e8785850161102a565b60408201529695505050505050565b604080825283519082018190526000906020906060840190828701845b828110156112cf5781516001600160a01b0316845292840192908401906001016112aa565b5050508381038285015284518082528583019183019060005b81811015611304578351835292840192918401916001016112e8565b5090979650505050505050565b6001600160a01b0391909116815260200190565b600082601f83011261133657600080fd5b81516020611346610fe083610f84565b82815260059290921b8401810191818101908684111561136557600080fd5b8286015b8481101561101f57805161137c81610fa7565b8352918301918301611369565b60006020828403121561139b57600080fd5b81516001600160401b038111156113b157600080fd5b6113bd84828501611325565b949350505050565b6000602082840312156113d757600080fd5b81516113e281610fa7565b9392505050565b634e487b7160e01b600052603260045260246000fd5b60006020828403121561141157600080fd5b815180151581146113e257600080fd5b6000806040838503121561143457600080fd5b82516001600160401b038082111561144b57600080fd5b61145786838701611325565b935060209150818501518181111561146e57600080fd5b85019050601f8101861361148157600080fd5b805161148f610fe082610f84565b81815260059190911b820183019083810190888311156114ae57600080fd5b928401925b828410156114cc578351825292840192908401906114b3565b80955050505050509250929050565b634e487b7160e01b600052601160045260246000fd5b600060018201611503576115036114db565b5060010190565b6000602080835260018060a01b0380855116828501528082860151166040850152506040840151606084015260608401516080840152608084015160a08085015280518060c086015260005b818110156115725782810184015186820160e001528301611556565b50600060e0828701015260e0601f19601f830116860101935050505092915050565b808201808211156108f5576108f56114db56fea2646970667358221220a90b03cce7df01b029198d5b37109d3fb34098fa517d6218873db513de80578864736f6c63430008110033608060405234801561001057600080fd5b50600080546001600160a01b0319163317905561212a806100326000396000f3fe608060405234801561001057600080fd5b50600436106100415760003560e01c806360f96a8f14610046578063721a68b21461006f578063d00892531461008f575b600080fd5b600054610059906001600160a01b031681565b60405161006691906116ac565b60405180910390f35b61008261007d366004611922565b6100af565b6040516100669190611b1a565b6100a261009d366004611bdc565b610198565b6040516100669190611d92565b60606100bb83836103a2565b925060005b85518110156101235761010f6101088783815181106100e1576100e1611dac565b60200260200101518684815181106100fb576100fb611dac565b6020026020010151610462565b83906105a9565b91508061011b81611dd8565b9150506100c0565b5060005b845181101561018f5761017b61010886838151811061014857610148611dac565b602002602001015186848a5161015e9190611df1565b8151811061016e5761016e611dac565b60200260200101516106cf565b91508061018781611dd8565b915050610127565b50949350505050565b606084516001600160401b038111156101b3576101b36116c0565b6040519080825280602002602001820160405280156101dc578160200160208202803683370190505b5090506000805b86518110156103985760006001600160a01b031687828151811061020957610209611dac565b602002602001015160000151602001516001600160a01b0316146102875760008061024e89848151811061023f5761023f611dac565b6020026020010151888861072d565b915091508095508185858151811061026857610268611dac565b602090810291909101015261027e600185611df1565b93505050610386565b6000806102ae89848151811061029f5761029f611dac565b60200260200101518888610982565b915091508095506102e58984815181106102ca576102ca611dac565b60200260200101516020015189610d2490919063ffffffff16565b801561031057508883815181106102fe576102fe611dac565b60200260200101516060015151600014155b15610345578185858151811061032857610328611dac565b602090810291909101015261033e600185611df1565b9350610383565b61037589848151811061035a5761035a611dac565b60200260200101516020015188610d8990919063ffffffff16565b96506103818683610e75565b505b50505b8061039081611dd8565b9150506101e3565b5050949350505050565b60606000805b84518110156103ea578481815181106103c3576103c3611dac565b6020026020010151826103d69190611df1565b9150806103e281611dd8565b9150506103a8565b5060005b845181101561045657818486838151811061040b5761040b611dac565b602002602001015161041d9190611e04565b6104279190611e1b565b85828151811061043957610439611dac565b60209081029190910101528061044e81611dd8565b9150506103ee565b50839150505b92915050565b606060008061047085610f46565b909250905061047f81856103a2565b905061048961162d565b606060005b84518110156105625760005485516001600160a01b039091169063e7c87f19908790849081106104c0576104c0611dac565b60200260200101516040518263ffffffff1660e01b81526004016104e491906116ac565b602060405180830381865afa158015610501573d6000803e3d6000fd5b505050506040513d601f19601f820116820180604052508101906105259190611e3d565b6105505760006105408683815181106100e1576100e1611dac565b905061054c83826105a9565b9250505b8061055a81611dd8565b91505061048e565b506040805160a0810182528381526001600160a01b0389166020820152908101879052606081018590526080810184905261059d8282611213565b98975050505050505050565b60606000825184516105bb9190611df1565b6001600160401b038111156105d2576105d26116c0565b60405190808252806020026020018201604052801561060b57816020015b6105f861166e565b8152602001906001900390816105f05790505b50905060005b84518110156106645784818151811061062c5761062c611dac565b602002602001015182828151811061064657610646611dac565b6020026020010181905250808061065c90611dd8565b915050610611565b5060005b83518110156106c75783818151811061068357610683611dac565b6020026020010151828651836106999190611df1565b815181106106a9576106a9611dac565b602002602001018190525080806106bf90611dd8565b915050610668565b509392505050565b60606000806106dd856112ce565b90925090506106ec81856103a2565b6040805160a081018252878152600060208201529081018690526060818101859052608082018390529192506107228282611213565b979650505050505050565b6000606060008560600151516001600160401b03811115610750576107506116c0565b604051908082528060200260200182016040528015610779578160200160208202803683370190505b50905060005b8660600151518110156108805760006107be886060015183815181106107a7576107a7611dac565b6020026020010151886115cc90919063ffffffff16565b905060008682815181106107d4576107d4611dac565b602002602001015190506000670de0b6b3a76400008a6080015185815181106107ff576107ff611dac565b6020026020010151836108129190611e04565b61081c9190611e1b565b90508088848151811061083157610831611dac565b602002602001018181516108459190611e5f565b9052508451819086908690811061085e5761085e611dac565b602002602001018181525050505050808061087890611dd8565b91505061077f565b50600080548751602001516040516321027dc560e01b81526001600160a01b03909216916321027dc5916108b6916004016116ac565b602060405180830381865afa1580156108d3573d6000803e3d6000fd5b505050506040513d601f19601f820116820180604052508101906108f79190611e72565b8751606089015160405163591f682960e01b81529293506000926001600160a01b0385169263591f682992610930928890600401611e8f565b602060405180830381865afa15801561094d573d6000803e3d6000fd5b505050506040513d601f19601f820116820180604052508101906109719190611ed2565b94508593505050505b935093915050565b6000606084602001516001600160a01b031685606001516000815181106109ab576109ab611dac565b60200260200101516001600160a01b03161480156109ce57508460600151516001145b806109e4575060208501516001600160a01b0316155b15610aec576000610a1c8660600151600081518110610a0557610a05611dac565b6020026020010151866115cc90919063ffffffff16565b90506000848281518110610a3257610a32611dac565b60200260200101519050670de0b6b3a76400008760800151600081518110610a5c57610a5c611dac565b602002602001015182610a6f9190611e04565b610a799190611e1b565b858381518110610a8b57610a8b611dac565b60200260200101818151610a9f9190611e5f565b90525060808701518051670de0b6b3a76400009190600090610ac357610ac3611dac565b602002602001015182610ad69190611e04565b610ae09190611e1b565b8593509350505061097a565b60008560600151516001600160401b03811115610b0b57610b0b6116c0565b604051908082528060200260200182016040528015610b34578160200160208202803683370190505b50905060005b866060015151811015610c23576000610b62886060015183815181106107a7576107a7611dac565b90506000868281518110610b7857610b78611dac565b602002602001015190506000670de0b6b3a76400008a608001518581518110610ba357610ba3611dac565b602002602001015183610bb69190611e04565b610bc09190611e1b565b905080858581518110610bd557610bd5611dac565b60200260200101818152505080888481518110610bf457610bf4611dac565b60200260200101818151610c089190611e5f565b905250839250610c1b9150829050611dd8565b915050610b3a565b506000805460208801516040516321027dc560e01b81526001600160a01b03909216916321027dc591610c58916004016116ac565b602060405180830381865afa158015610c75573d6000803e3d6000fd5b505050506040513d601f19601f82011682018060405250810190610c999190611e72565b6020880151606089015160405163feff3e8d60e01b81529293506000926001600160a01b0385169263feff3e8d92610cd5928890600401611eeb565b602060405180830381865afa158015610cf2573d6000803e3d6000fd5b505050506040513d601f19601f82011682018060405250810190610d169190611ed2565b945085935061097a92505050565b6000805b8351811015610d7f57826001600160a01b0316848281518110610d4d57610d4d611dac565b60200260200101516001600160a01b031603610d6d57600191505061045c565b80610d7781611dd8565b915050610d28565b5060009392505050565b6060600083516001610d9b9190611df1565b6001600160401b03811115610db257610db26116c0565b604051908082528060200260200182016040528015610ddb578160200160208202803683370190505b50905060005b8451811015610e4057848181518110610dfc57610dfc611dac565b6020026020010151828281518110610e1657610e16611dac565b6001600160a01b039092166020928302919091019091015280610e3881611dd8565b915050610de1565b508281855181518110610e5557610e55611dac565b6001600160a01b0390921660209283029190910190910152905092915050565b6060600083516001610e879190611df1565b6001600160401b03811115610e9e57610e9e6116c0565b604051908082528060200260200182016040528015610ec7578160200160208202803683370190505b50905060005b8451811015610f1f57848181518110610ee857610ee8611dac565b6020026020010151828281518110610f0257610f02611dac565b602090810291909101015280610f1781611dd8565b915050610ecd565b508281855181518110610f3457610f34611dac565b60209081029190910101529392505050565b60005460405163e7c87f1960e01b815260609182916001600160a01b039091169063e7c87f1990610f7b9086906004016116ac565b602060405180830381865afa158015610f98573d6000803e3d6000fd5b505050506040513d601f19601f82011682018060405250810190610fbc9190611e3d565b156110da5760408051600180825281830190925290602080830190803683370190505091506001600160a01b0383166110695760008054906101000a90046001600160a01b03166001600160a01b0316636ca95a4e6040518163ffffffff1660e01b8152600401602060405180830381865afa158015611040573d6000803e3d6000fd5b505050506040513d601f19601f820116820180604052508101906110649190611e72565b61106b565b825b8260008151811061107e5761107e611dac565b6001600160a01b03929092166020928302919091018201526040805160018082528183019092529182810190803683370190505090506001816000815181106110c9576110c9611dac565b602002602001018181525050915091565b600080546040516321027dc560e01b81526001600160a01b03909116906321027dc59061110b9087906004016116ac565b602060405180830381865afa158015611128573d6000803e3d6000fd5b505050506040513d601f19601f8201168201806040525081019061114c9190611e72565b90506001600160a01b038116156111dc5760405163195b70b960e21b815281906001600160a01b0382169063656dc2e49061118b9088906004016116ac565b600060405180830381865afa1580156111a8573d6000803e3d6000fd5b505050506040513d6000823e601f3d908101601f191682016040526111d09190810190611f85565b909450925061120d9050565b60405162461bcd60e51b8152602060048201526002602482015261155560f21b604482015260640160405180910390fd5b50915091565b60606000835160016112259190611df1565b6001600160401b0381111561123c5761123c6116c0565b60405190808252806020026020018201604052801561127557816020015b61126261166e565b81526020019060019003908161125a5790505b50905060005b8451811015610f1f5784818151811061129657611296611dac565b60200260200101518282815181106112b0576112b0611dac565b602002602001018190525080806112c690611dd8565b91505061127b565b60608060008060009054906101000a90046001600160a01b03166001600160a01b0316633ccced4a6040518163ffffffff1660e01b8152600401600060405180830381865afa158015611325573d6000803e3d6000fd5b505050506040513d6000823e601f3d908101601f1916820160405261134d919081019061203f565b905060005b81518110156115c55781818151811061136d5761136d611dac565b60200260200101516001600160a01b031663b54c04ec86602001516040518263ffffffff1660e01b81526004016113a491906116ac565b602060405180830381865afa1580156113c1573d6000803e3d6000fd5b505050506040513d601f19601f820116820180604052508101906113e59190611e3d565b156115b35760008282815181106113fe576113fe611dac565b60200260200101519050806001600160a01b031663656dc2e487600001516040518263ffffffff1660e01b815260040161143891906116ac565b600060405180830381865afa158015611455573d6000803e3d6000fd5b505050506040513d6000823e601f3d908101601f1916820160405261147d919081019061203f565b945084516001600160401b03811115611498576114986116c0565b6040519080825280602002602001820160405280156114c1578160200160208202803683370190505b50935060008087608001518060200190518101906114df919061208d565b50508951604051633189344160e21b81526001600160a01b039182166004820152600284810b602483015283900b6044820152929450909250600091829186169063c624d104906064016040805180830381865afa158015611545573d6000803e3d6000fd5b505050506040513d601f19601f8201168201806040525081019061156991906120d0565b91509150818860008151811061158157611581611dac565b60200260200101818152505080886001815181106115a1576115a1611dac565b60200260200101818152505050505050505b806115bd81611dd8565b915050611352565b5050915091565b6000805b835181101561162457826001600160a01b03168482815181106115f5576115f5611dac565b60200260200101516001600160a01b03160361161257905061045c565b8061161c81611dd8565b9150506115d0565b50509051919050565b6040518060a0016040528060006001600160a01b0316815260200160006001600160a01b031681526020016000815260200160008152602001606081525090565b6040518060a0016040528061168161162d565b815260200160006001600160a01b031681526020016000815260200160608152602001606081525090565b6001600160a01b0391909116815260200190565b634e487b7160e01b600052604160045260246000fd5b60405160a081016001600160401b03811182821017156116f8576116f86116c0565b60405290565b604051601f8201601f191681016001600160401b0381118282101715611726576117266116c0565b604052919050565b60006001600160401b03821115611747576117476116c0565b5060051b60200190565b6001600160a01b038116811461176657600080fd5b50565b803561177481611751565b919050565b600082601f83011261178a57600080fd5b8135602061179f61179a8361172e565b6116fe565b82815260059290921b840181019181810190868411156117be57600080fd5b8286015b848110156117e25780356117d581611751565b83529183019183016117c2565b509695505050505050565b600060a082840312156117ff57600080fd5b6118076116d6565b9050813561181481611751565b815260208281013561182581611751565b808284015250604083013560408301526060830135606083015260808301356001600160401b038082111561185957600080fd5b818501915085601f83011261186d57600080fd5b81358181111561187f5761187f6116c0565b611891601f8201601f191685016116fe565b915080825286848285010111156118a757600080fd5b808484018584013760008482840101525080608085015250505092915050565b600082601f8301126118d857600080fd5b813560206118e861179a8361172e565b82815260059290921b8401810191818101908684111561190757600080fd5b8286015b848110156117e2578035835291830191830161190b565b6000806000806080858703121561193857600080fd5b84356001600160401b038082111561194f57600080fd5b61195b88838901611779565b955060209150818701358181111561197257600080fd5b8701601f8101891361198357600080fd5b803561199161179a8261172e565b81815260059190911b8201840190848101908b8311156119b057600080fd5b8584015b838110156119e8578035868111156119cc5760008081fd5b6119da8e89838901016117ed565b8452509186019186016119b4565b5097505050506040870135915080821115611a0257600080fd5b50611a0f878288016118c7565b949793965093946060013593505050565b600060018060a01b0380835116845260208181850151168186015260408401516040860152606084015160608601526080840151915060a0608086015281518060a087015260005b81811015611a845783810183015187820160c001528201611a68565b50600060c0828801015260c0601f19601f830116870101935050505092915050565b600081518084526020808501945080840160005b83811015611adf5781516001600160a01b031687529582019590820190600101611aba565b509495945050505050565b600081518084526020808501945080840160005b83811015611adf57815187529582019590820190600101611afe565b60006020808301818452808551808352604092508286019150828160051b87010184880160005b83811015611bce57603f19898403018552815160a08151818652611b6782870182611a20565b838b01516001600160a01b0316878c0152898401518a880152606080850151888303828a01529193509150611b9c8382611aa6565b9250505060808083015192508582038187015250611bba8183611aea565b968901969450505090860190600101611b41565b509098975050505050505050565b60008060008060808587031215611bf257600080fd5b6001600160401b038086351115611c0857600080fd5b8535860187601f820112611c1b57600080fd5b611c2861179a823561172e565b81358082526020808301929160051b8401018a811115611c4757600080fd5b602084015b81811015611d1e578581351115611c6257600080fd5b8035850160a0818e03601f19011215611c7a57600080fd5b611c826116d6565b602082013588811115611c9457600080fd5b611ca38f6020838601016117ed565b825250611cb260408301611769565b602082015260608201356040820152608082013588811115611cd357600080fd5b611ce28f602083860101611779565b60608301525060a082013588811115611cfa57600080fd5b611d098f6020838601016118c7565b60808301525085525060209384019301611c4c565b50909750505050602086013581811115611d3757600080fd5b611d4388828901611779565b945050604086013581811115611d5857600080fd5b611d6488828901611779565b935050606086013581811115611d7957600080fd5b611d85888289016118c7565b9250505092959194509250565b602081526000611da56020830184611aea565b9392505050565b634e487b7160e01b600052603260045260246000fd5b634e487b7160e01b600052601160045260246000fd5b600060018201611dea57611dea611dc2565b5060010190565b8082018082111561045c5761045c611dc2565b808202811582820484141761045c5761045c611dc2565b600082611e3857634e487b7160e01b600052601260045260246000fd5b500490565b600060208284031215611e4f57600080fd5b81518015158114611da557600080fd5b8181038181111561045c5761045c611dc2565b600060208284031215611e8457600080fd5b8151611da581611751565b606081526000611ea26060830186611a20565b8281036020840152611eb48186611aa6565b90508281036040840152611ec88185611aea565b9695505050505050565b600060208284031215611ee457600080fd5b5051919050565b6001600160a01b0384168152606060208201819052600090611f0f90830185611aa6565b8281036040840152611ec88185611aea565b600082601f830112611f3257600080fd5b81516020611f4261179a8361172e565b82815260059290921b84018101918181019086841115611f6157600080fd5b8286015b848110156117e2578051611f7881611751565b8352918301918301611f65565b60008060408385031215611f9857600080fd5b82516001600160401b0380821115611faf57600080fd5b611fbb86838701611f21565b9350602091508185015181811115611fd257600080fd5b85019050601f81018613611fe557600080fd5b8051611ff361179a8261172e565b81815260059190911b8201830190838101908883111561201257600080fd5b928401925b8284101561203057835182529284019290840190612017565b80955050505050509250929050565b60006020828403121561205157600080fd5b81516001600160401b0381111561206757600080fd5b61207384828501611f21565b949350505050565b8051600281900b811461177457600080fd5b600080600080608085870312156120a357600080fd5b6120ac8561207b565b93506120ba6020860161207b565b6040860151606090960151949790965092505050565b600080604083850312156120e357600080fd5b50508051602090910151909290915056fea2646970667358221220f8872b1e6e005685cb5387272e63f1b9414ec8533dea1c16b05260c6791f05ce64736f6c6343000811003360806040523480156200001157600080fd5b5060405162004d9538038062004d958339810160408190526200003491620000c3565b6200003f3362000073565b60028054336001600160a01b031991821617909155600180549091166001600160a01b0392909216919091179055620000f5565b600080546001600160a01b038381166001600160a01b0319831681178455604051919092169283917f8be0079c531659141344cd1fd0a4f28419497f9722a3daafe3b4186f6b6457e09190a35050565b600060208284031215620000d657600080fd5b81516001600160a01b0381168114620000ee57600080fd5b9392505050565b614c9080620001056000396000f3fe608060405234801561001057600080fd5b50600436106100785760003560e01c80632ae68b061461007d57806360f96a8f146100a6578063715018a6146100d15780638da5cb5b146100db5780639b0b872b146100ec578063b1674db2146100ff578063f2fde38b14610120578063ff4be9c014610133575b600080fd5b61009061008b366004613c11565b610154565b60405161009d9190613e61565b60405180910390f35b6002546100b9906001600160a01b031681565b6040516001600160a01b03909116815260200161009d565b6100d961030b565b005b6000546001600160a01b03166100b9565b6001546100b9906001600160a01b031681565b61011261010d366004614035565b61031f565b60405161009d9291906140ec565b6100d961012e36600461411a565b6107ba565b61014661014136600461446c565b610838565b60405161009d92919061458e565b60608251865161016491906145b7565b6001600160401b0381111561017b5761017b613a25565b6040519080825280602002602001820160405280156101b457816020015b6101a1613968565b8152602001906001900390816101995790505b50905060005b86518110156102e75760005b84518110156102d45761028d6040518060a001604052808a85815181106101ef576101ef6145ce565b60200260200101516001600160a01b03168152602001878481518110610217576102176145ce565b60200260200101516001600160a01b0316815260200186848151811061023f5761023f6145ce565b6020026020010151815260200189858151811061025e5761025e6145ce565b6020026020010151815260200188858151811061027d5761027d6145ce565b6020026020010151815250610d8f565b838287518561029c91906145b7565b6102a691906145e4565b815181106102b6576102b66145ce565b602002602001018190525080806102cc906145f7565b9150506101c6565b50806102df816145f7565b9150506101ba565b506102f181611c46565b9050610301818786888787611d96565b9695505050505050565b6103136125b0565b61031d600061260a565b565b60608084516001600160401b0381111561033b5761033b613a25565b604051908082528060200260200182016040528015610364578160200160208202803683370190505b50915084516001600160401b0381111561038057610380613a25565b6040519080825280602002602001820160405280156103a9578160200160208202803683370190505b509050600085516001600160401b038111156103c7576103c7613a25565b60405190808252806020026020018201604052801561040057816020015b6103ed613968565b8152602001906001900390816103e55790505b509050600086516001600160401b0381111561041e5761041e613a25565b60405190808252806020026020018201604052801561045157816020015b606081526020019060019003908161043c5790505b50905060005b87518110156107af576000670de0b6b3a76400008761049c8b8581518110610481576104816145ce565b602002602001015160a001518b61265a90919063ffffffff16565b815181106104ac576104ac6145ce565b60200260200101518a84815181106104c6576104c66145ce565b6020026020010151600001516104dc91906145b7565b6104e69190614626565b90508882815181106104fa576104fa6145ce565b602002602001015160c00151516001600160401b0381111561051e5761051e613a25565b60405190808252806020026020018201604052801561055157816020015b606081526020019060019003908161053c5790505b50838381518110610564576105646145ce565b602002602001018190525060005b898381518110610584576105846145ce565b602002602001015160c00151518110156106f45760008a84815181106105ac576105ac6145ce565b602002602001015160c0015182815181106105c9576105c96145ce565b60200260200101516001600160a01b031663c0e7d8de848d87815181106105f2576105f26145ce565b602002602001015161010001518581518110610610576106106145ce565b6020026020010151888a6040518563ffffffff1660e01b8152600401610639949392919061463a565b600060405180830381865afa158015610656573d6000803e3d6000fd5b505050506040513d6000823e601f3d908101601f1916820160405261067e9190810190614707565b9050806001825161068f9190614797565b8151811061069f5761069f6145ce565b60200260200101519250808585815181106106bc576106bc6145ce565b602002602001015183815181106106d5576106d56145ce565b60200260200101819052505080806106ec906145f7565b915050610572565b50888281518110610707576107076145ce565b602002602001015160e00151868381518110610725576107256145ce565b60200260200101906001600160a01b031690816001600160a01b03168152505080858381518110610758576107586145ce565b602002602001018181525050888281518110610776576107766145ce565b6020026020010151848381518110610790576107906145ce565b60200260200101819052505080806107a7906145f7565b915050610457565b505050935093915050565b6107c26125b0565b6001600160a01b03811661082c5760405162461bcd60e51b815260206004820152602660248201527f4f776e61626c653a206e6577206f776e657220697320746865207a65726f206160448201526564647265737360d01b60648201526084015b60405180910390fd5b6108358161260a565b50565b6060806000610846846126bd565b509050606061085e8689600001518a6020015161031f565b909250905061086d82826127fc565b600154895160405163d008925360e01b81529395509193506001600160a01b03169163d0089253916108a89189919087908790600401614830565b600060405180830381865afa1580156108c5573d6000803e3d6000fd5b505050506040513d6000823e601f3d908101601f191682016040526108ed9190810190614707565b935083516001600160401b0381111561090857610908613a25565b604051908082528060200260200182016040528015610931578160200160208202803683370190505b50925060005b875151811015610b71576040805160018082528183019092526000916020808301908036833750506040805160018082528183019092529293506000929150602080830190803683370190505090508960000151838151811061099c5761099c6145ce565b6020026020010151826000815181106109b7576109b76145ce565b60200260200101906001600160a01b031690816001600160a01b0316815250508683815181106109e9576109e96145ce565b602002602001015181600081518110610a0457610a046145ce565b602090810291909101810191909152600254604080516060810182528581528084018590528151600080825294810183526001600160a01b0390931692639b1fbbe79282019085610a6b565b610a586139c6565b815260200190600190039081610a505790505b5090526002546040805163a9d75b2b60e01b815290516001600160a01b039092169163a9d75b2b916004808201926020929091908290030181865afa158015610ab8573d6000803e3d6000fd5b505050506040513d601f19601f82011682018060405250810190610adc9190614921565b6040518363ffffffff1660e01b8152600401610af992919061493e565b602060405180830381865afa158015610b16573d6000803e3d6000fd5b505050506040513d601f19601f82011682018060405250810190610b3a91906149f7565b905080878581518110610b4f57610b4f6145ce565b6020026020010181815250505050508080610b69906145f7565b915050610937565b5060005b876020015151811015610d83578751518590610b929083906145e4565b81518110610ba257610ba26145ce565b602002602001015188602001518281518110610bc057610bc06145ce565b602090810291909101015160600152604080516001808252818301909252600091816020015b610bee6139c6565b815260200190600190039081610be657905050905088602001518281518110610c1957610c196145ce565b602002602001015181600081518110610c3457610c346145ce565b6020908102919091018101919091526002546040805160006060820181815260808301845282528251818152808601845282860152818301869052825163a9d75b2b60e01b8152925190946001600160a01b0390941693639b1fbbe793859263a9d75b2b926004808401939192918290030181865afa158015610cbb573d6000803e3d6000fd5b505050506040513d601f19601f82011682018060405250810190610cdf9190614921565b6040518363ffffffff1660e01b8152600401610cfc92919061493e565b602060405180830381865afa158015610d19573d6000803e3d6000fd5b505050506040513d601f19601f82011682018060405250810190610d3d91906149f7565b90508086848c6000015151610d5291906145e4565b81518110610d6257610d626145ce565b60200260200101818152505050508080610d7b906145f7565b915050610b75565b50505094509492505050565b610d97613968565b60008260800151836040015111610dd057826080015183606001518460400151610dc191906145b7565b610dcb9190614626565b610dd6565b82606001515b905060008360600151846080015183610def91906145b7565b610df99190614626565b90506000600260009054906101000a90046001600160a01b03166001600160a01b03166345725af06040518163ffffffff1660e01b8152600401600060405180830381865afa158015610e50573d6000803e3d6000fd5b505050506040513d6000823e601f3d908101601f19168201604052610e789190810190614a10565b90506000600260009054906101000a90046001600160a01b03166001600160a01b0316637dc0d1d06040518163ffffffff1660e01b8152600401602060405180830381865afa158015610ecf573d6000803e3d6000fd5b505050506040513d601f19601f82011682018060405250810190610ef39190614921565b60208088015160025460408051633654ad2760e11b815290516001600160a01b039586169563ac41865a95931692636ca95a4e92600480820193918290030181865afa158015610f47573d6000803e3d6000fd5b505050506040513d601f19601f82011682018060405250810190610f6b9190614921565b6040516001600160e01b031960e085901b1681526001600160a01b03928316600482015291166024820152604401602060405180830381865afa158015610fb6573d6000803e3d6000fd5b505050506040513d601f19601f82011682018060405250810190610fda91906149f7565b90506000610ff18760000151886020015187612b2c565b905060008351600361100391906145e4565b6001600160401b0381111561101a5761101a613a25565b60405190808252806020026020018201604052801561105357816020015b611040613968565b8152602001906001900390816110385790505b50905060008451600361106691906145e4565b6001600160401b0381111561107d5761107d613a25565b6040519080825280602002602001820160405280156110a6578160200160208202803683370190505b50905060005b855181101561128b57604080516001808252818301909252600091816020015b60608152602001906001900390816110cc57505060408051600280825260608201835292935091906020830190803683370190505081600081518110611114576111146145ce565b60200260200101819052508a6000015181600081518110611137576111376145ce565b6020026020010151600081518110611151576111516145ce565b60200260200101906001600160a01b031690816001600160a01b0316815250508a6020015181600081518110611189576111896145ce565b60200260200101516001815181106111a3576111a36145ce565b6001600160a01b0392909216602092830291909101909101526040805160018082528183019092526000918160200160208202803683370190505090508783815181106111f2576111f26145ce565b60200260200101518160008151811061120d5761120d6145ce565b60200260200101906001600160a01b031690816001600160a01b03168152505061123b81838c8f8b8e613443565b86858151811061124d5761124d6145ce565b60200260200101868681518110611266576112666145ce565b6020026020010182815250829052505050508080611283906145f7565b9150506110ac565b50604080516001808252818301909252600091816020015b60608152602001906001900390816112a3575050604080516003808252608082019092529192506020820160608036833701905050816000815181106112eb576112eb6145ce565b602002602001018190525089600001518160008151811061130e5761130e6145ce565b6020026020010151600081518110611328576113286145ce565b6001600160a01b039290921660209283029190910182015284015181518290600090611356576113566145ce565b6020026020010151600181518110611370576113706145ce565b60200260200101906001600160a01b031690816001600160a01b0316815250508960200151816000815181106113a8576113a86145ce565b60200260200101516002815181106113c2576113c26145ce565b6001600160a01b03929092166020928302919091019091015260408051600180825281830190925260009181602001602082028036833750508651825192935091839150600090611415576114156145ce565b60200260200101906001600160a01b031690816001600160a01b03168152505061144381838b8e8a8d613443565b85895181518110611456576114566145ce565b60200260200101858a5181518110611470576114706145ce565b6020908102919091010191909152525050604080516001808252818301909252600091816020015b6060815260200190600190039081611498575050604080516003808252608082019092529192506020820160608036833701905050816000815181106114e0576114e06145ce565b6020026020010181905250896000015181600081518110611503576115036145ce565b602002602001015160008151811061151d5761151d6145ce565b6001600160a01b0390921660209283029190910190910152836003602002015181600081518110611550576115506145ce565b602002602001015160018151811061156a5761156a6145ce565b60200260200101906001600160a01b031690816001600160a01b0316815250508960200151816000815181106115a2576115a26145ce565b60200260200101516002815181106115bc576115bc6145ce565b6001600160a01b039290921660209283029190910190910152604080516001808252818301909252600091816020016020820280368337019050509050846002602002015181600081518110611614576116146145ce565b60200260200101906001600160a01b031690816001600160a01b03168152505061164281838b8e8a8d613443565b858951600161165191906145e4565b81518110611661576116616145ce565b60200260200101858a51600161167791906145e4565b81518110611687576116876145ce565b60209081029190910101919091525250506040830151835160609182916001600160a01b03908116911614611966576040805160028082526060820190925290816020015b60608152602001906001900390816116cc575050604080516002808252606082018352929450919060208301908036833750506040805160028082526060820183529394509291506020830190803683370190505082600081518110611734576117346145ce565b60200260200101819052508a6000015182600081518110611757576117576145ce565b6020026020010151600081518110611771576117716145ce565b6001600160a01b03929092166020928302919091018201528501518251839060009061179f5761179f6145ce565b60200260200101516001815181106117b9576117b96145ce565b6001600160a01b0392909216602092830291909101820152604080516003808252608082019092529182016060803683370190505082600181518110611801576118016145ce565b6020908102919091010152846001602002015182600181518110611827576118276145ce565b6020026020010151600081518110611841576118416145ce565b6001600160a01b0390921660209283029190910190910152846003602002015182600181518110611874576118746145ce565b602002602001015160018151811061188e5761188e6145ce565b60200260200101906001600160a01b031690816001600160a01b0316815250508a60200151826001815181106118c6576118c66145ce565b60200260200101516002815181106118e0576118e06145ce565b6001600160a01b03929092166020928302919091019091015284518151829060009061190e5761190e6145ce565b6001600160a01b0390921660209283029190910190910152846002602002015181600181518110611941576119416145ce565b60200260200101906001600160a01b031690816001600160a01b031681525050611b54565b60408051600180825281830190925290816020015b606081526020019060019003908161197b57505060408051600180825281830190925291935060208083019080368337505086518251929350918391506000906119c7576119c76145ce565b6001600160a01b039290921660209283029190910182015260408051600480825260a082019092529182016080803683370190505082600081518110611a0f57611a0f6145ce565b60200260200101819052508a6000015182600081518110611a3257611a326145ce565b6020026020010151600081518110611a4c57611a4c6145ce565b6001600160a01b039290921660209283029190910182015285015182518390600090611a7a57611a7a6145ce565b6020026020010151600181518110611a9457611a946145ce565b6001600160a01b0390921660209283029190910190910152846003602002015182600081518110611ac757611ac76145ce565b6020026020010151600281518110611ae157611ae16145ce565b60200260200101906001600160a01b031690816001600160a01b0316815250508a6020015182600081518110611b1957611b196145ce565b6020026020010151600381518110611b3357611b336145ce565b60200260200101906001600160a01b031690816001600160a01b0316815250505b611b6281838b8e8a8d613443565b8589516002611b7191906145e4565b81518110611b8157611b816145ce565b60200260200101858a516002611b9791906145e4565b81518110611ba757611ba76145ce565b60200260200101828152508290525050505060008060005b8351811015611c1b5782848281518110611bdb57611bdb6145ce565b60200260200101511115611c0957838181518110611bfb57611bfb6145ce565b602002602001015192508091505b80611c13816145f7565b915050611bbf565b50838181518110611c2e57611c2e6145ce565b60200260200101519950505050505050505050919050565b606081516001600160401b03811115611c6157611c61613a25565b604051908082528060200260200182016040528015611c9a57816020015b611c87613968565b815260200190600190039081611c7f5790505b50905060005b8251811015611d90576001600160801b036000805b8551811015611d195782868281518110611cd157611cd16145ce565b6020026020010151608001511215611d0757809150858181518110611cf857611cf86145ce565b60200260200101516080015192505b80611d11816145f7565b915050611cb5565b50848181518110611d2c57611d2c6145ce565b6020026020010151848481518110611d4657611d466145ce565b60200260200101819052506001600160801b03858281518110611d6b57611d6b6145ce565b6020026020010151608001818152505050508080611d88906145f7565b915050611ca0565b50919050565b6060600087516001600160401b03811115611db357611db3613a25565b604051908082528060200260200182016040528015611dec57816020015b611dd9613968565b815260200190600190039081611dd15790505b5090506000604051806060016040528089516001600160401b03811115611e1557611e15613a25565b604051908082528060200260200182016040528015611e3e578160200160208202803683370190505b50815260200185516001600160401b03811115611e5d57611e5d613a25565b604051908082528060200260200182016040528015611e86578160200160208202803683370190505b5081526020016000815250905060005b895181101561235057600060405180606001604052808c8481518110611ebe57611ebe6145ce565b6020026020010151602001518152602001611eff8d8581518110611ee457611ee46145ce565b602002602001015160a001518d61265a90919063ffffffff16565b8152602001611f348d8581518110611f1957611f196145ce565b602002602001015160e001518a61265a90919063ffffffff16565b815250905060006001600160a01b03168b8381518110611f5657611f566145ce565b602002602001015160a001516001600160a01b03161480611fa6575060006001600160a01b03168b8381518110611f8f57611f8f6145ce565b602002602001015160e001516001600160a01b0316145b15611fb1575061233e565b88816020015181518110611fc757611fc76145ce565b60200260200101518360000151826020015181518110611fe957611fe96145ce565b602002602001015110801561203b57508581604001518151811061200f5761200f6145ce565b60200260200101518360200151826040015181518110612031576120316145ce565b6020026020010151105b1561233c57600080846000015183602001518151811061205d5761205d6145ce565b60200260200101518b84602001518151811061207b5761207b6145ce565b602002602001015161208d9190614797565b9050600085602001518460400151815181106120ab576120ab6145ce565b6020026020010151898560400151815181106120c9576120c96145ce565b60200260200101516120db9190614797565b84519091508210156120ed57816120f0565b83515b9250808311156120fe578092505b505089826020015181518110612116576121166145ce565b602002602001015189836020015181518110612134576121346145ce565b60200260200101518261214791906145b7565b6121519190614626565b8c8481518110612163576121636145ce565b60200260200101516000018181525050808c8481518110612186576121866145ce565b602002602001015160200181815250508b83815181106121a8576121a86145ce565b6020026020010151602001518c84815181106121c6576121c66145ce565b602002602001015160600151826121dd91906145b7565b6121e79190614626565b8c84815181106121f9576121f96145ce565b602002602001015160600181815250508b838151811061221b5761221b6145ce565b6020026020010151602001518c8481518110612239576122396145ce565b6020026020010151604001518261225091906145b7565b61225a9190614626565b8c848151811061226c5761226c6145ce565b602002602001015160400181815250508b838151811061228e5761228e6145ce565b6020026020010151858560400151815181106122ac576122ac6145ce565b60200260200101819052506001846040018181516122ca91906145e4565b9052508351602083015181518392919081106122e8576122e86145ce565b602002602001018181516122fc91906145e4565b90525060208401516040830151815183929190811061231d5761231d6145ce565b6020026020010181815161233191906145e4565b90525061233e915050565b505b80612348816145f7565b915050611e96565b506000805b83518110156123e05760006001600160a01b031684828151811061237b5761237b6145ce565b602002602001015160a001516001600160a01b0316141580156123bb575060008482815181106123ad576123ad6145ce565b602002602001015160000151115b156123ce576123cb6001836145e4565b91505b806123d8816145f7565b915050612355565b50806001600160401b038111156123f9576123f9613a25565b60405190808252806020026020018201604052801561243257816020015b61241f613968565b8152602001906001900390816124175790505b5093506000805b84518110156124fb5760006001600160a01b031685828151811061245f5761245f6145ce565b602002602001015160a001516001600160a01b03161415801561249f57506000858281518110612491576124916145ce565b602002602001015160000151115b156124e9578481815181106124b6576124b66145ce565b60200260200101518683815181106124d0576124d06145ce565b60209081029190910101526124e66001836145e4565b91505b806124f3816145f7565b915050612439565b5060005b85518110156125a1578861251e878381518110611ee457611ee46145ce565b8151811061252e5761252e6145ce565b6020026020010151868281518110612548576125486145ce565b602002602001015160000151670de0b6b3a764000061256791906145b7565b6125719190614626565b868281518110612583576125836145ce565b60209081029190910101515280612599816145f7565b9150506124ff565b50505050509695505050505050565b6000546001600160a01b0316331461031d5760405162461bcd60e51b815260206004820181905260248201527f4f776e61626c653a2063616c6c6572206973206e6f7420746865206f776e65726044820152606401610823565b600080546001600160a01b038381166001600160a01b0319831681178455604051919092169283917f8be0079c531659141344cd1fd0a4f28419497f9722a3daafe3b4186f6b6457e09190a35050565b6000805b83518110156126b257826001600160a01b0316848281518110612683576126836145ce565b60200260200101516001600160a01b0316036126a05790506126b7565b806126aa816145f7565b91505061265e565b505081515b92915050565b60608060005b83518110156127f65760005b8482815181106126e1576126e16145ce565b602002602001015160600151518110156127e3576127358586848151811061270b5761270b6145ce565b6020026020010151606001518381518110612728576127286145ce565b602002602001015161356c565b156127d15761278385838151811061274f5761274f6145ce565b602002602001015160600151828151811061276c5761276c6145ce565b60200260200101518561362b90919063ffffffff16565b93506127ce85838151811061279a5761279a6145ce565b60200260200101516080015182815181106127b7576127b76145ce565b60200260200101518461371790919063ffffffff16565b92505b806127db816145f7565b9150506126cf565b50806127ee816145f7565b9150506126c3565b50915091565b606080600084516001600160401b0381111561281a5761281a613a25565b604051908082528060200260200182016040528015612843578160200160208202803683370190505b50905060005b855181101561297657805b86518110156129635781811180156128af5750868181518110612879576128796145ce565b60200260200101516001600160a01b031687838151811061289c5761289c6145ce565b60200260200101516001600160a01b0316145b15612951578581815181106128c6576128c66145ce565b60200260200101518683815181106128e0576128e06145ce565b60200260200101516128f291906145e4565b868381518110612904576129046145ce565b6020026020010181815250506000868281518110612924576129246145ce565b6020026020010181815250506001838281518110612944576129446145ce565b6020026020010181815250505b8061295b816145f7565b915050612854565b508061296e816145f7565b915050612849565b506000805b86518110156129c6576000868281518110612998576129986145ce565b602002602001015111156129b4576129b16001836145e4565b91505b806129be816145f7565b91505061297b565b50806001600160401b038111156129df576129df613a25565b604051908082528060200260200182016040528015612a08578160200160208202803683370190505b509350806001600160401b03811115612a2357612a23613a25565b604051908082528060200260200182016040528015612a4c578160200160208202803683370190505b5092506000805b8751811015612b21576000878281518110612a7057612a706145ce565b60200260200101511115612b0f57878181518110612a9057612a906145ce565b6020026020010151868381518110612aaa57612aaa6145ce565b60200260200101906001600160a01b031690816001600160a01b031681525050868181518110612adc57612adc6145ce565b6020026020010151858381518110612af657612af66145ce565b6020908102919091010152612b0c6001836145e4565b91505b80612b19816145f7565b915050612a53565b505050509250929050565b612b34613a07565b6060806000600260009054906101000a90046001600160a01b03166001600160a01b03166345725af06040518163ffffffff1660e01b8152600401600060405180830381865afa158015612b8c573d6000803e3d6000fd5b505050506040513d6000823e601f3d908101601f19168201604052612bb49190810190614a10565b905060005b8151811015612fb9576000828281518110612bd657612bd66145ce565b602002602001015190506000816001600160a01b0316632a5c07fa6040518163ffffffff1660e01b8152600401600060405180830381865afa158015612c20573d6000803e3d6000fd5b505050506040513d6000823e601f3d908101601f19168201604052612c489190810190614a10565b905060005b8151811015612fa35760408051600380825260808201909252600091602082016060803683370190505090508b81600081518110612c8d57612c8d6145ce565b60200260200101906001600160a01b031690816001600160a01b031681525050828281518110612cbf57612cbf6145ce565b602002602001015181600181518110612cda57612cda6145ce565b60200260200101906001600160a01b031690816001600160a01b0316815250508b81600281518110612d0e57612d0e6145ce565b6001600160a01b03928316602091820292909201015260405163b8239ebb60e01b815260009186169063b8239ebb90612d4d908e908690600401614a9e565b602060405180830381865afa158015612d6a573d6000803e3d6000fd5b505050506040513d601f19601f82011682018060405250810190612d8e91906149f7565b6040805160038082526080820190925291925060009190602082016060803683370190505090508681600081518110612dc957612dc96145ce565b6020026020010181815250508381600181518110612de957612de96145ce565b6020026020010181815250508181600281518110612e0957612e096145ce565b6020908102919091010152612e1e8a826137e8565b99508c83600081518110612e3457612e346145ce565b60200260200101906001600160a01b031690816001600160a01b0316815250508c83600281518110612e6857612e686145ce565b60200260200101906001600160a01b031690816001600160a01b0316815250506000866001600160a01b031663b8239ebb8e866040518363ffffffff1660e01b8152600401612eb8929190614a9e565b602060405180830381865afa158015612ed5573d6000803e3d6000fd5b505050506040513d601f19601f82011682018060405250810190612ef991906149f7565b6040805160038082526080820190925291925060009190602082016060803683370190505090508881600081518110612f3457612f346145ce565b6020026020010181815250508581600181518110612f5457612f546145ce565b6020026020010181815250508181600281518110612f7457612f746145ce565b6020908102919091010152612f898b826137e8565b9a5050505050508080612f9b906145f7565b915050612c4d565b5050508080612fb1906145f7565b915050612bb9565b5060008060008060005b87518110156130535784888281518110612fdf57612fdf6145ce565b6020026020010151600281518110612ff957612ff96145ce565b6020026020010151111561304157878181518110613019576130196145ce565b6020026020010151600281518110613033576130336145ce565b602002602001015194508093505b8061304b816145f7565b915050612fc3565b5060005b86518110156130e75782878281518110613073576130736145ce565b602002602001015160028151811061308d5761308d6145ce565b602002602001015111156130d5578681815181106130ad576130ad6145ce565b60200260200101516002815181106130c7576130c76145ce565b602002602001015192508091505b806130df816145f7565b915050613057565b50848784815181106130fb576130fb6145ce565b6020026020010151600081518110613115576131156145ce565b60200260200101518151811061312d5761312d6145ce565b602002602001015188600060048110613148576131486145ce565b60200201906001600160a01b031690816001600160a01b03168152505084878481518110613178576131786145ce565b6020026020010151600081518110613192576131926145ce565b6020026020010151815181106131aa576131aa6145ce565b60200260200101516001600160a01b0316632a5c07fa6040518163ffffffff1660e01b8152600401600060405180830381865afa1580156131ef573d6000803e3d6000fd5b505050506040513d6000823e601f3d908101601f191682016040526132179190810190614a10565b878481518110613229576132296145ce565b6020026020010151600181518110613243576132436145ce565b60200260200101518151811061325b5761325b6145ce565b602002602001015188600160048110613276576132766145ce565b60200201906001600160a01b031690816001600160a01b031681525050848682815181106132a6576132a66145ce565b60200260200101516000815181106132c0576132c06145ce565b6020026020010151815181106132d8576132d86145ce565b6020026020010151886002600481106132f3576132f36145ce565b60200201906001600160a01b031690816001600160a01b03168152505084868281518110613323576133236145ce565b602002602001015160008151811061333d5761333d6145ce565b602002602001015181518110613355576133556145ce565b60200260200101516001600160a01b0316632a5c07fa6040518163ffffffff1660e01b8152600401600060405180830381865afa15801561339a573d6000803e3d6000fd5b505050506040513d6000823e601f3d908101601f191682016040526133c29190810190614a10565b8682815181106133d4576133d46145ce565b60200260200101516001815181106133ee576133ee6145ce565b602002602001015181518110613406576134066145ce565b602002602001015188600360048110613421576134216145ce565b6001600160a01b03909216602092909202015250959998505050505050505050565b61344b613968565b60008061345989898961389d565b9050600086602001516001600160a01b031663313ce5676040518163ffffffff1660e01b8152600401602060405180830381865afa15801561349f573d6000803e3d6000fd5b505050506040513d601f19601f820116820180604052508101906134c39190614abf565b6134ce90600a614bc6565b6134d883886145b7565b6134e29190614626565b90506000856134f18382614bd5565b6135009064e8d4a51000614bfc565b61350a9190614c2c565b60408051610120810182529a8b526020808c01989098528a0184905260608a019290925250608088015285516001600160a01b0390811660a089015260c0880199909952949092015190961660e0850152505061010082019290925292909150565b6000805b835181101561362157826001600160a01b0316848281518110613595576135956145ce565b6020026020010151602001516001600160a01b03161480156136005750826001600160a01b03168482815181106135ce576135ce6145ce565b6020026020010151606001516000815181106135ec576135ec6145ce565b60200260200101516001600160a01b031614155b1561360f5760009150506126b7565b80613619816145f7565b915050613570565b5060019392505050565b606060008351600161363d91906145e4565b6001600160401b0381111561365457613654613a25565b60405190808252806020026020018201604052801561367d578160200160208202803683370190505b50905060005b84518110156136e25784818151811061369e5761369e6145ce565b60200260200101518282815181106136b8576136b86145ce565b6001600160a01b0390921660209283029190910190910152806136da816145f7565b915050613683565b5082818551815181106136f7576136f76145ce565b6001600160a01b0390921660209283029190910190910152905092915050565b606060008351600161372991906145e4565b6001600160401b0381111561374057613740613a25565b604051908082528060200260200182016040528015613769578160200160208202803683370190505b50905060005b84518110156137c15784818151811061378a5761378a6145ce565b60200260200101518282815181106137a4576137a46145ce565b6020908102919091010152806137b9816145f7565b91505061376f565b5082818551815181106137d6576137d66145ce565b60209081029190910101529392505050565b60606000835160016137fa91906145e4565b6001600160401b0381111561381157613811613a25565b60405190808252806020026020018201604052801561384457816020015b606081526020019060019003908161382f5790505b50905060005b84518110156137c157848181518110613865576138656145ce565b602002602001015182828151811061387f5761387f6145ce565b60200260200101819052508080613895906145f7565b91505061384a565b6000805b845181101561395f578481815181106138bc576138bc6145ce565b60200260200101516001600160a01b031663b8239ebb848684815181106138e5576138e56145ce565b60200260200101516040518363ffffffff1660e01b815260040161390a929190614a9e565b602060405180830381865afa158015613927573d6000803e3d6000fd5b505050506040513d601f19601f8201168201806040525081019061394b91906149f7565b925080613957816145f7565b9150506138a1565b50909392505050565b604051806101200160405280600081526020016000815260200160008152602001600081526020016000815260200160006001600160a01b031681526020016060815260200160006001600160a01b03168152602001606081525090565b6040518060a0016040528060006001600160a01b0316815260200160006001600160a01b031681526020016000815260200160008152602001606081525090565b60405180608001604052806004906020820280368337509192915050565b634e487b7160e01b600052604160045260246000fd5b60405161012081016001600160401b0381118282101715613a5e57613a5e613a25565b60405290565b60405160a081016001600160401b0381118282101715613a5e57613a5e613a25565b604051608081016001600160401b0381118282101715613a5e57613a5e613a25565b604051606081016001600160401b0381118282101715613a5e57613a5e613a25565b604051601f8201601f191681016001600160401b0381118282101715613af257613af2613a25565b604052919050565b60006001600160401b03821115613b1357613b13613a25565b5060051b60200190565b6001600160a01b038116811461083557600080fd5b8035613b3d81613b1d565b919050565b600082601f830112613b5357600080fd5b81356020613b68613b6383613afa565b613aca565b82815260059290921b84018101918181019086841115613b8757600080fd5b8286015b84811015613bab578035613b9e81613b1d565b8352918301918301613b8b565b509695505050505050565b600082601f830112613bc757600080fd5b81356020613bd7613b6383613afa565b82815260059290921b84018101918181019086841115613bf657600080fd5b8286015b84811015613bab5780358352918301918301613bfa565b600080600080600060a08688031215613c2957600080fd5b85356001600160401b0380821115613c4057600080fd5b613c4c89838a01613b42565b96506020880135915080821115613c6257600080fd5b613c6e89838a01613bb6565b95506040880135915080821115613c8457600080fd5b613c9089838a01613bb6565b94506060880135915080821115613ca657600080fd5b613cb289838a01613b42565b93506080880135915080821115613cc857600080fd5b50613cd588828901613bb6565b9150509295509295909350565b600081518084526020808501945080840160005b83811015613d1b5781516001600160a01b031687529582019590820190600101613cf6565b509495945050505050565b600082825180855260208086019550808260051b84010181860160005b84811015613d7157601f19868403018952613d5f838351613ce2565b98840198925090830190600101613d43565b5090979650505050505050565b600081518084526020808501808196508360051b8101915082860160005b85811015613e54578284038952815180518552858101518686015260408082015190860152606080820151908601526080808201519086015260a0808201516001600160a01b03169086015260c0808201516101208288018190529190613e0583890182613ce2565b9250505060e080830151613e23828901826001600160a01b03169052565b50506101008083015192508682038188015250613e408183613d26565b9a87019a9550505090840190600101613d9c565b5091979650505050505050565b602081526000613e746020830184613d7e565b9392505050565b600082601f830112613e8c57600080fd5b81356020613e9c613b6383613afa565b82815260059290921b84018101918181019086841115613ebb57600080fd5b8286015b84811015613bab5780356001600160401b03811115613ede5760008081fd5b613eec8986838b0101613b42565b845250918301918301613ebf565b600082601f830112613f0b57600080fd5b81356020613f1b613b6383613afa565b82815260059290921b84018101918181019086841115613f3a57600080fd5b8286015b84811015613bab5780356001600160401b0380821115613f5e5760008081fd5b90880190610120828b03601f1901811315613f795760008081fd5b613f81613a3b565b87840135815260408085013589830152606080860135828401526080915081860135818401525060a0808601358284015260c09150613fc1828701613b32565b9083015260e08581013585811115613fd95760008081fd5b613fe78f8c838a0101613b42565b83850152506101009150613ffc828701613b32565b908301529184013591838311156140135760008081fd5b6140218d8a85880101613e7b565b908201528652505050918301918301613f3e565b60008060006060848603121561404a57600080fd5b83356001600160401b038082111561406157600080fd5b61406d87838801613efa565b9450602086013591508082111561408357600080fd5b61408f87838801613b42565b935060408601359150808211156140a557600080fd5b506140b286828701613bb6565b9150509250925092565b600081518084526020808501945080840160005b83811015613d1b578151875295820195908201906001016140d0565b6040815260006140ff6040830185613ce2565b828103602084015261411181856140bc565b95945050505050565b60006020828403121561412c57600080fd5b8135613e7481613b1d565b600060a0828403121561414957600080fd5b614151613a64565b9050813561415e81613b1d565b815260208281013561416f81613b1d565b808284015250604083013560408301526060830135606083015260808301356001600160401b03808211156141a357600080fd5b818501915085601f8301126141b757600080fd5b8135818111156141c9576141c9613a25565b6141db601f8201601f19168501613aca565b915080825286848285010111156141f157600080fd5b808484018584013760008482840101525080608085015250505092915050565b600082601f83011261422257600080fd5b81356020614232613b6383613afa565b82815260059290921b8401810191818101908684111561425157600080fd5b8286015b84811015613bab5780356001600160401b038111156142745760008081fd5b6142828986838b0101614137565b845250918301918301614255565b6000608082840312156142a257600080fd5b6142aa613a86565b905081356001600160401b03808211156142c357600080fd5b6142cf85838601613b42565b835260208401359150808211156142e557600080fd5b6142f185838601614211565b6020840152604084013591508082111561430a57600080fd5b61431685838601613bb6565b6040840152606084013591508082111561432f57600080fd5b5061433c84828501613bb6565b60608301525092915050565b600082601f83011261435957600080fd5b81356020614369613b6383613afa565b82815260059290921b8401810191818101908684111561438857600080fd5b8286015b84811015613bab5780356001600160401b03808211156143ac5760008081fd5b9088019060a0828b03601f19018113156143c65760008081fd5b6143ce613a64565b87840135838111156143e05760008081fd5b6143ee8d8a83880101614137565b82525060406143fe818601613b32565b89830152606080860135828401526080915081860135858111156144225760008081fd5b6144308f8c838a0101613b42565b8285015250508285013592508383111561444a5760008081fd5b6144588d8a85880101613bb6565b90820152865250505091830191830161438c565b6000806000806080858703121561448257600080fd5b84356001600160401b038082111561449957600080fd5b90860190606082890312156144ad57600080fd5b6144b5613aa8565b8235828111156144c457600080fd5b6144d08a828601613b42565b8252506020830135828111156144e557600080fd5b6144f18a828601613bb6565b60208301525060408301358281111561450957600080fd5b6145158a828601614211565b6040830152509550602087013591508082111561453157600080fd5b61453d88838901614290565b9450604087013591508082111561455357600080fd5b61455f88838901613efa565b9350606087013591508082111561457557600080fd5b5061458287828801614348565b91505092959194509250565b6040815260006140ff60408301856140bc565b634e487b7160e01b600052601160045260246000fd5b80820281158282048414176126b7576126b76145a1565b634e487b7160e01b600052603260045260246000fd5b808201808211156126b7576126b76145a1565b600060018201614609576146096145a1565b5060010190565b634e487b7160e01b600052601260045260246000fd5b60008261463557614635614610565b500490565b848152600060206080818401526146546080840187613ce2565b8381036040850152855180825282820190600581811b84018501858a016000805b858110156146e257601f198885038101885283518051808752908b01908b87019080891b88018d01865b828110156146cb57858a83030184526146b98286516140bc565b948f0194938f0193915060010161469f565b509a8d019a97505050938a01935050600101614675565b50505087810360608901526146f7818a613d7e565b9c9b505050505050505050505050565b6000602080838503121561471a57600080fd5b82516001600160401b0381111561473057600080fd5b8301601f8101851361474157600080fd5b805161474f613b6382613afa565b81815260059190911b8201830190838101908783111561476e57600080fd5b928401925b8284101561478c57835182529284019290840190614773565b979650505050505050565b818103818111156126b7576126b76145a1565b600060018060a01b0380835116845260208181850151168186015260408401516040860152606084015160608601526080840151915060a0608086015281518060a087015260005b8181101561480e5783810183015187820160c0015282016147f2565b50600060c0828801015260c0601f19601f830116870101935050505092915050565b6000608080830181845280885180835260a092508286019150828160051b8701016020808c0160005b848110156148e257898403609f190186528151805188865261487d898701826147aa565b828601516001600160a01b03168787015260408084015190880152606080840151888303828a0152919250906148b38382613ce2565b925050508982015191508581038a8701526148ce81836140bc565b978501979550505090820190600101614859565b5050878203908801526148f5818b613ce2565b945050505050828103604084015261490d8186613ce2565b9050828103606084015261478c81856140bc565b60006020828403121561493357600080fd5b8151613e7481613b1d565b60408152600083516060604084015261495a60a0840182613ce2565b9050602080860151603f198086850301606087015261497984836140bc565b604089015187820390920160808801528151808252909450908301915082840190600581901b8501840160005b828110156149d457601f198783030184526149c28286516147aa565b948601949386019391506001016149a6565b506001600160a01b0389168589015295506149ee92505050565b50509392505050565b600060208284031215614a0957600080fd5b5051919050565b60006020808385031215614a2357600080fd5b82516001600160401b03811115614a3957600080fd5b8301601f81018513614a4a57600080fd5b8051614a58613b6382613afa565b81815260059190911b82018301908381019087831115614a7757600080fd5b928401925b8284101561478c578351614a8f81613b1d565b82529284019290840190614a7c565b828152604060208201526000614ab76040830184613ce2565b949350505050565b600060208284031215614ad157600080fd5b815160ff81168114613e7457600080fd5b600181815b80851115614b1d578160001904821115614b0357614b036145a1565b80851615614b1057918102915b93841c9390800290614ae7565b509250929050565b600082614b34575060016126b7565b81614b41575060006126b7565b8160018114614b575760028114614b6157614b7d565b60019150506126b7565b60ff841115614b7257614b726145a1565b50506001821b6126b7565b5060208310610133831016604e8410600b8410161715614ba0575081810a6126b7565b614baa8383614ae2565b8060001904821115614bbe57614bbe6145a1565b029392505050565b6000613e7460ff841683614b25565b8181036000831280158383131683831282161715614bf557614bf56145a1565b5092915050565b80820260008212600160ff1b84141615614c1857614c186145a1565b81810583148215176126b7576126b76145a1565b600082614c3b57614c3b614610565b600160ff1b821460001984141615614c5557614c556145a1565b50059056fea2646970667358221220a67b07ac7049cead8cbdddba4a8903d77cd8aed31502e2a8ba2af2eb9c9e647d64736f6c63430008110033",
  "devdoc": {
    "kind": "dev",
    "methods": {
      "estimateValue((address[],uint256[],(address,address,uint256,uint256,bytes)[]),address)": {
        "params": {
          "assets": "ERC20 or ERC721 assets for whom the value needs to be estimated",
          "inTermsOf": "Token whose value equivalent value to the provided tokens needs to be returned"
        },
        "returns": {
          "_0": "The amount of inTermsOf that is equal in value to the provided tokens"
        }
      },
      "isSupported(address)": {
        "params": {
          "token": "Address of token to be swapped or swapped for"
        },
        "returns": {
          "_0": "Wether the provided token is supported or not"
        }
      },
      "owner()": {
        "details": "Returns the address of the current owner."
      },
      "preSwapCalculateSwaps((address[],uint256[],(address,address,uint256,uint256,bytes)[]),(address[],(address,address,uint256,uint256,bytes)[],uint256[],uint256[]))": {
        "returns": {
          "conversions": "List of conversions from simple ERC20 tokens to complex assets such as LP tokens, Uniswap v3 positions, etc",
          "swaps": "Swaps that need to be performed with the provided assets"
        }
      },
      "preSwapCalculateUnderlying((address[],uint256[],(address,address,uint256,uint256,bytes)[]),(address[],(address,address,uint256,uint256,bytes)[],uint256[],uint256[]))": {
        "params": {
          "desired": "Assets to convert provided assets into",
          "provided": "List of provided ERC20/ERC721 assets provided to convert into the desired assets"
        },
        "returns": {
          "_0": "Tokens that can be obtained by breaking down complex assets in provided",
          "_1": "Amounts of tokens that will be obtained from breaking down provided assetts",
          "_2": "Worth of the amounts of tokens, in terms of usd or network token (not relevant which for purpose of swapping)",
          "_3": "Data structures representing the conversions that need to take place from simple assets to complex assets to obtain the desired assets",
          "_4": "The simplest tokens needed in order to perform the previously mentioned conversions",
          "_5": "The values in terms of usd or network token that need to be allocated to each of the underlying tokens in order to perform the conversions"
        }
      },
      "renounceOwnership()": {
        "details": "Leaves the contract without owner. It will not be possible to call `onlyOwner` functions anymore. Can only be called by the current owner. NOTE: Renouncing ownership will leave the contract without an owner, thereby removing any functionality that is only available to the owner."
      },
      "swap((address[],uint256[],(address,address,uint256,uint256,bytes)[]),(uint256,uint256,uint256,uint256,int256,address,address[],address,address[][])[],((address,address,uint256,uint256,bytes),address,uint256,address[],uint256[])[],(address[],(address,address,uint256,uint256,bytes)[],uint256[],uint256[]),address)": {
        "details": "Before calling, make sure UniversalSwap contract has approvals to transfer provided assetsswaps ans conversions can be provided as empty list, in which case the contract will calculate them, but this will result in high gas usage",
        "params": {
          "conversions": "List of conversions from simple ERC20 tokens to complex assets such as LP tokens, Uniswap v3 positions, etc",
          "desired": "Assets to convert provided assets into",
          "provided": "List of provided ERC20/ERC721 assets provided to convert into the desired assets",
          "receiver": "Address that will receive output desired assets",
          "swaps": "Swaps that need to be performed with the provided assets"
        },
        "returns": {
          "_0": "Amount of outputTokens obtained and Token IDs for output NFTs"
        }
      },
      "swapAfterTransfer((address[],uint256[],(address,address,uint256,uint256,bytes)[]),(uint256,uint256,uint256,uint256,int256,address,address[],address,address[][])[],((address,address,uint256,uint256,bytes),address,uint256,address[],uint256[])[],(address[],(address,address,uint256,uint256,bytes)[],uint256[],uint256[]),address)": {
        "details": "Before calling, make sure all assets in provided have been transferred to universal swap contract",
        "params": {
          "conversions": "List of conversions from simple ERC20 tokens to complex assets such as LP tokens, Uniswap v3 positions, etc. Can be provided as empty list.",
          "desired": "Assets to convert provided assets into",
          "provided": "List of provided ERC20/ERC721 assets provided to convert into the desired assets",
          "receiver": "Address that will receive output desired assets",
          "swaps": "Swaps that need to be performed with the provided assets. Can be provided as empty list, in which case it will be calculated by the contract"
        },
        "returns": {
          "_0": "Amount of outputTokens obtained and Token IDs for output NFTs"
        }
      },
      "transferOwnership(address)": {
        "details": "Transfers ownership of the contract to a new account (`newOwner`). Can only be called by the current owner."
      }
    },
    "version": 1
  },
  "userdoc": {
    "kind": "user",
    "methods": {
      "estimateValue((address[],uint256[],(address,address,uint256,uint256,bytes)[]),address)": {
        "notice": "Estimates the combined values of the provided tokens in terms of another token"
      },
      "estimateValueERC20(address,uint256,address)": {
        "notice": "Estimates the value of a single ERC20 token in terms of another ERC20 token"
      },
      "estimateValueERC721((address,address,uint256,uint256,bytes),address)": {
        "notice": "Estimates the value of an ECR721 token in terms of an ERC20 token"
      },
      "getAmountsOut((address[],uint256[],(address,address,uint256,uint256,bytes)[]),(address[],(address,address,uint256,uint256,bytes)[],uint256[],uint256[]))": {
        "notice": "-------------Pre-swap calculations-------------"
      },
      "getAmountsOutWithSwaps((address[],uint256[],(address,address,uint256,uint256,bytes)[]),(address[],(address,address,uint256,uint256,bytes)[],uint256[],uint256[]),(uint256,uint256,uint256,uint256,int256,address,address[],address,address[][])[],((address,address,uint256,uint256,bytes),address,uint256,address[],uint256[])[])": {
        "notice": "The pre swap computations can be performed off-chain much faster, hence this function was created as a faster alternative to getAmountsOutCalculates the expected amounts and usd values from a swap given the pre swap calculations"
      },
      "getProtocol(address)": {
        "notice": "Get the pool interactor for a token"
      },
      "getSwappers()": {
        "notice": "-------------Public view functions-------------"
      },
      "getTokenValues(address[],uint256[])": {
        "notice": "get values of provided tokens and amounts in terms of network token"
      },
      "getUnderlying((address[],uint256[],(address,address,uint256,uint256,bytes)[]))": {
        "notice": "Find the underlying tokens and amounts for some complex tokens"
      },
      "isSimpleToken(address)": {
        "notice": "Checks if a provided token is composed of other underlying tokens or not"
      },
      "isSupported(address)": {
        "notice": "Checks if a provided token is swappable using UniversalSwap"
      },
      "networkToken()": {
        "notice": "Getters"
      },
      "preSwapCalculateSwaps((address[],uint256[],(address,address,uint256,uint256,bytes)[]),(address[],(address,address,uint256,uint256,bytes)[],uint256[],uint256[]))": {
        "notice": "Calculates the swaps and conversions that need to be performed prior to calling swap/swapAfterTransferIt is recommended to use this function and provide the return values to swap/swapAfterTransfer as that greatly reduces gas consumption"
      },
      "preSwapCalculateUnderlying((address[],uint256[],(address,address,uint256,uint256,bytes)[]),(address[],(address,address,uint256,uint256,bytes)[],uint256[],uint256[]))": {
        "notice": "Calculate the underlying tokens, amount and values for provided assets in a swap, as well as the conversions needed to obtain desired assets along with the conversion underlying and the value that needs to be allocated to each underlying"
      },
      "setSwappers(address[])": {
        "notice": "-------------Permissioned functions-------------"
      },
      "swap((address[],uint256[],(address,address,uint256,uint256,bytes)[]),(uint256,uint256,uint256,uint256,int256,address,address[],address,address[][])[],((address,address,uint256,uint256,bytes),address,uint256,address[],uint256[])[],(address[],(address,address,uint256,uint256,bytes)[],uint256[],uint256[]),address)": {
        "notice": "Swap provided assets into desired assets"
      },
      "swapAfterTransfer((address[],uint256[],(address,address,uint256,uint256,bytes)[]),(uint256,uint256,uint256,uint256,int256,address,address[],address,address[][])[],((address,address,uint256,uint256,bytes),address,uint256,address[],uint256[])[],(address[],(address,address,uint256,uint256,bytes)[],uint256[],uint256[]),address)": {
        "notice": "-------------Core logic-------------"
      }
    },
    "version": 1
  },
  "storageLayout": {
    "storage": [
      {
        "astId": 7,
        "contract": "contracts/UniversalSwap.sol:UniversalSwap",
        "label": "_owner",
        "offset": 0,
        "slot": "0",
        "type": "t_address"
      },
      {
        "astId": 19104,
        "contract": "contracts/UniversalSwap.sol:UniversalSwap",
        "label": "networkToken",
        "offset": 0,
        "slot": "1",
        "type": "t_address"
      },
      {
        "astId": 19106,
        "contract": "contracts/UniversalSwap.sol:UniversalSwap",
        "label": "stableToken",
        "offset": 0,
        "slot": "2",
        "type": "t_address"
      },
      {
        "astId": 19109,
        "contract": "contracts/UniversalSwap.sol:UniversalSwap",
        "label": "swappers",
        "offset": 0,
        "slot": "3",
        "type": "t_array(t_address)dyn_storage"
      },
      {
        "astId": 19112,
        "contract": "contracts/UniversalSwap.sol:UniversalSwap",
        "label": "poolInteractors",
        "offset": 0,
        "slot": "4",
        "type": "t_array(t_address)dyn_storage"
      },
      {
        "astId": 19115,
        "contract": "contracts/UniversalSwap.sol:UniversalSwap",
        "label": "nftPoolInteractors",
        "offset": 0,
        "slot": "5",
        "type": "t_array(t_address)dyn_storage"
      },
      {
        "astId": 19117,
        "contract": "contracts/UniversalSwap.sol:UniversalSwap",
        "label": "oracle",
        "offset": 0,
        "slot": "6",
        "type": "t_address"
      },
      {
        "astId": 19120,
        "contract": "contracts/UniversalSwap.sol:UniversalSwap",
        "label": "providedHelper",
        "offset": 0,
        "slot": "7",
        "type": "t_contract(ProvidedHelper)15310"
      },
      {
        "astId": 19123,
        "contract": "contracts/UniversalSwap.sol:UniversalSwap",
        "label": "conversionHelper",
        "offset": 0,
        "slot": "8",
        "type": "t_contract(ConversionHelper)16231"
      },
      {
        "astId": 19126,
        "contract": "contracts/UniversalSwap.sol:UniversalSwap",
        "label": "swapHelper",
        "offset": 0,
        "slot": "9",
        "type": "t_contract(SwapHelper)17979"
      }
    ],
    "types": {
      "t_address": {
        "encoding": "inplace",
        "label": "address",
        "numberOfBytes": "20"
      },
      "t_array(t_address)dyn_storage": {
        "base": "t_address",
        "encoding": "dynamic_array",
        "label": "address[]",
        "numberOfBytes": "32"
      },
      "t_contract(ConversionHelper)16231": {
        "encoding": "inplace",
        "label": "contract ConversionHelper",
        "numberOfBytes": "20"
      },
      "t_contract(ProvidedHelper)15310": {
        "encoding": "inplace",
        "label": "contract ProvidedHelper",
        "numberOfBytes": "20"
      },
      "t_contract(SwapHelper)17979": {
        "encoding": "inplace",
        "label": "contract SwapHelper",
        "numberOfBytes": "20"
      }
    }
  }
}