{
  "address": "0xbc491236549Beb761d3d775F1f065612193a2469",
  "abi": [
    {
      "anonymous": false,
      "inputs": [
        {
          "indexed": false,
          "internalType": "address",
          "name": "lpTokenAddress",
          "type": "address"
        },
        {
          "indexed": false,
          "internalType": "uint256",
          "name": "amount",
          "type": "uint256"
        }
      ],
      "name": "Burn",
      "type": "event"
    },
    {
      "inputs": [
        {
          "internalType": "address",
          "name": "lpTokenAddress",
          "type": "address"
        },
        {
          "internalType": "uint256",
          "name": "amount",
          "type": "uint256"
        },
        {
          "internalType": "address",
          "name": "self",
          "type": "address"
        }
      ],
      "name": "burn",
      "outputs": [
        {
          "internalType": "address[]",
          "name": "",
          "type": "address[]"
        },
        {
          "internalType": "uint256[]",
          "name": "",
          "type": "uint256[]"
        }
      ],
      "stateMutability": "payable",
      "type": "function"
    },
    {
      "inputs": [
        {
          "internalType": "address",
          "name": "lpTokenAddress",
          "type": "address"
        },
        {
          "internalType": "uint256",
          "name": "amount",
          "type": "uint256"
        }
      ],
      "name": "getUnderlyingAmount",
      "outputs": [
        {
          "internalType": "address[]",
          "name": "underlying",
          "type": "address[]"
        },
        {
          "internalType": "uint256[]",
          "name": "amounts",
          "type": "uint256[]"
        }
      ],
      "stateMutability": "view",
      "type": "function"
    },
    {
      "inputs": [
        {
          "internalType": "address",
          "name": "lpTokenAddress",
          "type": "address"
        }
      ],
      "name": "getUnderlyingTokens",
      "outputs": [
        {
          "internalType": "address[]",
          "name": "",
          "type": "address[]"
        },
        {
          "internalType": "uint256[]",
          "name": "",
          "type": "uint256[]"
        }
      ],
      "stateMutability": "view",
      "type": "function"
    },
    {
      "inputs": [
        {
          "internalType": "address",
          "name": "toMint",
          "type": "address"
        },
        {
          "internalType": "address[]",
          "name": "underlyingTokens",
          "type": "address[]"
        },
        {
          "internalType": "uint256[]",
          "name": "underlyingAmounts",
          "type": "uint256[]"
        },
        {
          "internalType": "address",
          "name": "receiver",
          "type": "address"
        },
        {
          "internalType": "address",
          "name": "self",
          "type": "address"
        }
      ],
      "name": "mint",
      "outputs": [
        {
          "internalType": "uint256",
          "name": "",
          "type": "uint256"
        }
      ],
      "stateMutability": "payable",
      "type": "function"
    },
    {
      "inputs": [
        {
          "internalType": "address",
          "name": "toMint",
          "type": "address"
        },
        {
          "internalType": "address[]",
          "name": "underlyingTokens",
          "type": "address[]"
        },
        {
          "internalType": "uint256[]",
          "name": "underlyingAmounts",
          "type": "uint256[]"
        }
      ],
      "name": "simulateMint",
      "outputs": [
        {
          "internalType": "uint256",
          "name": "minted",
          "type": "uint256"
        }
      ],
      "stateMutability": "view",
      "type": "function"
    },
    {
      "inputs": [
        {
          "internalType": "address",
          "name": "token",
          "type": "address"
        }
      ],
      "name": "testSupported",
      "outputs": [
        {
          "internalType": "bool",
          "name": "",
          "type": "bool"
        }
      ],
      "stateMutability": "view",
      "type": "function"
    },
    {
      "stateMutability": "payable",
      "type": "receive"
    }
  ],
  "transactionHash": "0x53ae75b222316a22c49692b66982ed8323a196c8c4311ac5aa0b7d1d68ad7fdc",
  "args": [],
  "numDeployments": 1,
  "solcInputHash": "0e32d49de90c1ca08094a3215c0047c7",
  "bytecode": "0x608060405234801561001057600080fd5b5061114e806100206000396000f3fe6080604052600436106100595760003560e01c80636331f17f14610065578063656dc2e41461009c578063b54c04ec146100bc578063b8ce670d146100ec578063d65bd616146100ff578063feff3e8d1461012057600080fd5b3661006057005b600080fd5b34801561007157600080fd5b50610085610080366004610bab565b610140565b604051610093929190610bd7565b60405180910390f35b3480156100a857600080fd5b506100856100b7366004610c5b565b610222565b3480156100c857600080fd5b506100dc6100d7366004610c5b565b61039d565b6040519015158152602001610093565b6100856100fa366004610c7f565b61040b565b61011261010d366004610dfb565b6106de565b604051908152602001610093565b34801561012c57600080fd5b5061011261013b366004610e99565b610ae1565b60608060008490506000816001600160a01b031663182df0f56040518163ffffffff1660e01b8152600401602060405180830381865afa158015610188573d6000803e3d6000fd5b505050506040513d601f19601f820116820180604052508101906101ac9190610f0f565b90506101b786610222565b50604080516001808252818301909252919550602080830190803683370190505092506101e66012600a611022565b6101f08683611031565b6101fa9190611048565b8360008151811061020d5761020d61106a565b60200260200101818152505050509250929050565b60408051600180825281830190925260609182916000916020808301908036833750506040805160018082528183019092529293506000929150602080830190803683370190505090506001826000815181106102815761028161106a565b60209081029190910101526001600160a01b03851673a07c5b74c9b40447a954e1466938b865b6bbea36036102f95773bb4cdb9cbd36b01bd1cbaebf2de08d9173bc095c816000815181106102d8576102d861106a565b6001600160a01b039092166020928302919091019091015294909350915050565b60008590506000816001600160a01b0316636f307dc36040518163ffffffff1660e01b8152600401602060405180830381865afa15801561033e573d6000803e3d6000fd5b505050506040513d601f19601f820116820180604052508101906103629190611080565b905080836000815181106103785761037861106a565b6001600160a01b03909216602092830291909101909101525090959194509092505050565b6000816001600160a01b0316633d9ea3a16040518163ffffffff1660e01b8152600401602060405180830381865afa9250505080156103f9575060408051601f3d908101601f191682019092526103f69181019061109d565b60015b61040557506000919050565b92915050565b60608084600061041a82610222565b5060405163095ea7b360e01b81529091506001600160a01b0383169063095ea7b39061044c908a908a906004016110bf565b6020604051808303816000875af115801561046b573d6000803e3d6000fd5b505050506040513d601f19601f8201168201806040525081019061048f919061109d565b506000816000815181106104a5576104a561106a565b60200260200101516001600160a01b03166370a08231306040518263ffffffff1660e01b81526004016104d891906110d8565b602060405180830381865afa1580156104f5573d6000803e3d6000fd5b505050506040513d601f19601f820116820180604052508101906105199190610f0f565b60405163db006a7560e01b8152600481018990529091506001600160a01b0384169063db006a75906024016020604051808303816000875af1158015610563573d6000803e3d6000fd5b505050506040513d601f19601f820116820180604052508101906105879190610f0f565b5047156105f75773bb4cdb9cbd36b01bd1cbaebf2de08d9173bc095c6001600160a01b031663d0e30db0476040518263ffffffff1660e01b81526004016000604051808303818588803b1580156105dd57600080fd5b505af11580156105f1573d6000803e3d6000fd5b50505050505b60008260008151811061060c5761060c61106a565b60200260200101516001600160a01b03166370a08231306040518263ffffffff1660e01b815260040161063f91906110d8565b602060405180830381865afa15801561065c573d6000803e3d6000fd5b505050506040513d601f19601f820116820180604052508101906106809190610f0f565b60408051600180825281830190925291925060009190602080830190803683370190505090506106b083836110ec565b816000815181106106c3576106c361106a565b60209081029190910101529299929850919650505050505050565b6040516370a0823160e01b8152600090869082906001600160a01b038316906370a08231906107119030906004016110d8565b602060405180830381865afa15801561072e573d6000803e3d6000fd5b505050506040513d601f19601f820116820180604052508101906107529190610f0f565b90506001600160a01b03881673a07c5b74c9b40447a954e1466938b865b6bbea360361087f578660008151811061078b5761078b61106a565b60200260200101516001600160a01b0316632e1a7d4d876000815181106107b4576107b461106a565b60200260200101516040518263ffffffff1660e01b81526004016107da91815260200190565b600060405180830381600087803b1580156107f457600080fd5b505af1158015610808573d6000803e3d6000fd5b50505050816001600160a01b0316631249c58b8760008151811061082e5761082e61106a565b60200260200101516040518263ffffffff1660e01b81526004016000604051808303818588803b15801561086157600080fd5b505af1158015610875573d6000803e3d6000fd5b50505050506109d6565b60005b875181101561094857600088828151811061089f5761089f61106a565b60200260200101519050806001600160a01b031663095ea7b38b8a85815181106108cb576108cb61106a565b60200260200101516040518363ffffffff1660e01b81526004016108f09291906110bf565b6020604051808303816000875af115801561090f573d6000803e3d6000fd5b505050506040513d601f19601f82011682018060405250810190610933919061109d565b50508080610940906110ff565b915050610882565b50816001600160a01b031663a0712d688760008151811061096b5761096b61106a565b60200260200101516040518263ffffffff1660e01b815260040161099191815260200190565b6020604051808303816000875af11580156109b0573d6000803e3d6000fd5b505050506040513d601f19601f820116820180604052508101906109d49190610f0f565b505b600081836001600160a01b03166370a08231306040518263ffffffff1660e01b8152600401610a0591906110d8565b602060405180830381865afa158015610a22573d6000803e3d6000fd5b505050506040513d601f19601f82011682018060405250810190610a469190610f0f565b610a5091906110ec565b90506001600160a01b0386163014610ad55760405163a9059cbb60e01b81526001600160a01b0384169063a9059cbb90610a9090899085906004016110bf565b6020604051808303816000875af1158015610aaf573d6000803e3d6000fd5b505050506040513d601f19601f82011682018060405250810190610ad3919061109d565b505b98975050505050505050565b6000808490506000816001600160a01b031663182df0f56040518163ffffffff1660e01b8152600401602060405180830381865afa158015610b27573d6000803e3d6000fd5b505050506040513d601f19601f82011682018060405250810190610b4b9190610f0f565b905080610b5a6012600a611022565b85600081518110610b6d57610b6d61106a565b6020026020010151610b7f9190611031565b610b899190611048565b9695505050505050565b6001600160a01b0381168114610ba857600080fd5b50565b60008060408385031215610bbe57600080fd5b8235610bc981610b93565b946020939093013593505050565b604080825283519082018190526000906020906060840190828701845b82811015610c195781516001600160a01b031684529284019290840190600101610bf4565b5050508381038285015284518082528583019183019060005b81811015610c4e57835183529284019291840191600101610c32565b5090979650505050505050565b600060208284031215610c6d57600080fd5b8135610c7881610b93565b9392505050565b600080600060608486031215610c9457600080fd5b8335610c9f81610b93565b9250602084013591506040840135610cb681610b93565b809150509250925092565b634e487b7160e01b600052604160045260246000fd5b604051601f8201601f1916810167ffffffffffffffff81118282101715610d0057610d00610cc1565b604052919050565b600067ffffffffffffffff821115610d2257610d22610cc1565b5060051b60200190565b600082601f830112610d3d57600080fd5b81356020610d52610d4d83610d08565b610cd7565b82815260059290921b84018101918181019086841115610d7157600080fd5b8286015b84811015610d95578035610d8881610b93565b8352918301918301610d75565b509695505050505050565b600082601f830112610db157600080fd5b81356020610dc1610d4d83610d08565b82815260059290921b84018101918181019086841115610de057600080fd5b8286015b84811015610d955780358352918301918301610de4565b600080600080600060a08688031215610e1357600080fd5b8535610e1e81610b93565b9450602086013567ffffffffffffffff80821115610e3b57600080fd5b610e4789838a01610d2c565b95506040880135915080821115610e5d57600080fd5b50610e6a88828901610da0565b9350506060860135610e7b81610b93565b91506080860135610e8b81610b93565b809150509295509295909350565b600080600060608486031215610eae57600080fd5b8335610eb981610b93565b9250602084013567ffffffffffffffff80821115610ed657600080fd5b610ee287838801610d2c565b93506040860135915080821115610ef857600080fd5b50610f0586828701610da0565b9150509250925092565b600060208284031215610f2157600080fd5b5051919050565b634e487b7160e01b600052601160045260246000fd5b600181815b80851115610f79578160001904821115610f5f57610f5f610f28565b80851615610f6c57918102915b93841c9390800290610f43565b509250929050565b600082610f9057506001610405565b81610f9d57506000610405565b8160018114610fb35760028114610fbd57610fd9565b6001915050610405565b60ff841115610fce57610fce610f28565b50506001821b610405565b5060208310610133831016604e8410600b8410161715610ffc575081810a610405565b6110068383610f3e565b806000190482111561101a5761101a610f28565b029392505050565b6000610c7860ff841683610f81565b808202811582820484141761040557610405610f28565b60008261106557634e487b7160e01b600052601260045260246000fd5b500490565b634e487b7160e01b600052603260045260246000fd5b60006020828403121561109257600080fd5b8151610c7881610b93565b6000602082840312156110af57600080fd5b81518015158114610c7857600080fd5b6001600160a01b03929092168252602082015260400190565b6001600160a01b0391909116815260200190565b8181038181111561040557610405610f28565b60006001820161111157611111610f28565b506001019056fea2646970667358221220b3d2dbd79a34596414bfd80fc740603cd643326742d8c0d7d3591abb1844894c64736f6c63430008110033",
  "devdoc": {
    "kind": "dev",
    "methods": {},
    "version": 1
  },
  "userdoc": {
    "kind": "user",
    "methods": {},
    "version": 1
  },
  "storageLayout": {
    "storage": [],
    "types": null
  }
}