{
  "address": "0xa7f249dd6c8deAA3008eBef74bAE6CfA65861028",
  "abi": [
    {
      "inputs": [
        {
          "internalType": "contract IOracle[]",
          "name": "_sources",
          "type": "address[]"
        }
      ],
      "stateMutability": "nonpayable",
      "type": "constructor"
    },
    {
      "anonymous": false,
      "inputs": [
        {
          "indexed": true,
          "internalType": "address",
          "name": "previousOwner",
          "type": "address"
        },
        {
          "indexed": true,
          "internalType": "address",
          "name": "newOwner",
          "type": "address"
        }
      ],
      "name": "OwnershipTransferred",
      "type": "event"
    },
    {
      "inputs": [
        {
          "internalType": "address",
          "name": "token",
          "type": "address"
        },
        {
          "internalType": "address",
          "name": "inTermsOf",
          "type": "address"
        }
      ],
      "name": "getPrice",
      "outputs": [
        {
          "internalType": "uint256",
          "name": "",
          "type": "uint256"
        }
      ],
      "stateMutability": "view",
      "type": "function"
    },
    {
      "inputs": [
        {
          "internalType": "address",
          "name": "token",
          "type": "address"
        },
        {
          "internalType": "address",
          "name": "inTermsOf",
          "type": "address"
        }
      ],
      "name": "getPrice2",
      "outputs": [
        {
          "internalType": "uint256",
          "name": "",
          "type": "uint256"
        }
      ],
      "stateMutability": "nonpayable",
      "type": "function"
    },
    {
      "inputs": [],
      "name": "owner",
      "outputs": [
        {
          "internalType": "address",
          "name": "",
          "type": "address"
        }
      ],
      "stateMutability": "view",
      "type": "function"
    },
    {
      "inputs": [],
      "name": "renounceOwnership",
      "outputs": [],
      "stateMutability": "nonpayable",
      "type": "function"
    },
    {
      "inputs": [
        {
          "internalType": "contract IOracle[]",
          "name": "_sources",
          "type": "address[]"
        }
      ],
      "name": "setSources",
      "outputs": [],
      "stateMutability": "nonpayable",
      "type": "function"
    },
    {
      "inputs": [
        {
          "internalType": "uint256",
          "name": "",
          "type": "uint256"
        }
      ],
      "name": "sources",
      "outputs": [
        {
          "internalType": "contract IOracle",
          "name": "",
          "type": "address"
        }
      ],
      "stateMutability": "view",
      "type": "function"
    },
    {
      "inputs": [
        {
          "internalType": "address",
          "name": "newOwner",
          "type": "address"
        }
      ],
      "name": "transferOwnership",
      "outputs": [],
      "stateMutability": "nonpayable",
      "type": "function"
    }
  ],
  "transactionHash": "0x3323bfa0abd2a9e56e6dd7588aebb65426f2a776f033199e3c7389b3b3ff36ec",
  "args": [
    [
      "0x871cDd38A42B6382dd52464C1F207625D83E9fb9"
    ]
  ],
  "numDeployments": 1,
  "solcInputHash": "77a58f77d71dcb1e00febccf809cddd8",
  "bytecode": "0x60806040523480156200001157600080fd5b5060405162000c9438038062000c94833981016040819052620000349162000160565b6200003f336200005c565b805162000054906001906020840190620000ac565b505062000232565b600080546001600160a01b038381166001600160a01b0319831681178455604051919092169283917f8be0079c531659141344cd1fd0a4f28419497f9722a3daafe3b4186f6b6457e09190a35050565b82805482825590600052602060002090810192821562000104579160200282015b828111156200010457825182546001600160a01b0319166001600160a01b03909116178255602090920191600190910190620000cd565b506200011292915062000116565b5090565b5b8082111562000112576000815560010162000117565b634e487b7160e01b600052604160045260246000fd5b80516001600160a01b03811681146200015b57600080fd5b919050565b600060208083850312156200017457600080fd5b82516001600160401b03808211156200018c57600080fd5b818501915085601f830112620001a157600080fd5b815181811115620001b657620001b66200012d565b8060051b604051601f19603f83011681018181108582111715620001de57620001de6200012d565b604052918252848201925083810185019188831115620001fd57600080fd5b938501935b828510156200022657620002168562000143565b8452938501939285019262000202565b98975050505050505050565b610a5280620002426000396000f3fe608060405234801561001057600080fd5b506004361061006d5760003560e01c8063715018a6146100725780638da5cb5b1461007c578063a3663d37146100a6578063ac41865a146100b9578063ca29a490146100da578063cab8b795146100ed578063f2fde38b14610100575b600080fd5b61007a610113565b005b6000546001600160a01b03165b6040516001600160a01b0390911681526020015b60405180910390f35b6100896100b43660046106fd565b610127565b6100cc6100c736600461072b565b610151565b60405190815260200161009d565b6100cc6100e836600461072b565b61030c565b61007a6100fb36600461078a565b61047d565b61007a61010e36600461084f565b61049c565b61011b61051a565b6101256000610574565b565b6001818154811061013757600080fd5b6000918252602090912001546001600160a01b0316905081565b6000816001600160a01b0316836001600160a01b0316036101e057826001600160a01b031663313ce5676040518163ffffffff1660e01b8152600401602060405180830381865afa1580156101aa573d6000803e3d6000fd5b505050506040513d601f19601f820116820180604052508101906101ce9190610873565b6101d990600a610990565b9050610306565b60015460009067ffffffffffffffff8111156101fe576101fe610764565b604051908082528060200260200182016040528015610227578160200160208202803683370190505b50905060005b6001548110156102f8576001818154811061024a5761024a61099f565b600091825260209091200154604051635620c32d60e11b81526001600160a01b03878116600483015286811660248301529091169063ac41865a90604401602060405180830381865afa1580156102a5573d6000803e3d6000fd5b505050506040513d601f19601f820116820180604052508101906102c991906109b5565b8282815181106102db576102db61099f565b6020908102919091010152806102f0816109ce565b91505061022d565b50610302816105c4565b9150505b92915050565b6000816001600160a01b0316836001600160a01b03160361036557826001600160a01b031663313ce5676040518163ffffffff1660e01b8152600401602060405180830381865afa1580156101aa573d6000803e3d6000fd5b60015460009067ffffffffffffffff81111561038357610383610764565b6040519080825280602002602001820160405280156103ac578160200160208202803683370190505b50905060005b6001548110156102f857600181815481106103cf576103cf61099f565b600091825260209091200154604051635620c32d60e11b81526001600160a01b03878116600483015286811660248301529091169063ac41865a90604401602060405180830381865afa15801561042a573d6000803e3d6000fd5b505050506040513d601f19601f8201168201806040525081019061044e91906109b5565b8282815181106104605761046061099f565b602090810291909101015280610475816109ce565b9150506103b2565b61048561051a565b8051610498906001906020840190610683565b5050565b6104a461051a565b6001600160a01b03811661050e5760405162461bcd60e51b815260206004820152602660248201527f4f776e61626c653a206e6577206f776e657220697320746865207a65726f206160448201526564647265737360d01b60648201526084015b60405180910390fd5b61051781610574565b50565b6000546001600160a01b031633146101255760405162461bcd60e51b815260206004820181905260248201527f4f776e61626c653a2063616c6c6572206973206e6f7420746865206f776e65726044820152606401610505565b600080546001600160a01b038381166001600160a01b0319831681178455604051919092169283917f8be0079c531659141344cd1fd0a4f28419497f9722a3daafe3b4186f6b6457e09190a35050565b60008080805b845181101561063c5760008582815181106105e7576105e761099f565b6020026020010151111561062a578481815181106106075761060761099f565b60200260200101518361061a91906109e7565b92506106276001836109e7565b91505b80610634816109ce565b9150506105ca565b50600081116106715760405162461bcd60e51b81526020600482015260016024820152603560f81b6044820152606401610505565b61067b81836109fa565b949350505050565b8280548282559060005260206000209081019282156106d8579160200282015b828111156106d857825182546001600160a01b0319166001600160a01b039091161782556020909201916001909101906106a3565b506106e49291506106e8565b5090565b5b808211156106e457600081556001016106e9565b60006020828403121561070f57600080fd5b5035919050565b6001600160a01b038116811461051757600080fd5b6000806040838503121561073e57600080fd5b823561074981610716565b9150602083013561075981610716565b809150509250929050565b634e487b7160e01b600052604160045260246000fd5b803561078581610716565b919050565b6000602080838503121561079d57600080fd5b823567ffffffffffffffff808211156107b557600080fd5b818501915085601f8301126107c957600080fd5b8135818111156107db576107db610764565b8060051b604051601f19603f8301168101818110858211171561080057610800610764565b60405291825284820192508381018501918883111561081e57600080fd5b938501935b82851015610843576108348561077a565b84529385019392850192610823565b98975050505050505050565b60006020828403121561086157600080fd5b813561086c81610716565b9392505050565b60006020828403121561088557600080fd5b815160ff8116811461086c57600080fd5b634e487b7160e01b600052601160045260246000fd5b600181815b808511156108e75781600019048211156108cd576108cd610896565b808516156108da57918102915b93841c93908002906108b1565b509250929050565b6000826108fe57506001610306565b8161090b57506000610306565b8160018114610921576002811461092b57610947565b6001915050610306565b60ff84111561093c5761093c610896565b50506001821b610306565b5060208310610133831016604e8410600b841016171561096a575081810a610306565b61097483836108ac565b806000190482111561098857610988610896565b029392505050565b600061086c60ff8416836108ef565b634e487b7160e01b600052603260045260246000fd5b6000602082840312156109c757600080fd5b5051919050565b6000600182016109e0576109e0610896565b5060010190565b8082018082111561030657610306610896565b600082610a1757634e487b7160e01b600052601260045260246000fd5b50049056fea26469706673582212200eae3665d445247129358257253e680b47a837aa6468a1dbd9608b9e72d9fd0d64736f6c63430008110033",
  "devdoc": {
    "kind": "dev",
    "methods": {
      "owner()": {
        "details": "Returns the address of the current owner."
      },
      "renounceOwnership()": {
        "details": "Leaves the contract without owner. It will not be possible to call `onlyOwner` functions anymore. Can only be called by the current owner. NOTE: Renouncing ownership will leave the contract without an owner, thereby removing any functionality that is only available to the owner."
      },
      "transferOwnership(address)": {
        "details": "Transfers ownership of the contract to a new account (`newOwner`). Can only be called by the current owner."
      }
    },
    "version": 1
  },
  "userdoc": {
    "kind": "user",
    "methods": {
      "getPrice(address,address)": {
        "notice": "Gives price of token in terms of another token"
      }
    },
    "version": 1
  },
  "storageLayout": {
    "storage": [
      {
        "astId": 7,
        "contract": "contracts/BasicOracle.sol:BasicOracle",
        "label": "_owner",
        "offset": 0,
        "slot": "0",
        "type": "t_address"
      },
      {
        "astId": 1562,
        "contract": "contracts/BasicOracle.sol:BasicOracle",
        "label": "sources",
        "offset": 0,
        "slot": "1",
        "type": "t_array(t_contract(IOracle)1786)dyn_storage"
      }
    ],
    "types": {
      "t_address": {
        "encoding": "inplace",
        "label": "address",
        "numberOfBytes": "20"
      },
      "t_array(t_contract(IOracle)1786)dyn_storage": {
        "base": "t_contract(IOracle)1786",
        "encoding": "dynamic_array",
        "label": "contract IOracle[]",
        "numberOfBytes": "32"
      },
      "t_contract(IOracle)1786": {
        "encoding": "inplace",
        "label": "contract IOracle",
        "numberOfBytes": "20"
      }
    }
  }
}