{
  "address": "0x55F70A8403D2aaD1841CD781fe4f1D5D6E6958A9",
  "abi": [
    {
      "inputs": [
        {
          "internalType": "contract IUniversalSwap",
          "name": "_universalSwap",
          "type": "address"
        },
        {
          "internalType": "contract ConversionHelper",
          "name": "_conversionHelper",
          "type": "address"
        }
      ],
      "stateMutability": "nonpayable",
      "type": "constructor"
    },
    {
      "inputs": [],
      "name": "conversionHelper",
      "outputs": [
        {
          "internalType": "contract ConversionHelper",
          "name": "",
          "type": "address"
        }
      ],
      "stateMutability": "view",
      "type": "function"
    },
    {
      "inputs": [
        {
          "internalType": "address[]",
          "name": "inputTokens",
          "type": "address[]"
        },
        {
          "internalType": "uint256[]",
          "name": "inputAmounts",
          "type": "uint256[]"
        },
        {
          "internalType": "uint256[]",
          "name": "inputValues",
          "type": "uint256[]"
        },
        {
          "internalType": "address[]",
          "name": "outputTokens",
          "type": "address[]"
        },
        {
          "internalType": "uint256[]",
          "name": "outputValues",
          "type": "uint256[]"
        }
      ],
      "name": "findMultipleSwaps",
      "outputs": [
        {
          "components": [
            {
              "internalType": "uint256",
              "name": "amountIn",
              "type": "uint256"
            },
            {
              "internalType": "uint256",
              "name": "valueIn",
              "type": "uint256"
            },
            {
              "internalType": "uint256",
              "name": "amountOut",
              "type": "uint256"
            },
            {
              "internalType": "uint256",
              "name": "valueOut",
              "type": "uint256"
            },
            {
              "internalType": "int256",
              "name": "slippage",
              "type": "int256"
            },
            {
              "internalType": "address",
              "name": "tokenIn",
              "type": "address"
            },
            {
              "internalType": "address[]",
              "name": "swappers",
              "type": "address[]"
            },
            {
              "internalType": "address",
              "name": "tokenOut",
              "type": "address"
            },
            {
              "internalType": "address[][]",
              "name": "paths",
              "type": "address[][]"
            }
          ],
          "internalType": "struct SwapPoint[]",
          "name": "bestSwaps",
          "type": "tuple[]"
        }
      ],
      "stateMutability": "view",
      "type": "function"
    },
    {
      "inputs": [
        {
          "components": [
            {
              "internalType": "address[]",
              "name": "tokens",
              "type": "address[]"
            },
            {
              "internalType": "uint256[]",
              "name": "amounts",
              "type": "uint256[]"
            },
            {
              "components": [
                {
                  "internalType": "address",
                  "name": "pool",
                  "type": "address"
                },
                {
                  "internalType": "address",
                  "name": "manager",
                  "type": "address"
                },
                {
                  "internalType": "uint256",
                  "name": "tokenId",
                  "type": "uint256"
                },
                {
                  "internalType": "uint256",
                  "name": "liquidity",
                  "type": "uint256"
                },
                {
                  "internalType": "bytes",
                  "name": "data",
                  "type": "bytes"
                }
              ],
              "internalType": "struct Asset[]",
              "name": "nfts",
              "type": "tuple[]"
            }
          ],
          "internalType": "struct Provided",
          "name": "provided",
          "type": "tuple"
        },
        {
          "components": [
            {
              "internalType": "address[]",
              "name": "outputERC20s",
              "type": "address[]"
            },
            {
              "components": [
                {
                  "internalType": "address",
                  "name": "pool",
                  "type": "address"
                },
                {
                  "internalType": "address",
                  "name": "manager",
                  "type": "address"
                },
                {
                  "internalType": "uint256",
                  "name": "tokenId",
                  "type": "uint256"
                },
                {
                  "internalType": "uint256",
                  "name": "liquidity",
                  "type": "uint256"
                },
                {
                  "internalType": "bytes",
                  "name": "data",
                  "type": "bytes"
                }
              ],
              "internalType": "struct Asset[]",
              "name": "outputERC721s",
              "type": "tuple[]"
            },
            {
              "internalType": "uint256[]",
              "name": "ratios",
              "type": "uint256[]"
            },
            {
              "internalType": "uint256[]",
              "name": "minAmountsOut",
              "type": "uint256[]"
            }
          ],
          "internalType": "struct Desired",
          "name": "desired",
          "type": "tuple"
        },
        {
          "components": [
            {
              "internalType": "uint256",
              "name": "amountIn",
              "type": "uint256"
            },
            {
              "internalType": "uint256",
              "name": "valueIn",
              "type": "uint256"
            },
            {
              "internalType": "uint256",
              "name": "amountOut",
              "type": "uint256"
            },
            {
              "internalType": "uint256",
              "name": "valueOut",
              "type": "uint256"
            },
            {
              "internalType": "int256",
              "name": "slippage",
              "type": "int256"
            },
            {
              "internalType": "address",
              "name": "tokenIn",
              "type": "address"
            },
            {
              "internalType": "address[]",
              "name": "swappers",
              "type": "address[]"
            },
            {
              "internalType": "address",
              "name": "tokenOut",
              "type": "address"
            },
            {
              "internalType": "address[][]",
              "name": "paths",
              "type": "address[][]"
            }
          ],
          "internalType": "struct SwapPoint[]",
          "name": "swaps",
          "type": "tuple[]"
        },
        {
          "components": [
            {
              "components": [
                {
                  "internalType": "address",
                  "name": "pool",
                  "type": "address"
                },
                {
                  "internalType": "address",
                  "name": "manager",
                  "type": "address"
                },
                {
                  "internalType": "uint256",
                  "name": "tokenId",
                  "type": "uint256"
                },
                {
                  "internalType": "uint256",
                  "name": "liquidity",
                  "type": "uint256"
                },
                {
                  "internalType": "bytes",
                  "name": "data",
                  "type": "bytes"
                }
              ],
              "internalType": "struct Asset",
              "name": "desiredERC721",
              "type": "tuple"
            },
            {
              "internalType": "address",
              "name": "desiredERC20",
              "type": "address"
            },
            {
              "internalType": "uint256",
              "name": "value",
              "type": "uint256"
            },
            {
              "internalType": "address[]",
              "name": "underlying",
              "type": "address[]"
            },
            {
              "internalType": "uint256[]",
              "name": "underlyingValues",
              "type": "uint256[]"
            }
          ],
          "internalType": "struct Conversion[]",
          "name": "conversions",
          "type": "tuple[]"
        }
      ],
      "name": "getAmountsOut",
      "outputs": [
        {
          "internalType": "uint256[]",
          "name": "amounts",
          "type": "uint256[]"
        },
        {
          "internalType": "uint256[]",
          "name": "expectedUSDValues",
          "type": "uint256[]"
        }
      ],
      "stateMutability": "view",
      "type": "function"
    },
    {
      "inputs": [
        {
          "components": [
            {
              "internalType": "uint256",
              "name": "amountIn",
              "type": "uint256"
            },
            {
              "internalType": "uint256",
              "name": "valueIn",
              "type": "uint256"
            },
            {
              "internalType": "uint256",
              "name": "amountOut",
              "type": "uint256"
            },
            {
              "internalType": "uint256",
              "name": "valueOut",
              "type": "uint256"
            },
            {
              "internalType": "int256",
              "name": "slippage",
              "type": "int256"
            },
            {
              "internalType": "address",
              "name": "tokenIn",
              "type": "address"
            },
            {
              "internalType": "address[]",
              "name": "swappers",
              "type": "address[]"
            },
            {
              "internalType": "address",
              "name": "tokenOut",
              "type": "address"
            },
            {
              "internalType": "address[][]",
              "name": "paths",
              "type": "address[][]"
            }
          ],
          "internalType": "struct SwapPoint[]",
          "name": "swaps",
          "type": "tuple[]"
        },
        {
          "internalType": "address[]",
          "name": "tokens",
          "type": "address[]"
        },
        {
          "internalType": "uint256[]",
          "name": "amounts",
          "type": "uint256[]"
        }
      ],
      "name": "simulateSwaps",
      "outputs": [
        {
          "internalType": "address[]",
          "name": "tokensOut",
          "type": "address[]"
        },
        {
          "internalType": "uint256[]",
          "name": "amountsOut",
          "type": "uint256[]"
        }
      ],
      "stateMutability": "view",
      "type": "function"
    },
    {
      "inputs": [],
      "name": "universapSwap",
      "outputs": [
        {
          "internalType": "contract IUniversalSwap",
          "name": "",
          "type": "address"
        }
      ],
      "stateMutability": "view",
      "type": "function"
    }
  ],
  "transactionHash": "0x3447a4856b46a1488c00f8d36b34aff682873d6ea50685970f5436b86171cab6",
  "args": [
    "0x83D32C543A90e89c83a449C7F1486c101b9Dcda2",
    "0x8E6A53c183e2203199Ad4bAAb9db3a6879183032"
  ],
  "numDeployments": 2,
  "solcInputHash": "55571cad31e4bc830cd499f249876a24",
  "bytecode": "0x6080346200009157601f6200352638819003918201601f19168301916001600160401b0383118484101762000096578084926040948552833981010312620000915780516001600160a01b039182821691829003620000915760200151918216809203620000915760018060a01b03199081600154161760015560005416176000556040516134799081620000ad8239f35b600080fd5b634e487b7160e01b600052604160045260246000fdfe610580604052600436101561001357600080fd5b60003560e01c80632ae68b0614610cf55780639b0b872b14610ccc578063b1674db214610c3f578063cfb8bc3214610c165763ff4be9c01461005457600080fd5b34610831576080366003190112610831576004356001600160401b03811161083157606060031982360301126108315760405190610091826122b7565b80600401356001600160401b038111610831576100b4906004369184010161238b565b825260248101356001600160401b038111610831576100d990600436918401016123f1565b60208301526044810135906001600160401b0382116108315760046101019236920101612851565b60408201526001600160401b03602435116108315760806024353603600319011261083157604051608081018181106001600160401b03821117610c0057604052602435600401356001600160401b038111610831576101699060043691602435010161238b565b81526024803501356001600160401b0381116108315761019190600436916024350101612851565b6020820152604460243501356001600160401b038111610831576101bd906004369160243501016123f1565b60408201526001600160401b036064602435013511610831576101eb366024356064810135016004016123f1565b60608201526044356001600160401b0381116108315761020f9036906004016125ad565b916001600160401b036064351161083157366023606435011215610831576064356004013561023d81612360565b9261024b604051948561233f565b8184526020840180923660248260051b60643501011161083157602460649793979594953501915b60248260051b60643501018310610afc575050506060916060956000945b865186101561041f5760005b60606102a9888a6129b4565b51015151811015610406576102df6001600160a01b036102d78360606102cf8c8e6129b4565b5101516129b4565b51168961334b565b6102f2575b6102ed90612978565b61029d565b9197939591926001600160a01b036103108560606102cf878d6129b4565b51169886516001810181116103f057600161032b9101612acb565b9760005b885181101561036557610360906001600160a01b0361034e828c6129b4565b511661035a828d6129b4565b52612978565b61032f565b5095999097919894966103799051836129b4565b529361038b8660806102cf86886129b4565b519789516001810181116103f05760016103a59101612acb565b9760005b8b518110156103d057806103c06103cb928e6129b4565b5161035a828d6129b4565b6103a9565b5093979094986103e76102ed9397989b51836129b4565b529890506102e4565b634e487b7160e01b600052601160045260246000fd5b50919461041590939193612978565b9491929092610291565b91906104348488936020815191015191612c5a565b6104805161046051926104478451612acb565b946000935b85518510156104fc57845b86518110156104e75780866104769211806104be575b61047b57612978565b610457565b61049a61048888886129b4565b5161049383896129b4565b51906129c8565b6104a488886129b4565b5260006104b182886129b4565b52600161035a828b6129b4565b506001600160a01b03806104d2898b6129b4565b5116906104df838b6129b4565b51161461046d565b509190936104f490612978565b93909161044c565b6000959450855b855181101561053c5761051681866129b4565b5161052a575b61052590612978565b610503565b95600181018091116103f0579561051c565b5083868661055261054c83612acb565b92612acb565b9360009660005b83518110156105c75761056c81876129b4565b51610580575b61057b90612978565b610559565b976001600160a01b036105938a866129b4565b511661059f82876129b4565b526105aa89876129b4565b516105b582896129b4565b52600181018091116103f05797610572565b5060008054835160405163d008925360e01b8152608060048201529351608485018190526001600160a01b039092169284928a92899260a4600584901b87018101938f92909188015b828210610a79575050505060009593610650869461063e86956106629560031988830301602489015261244f565b8581036003190160448701529061244f565b8381036003190160648501529061276f565b03915afa90811561083e57600091610a56575b506106808151612acb565b60018054919390916001600160a01b0316906000835b6108cb575b506000835b6106d3575b6106c1856106cf8860405193849360408552604085019061276f565b90838203602085015261276f565b0390f35b6020820151518110156108c6576106f56106ef828451516129c8565b866129b4565b5160606107068360208601516129b4565b5101526040519061071682612309565b84825260005b6020811061088c57506107338160208501516129b4565b5161073d83612987565b5261074782612987565b506040519161075583612324565b6000835260405161076581612324565b6000815260405193610776856122b7565b84526020840152604083015260405163a9d75b2b60e01b8152602081600481885afa90811561083e5760009161084a575b50604051639b1fbbe760e01b815292602091849182916107ca9160048401612b11565b0381875afa801561083e578592600091610800575b50906107fa9161035a6107f4838751516129c8565b8a6129b4565b906106a0565b919250506020813d602011610836575b8161081d6020938361233f565b8101031261083157518491906107fa6107df565b600080fd5b3d9150610810565b6040513d6000823e3d90fd5b90506020813d602011610884575b816108656020938361233f565b81010312610831576107ca9261087c602092612afd565b9150926107a7565b3d9150610858565b60209060405161089b8161229c565b600081526000838201526000604082015260006060820152606060808201528282860101520161071c565b6106a5565b815151811015610a5157604051906108e282612309565b848252602036818401376040516108f881612309565b8581526020368183013783516001600160a01b03906109189084906129b4565b511661092384612987565b5261092e82886129b4565b5161093882612987565b526040519061094682612324565b6000825260405193610957856122b7565b84526020840152604083015260405163a9d75b2b60e01b8152602081600481885afa90811561083e57600091610a0f575b50604051639b1fbbe760e01b815292602091849182916109ab9160048401612b11565b0381875afa801561083e5785926000916109d6575b50906109d09161035a828a6129b4565b90610696565b919250506020813d602011610a07575b816109f36020938361233f565b8101031261083157518491906109d06109c0565b3d91506109e6565b90506020813d602011610a49575b81610a2a6020938361233f565b81010312610831576109ab92610a41602092612afd565b915092610988565b3d9150610a1d565b61069b565b610a7391503d806000833e610a6b818361233f565b8101906129d5565b82610675565b9193946020610ae9819260019496999a9b60a3199082030186528951906080610ad8610aad845160a0808652850190612a4e565b888060a01b03878601511687850152604085015160408501526060850151848203606086015261244f565b92015190608081840391015261276f565b9701920192018997969594939192610610565b82979397959495356001600160401b0381116108315760a06064358201360360231901126108315760405190610b318261229c565b6001600160401b036024826064350101351161083157610b5d36602460643584018181013501016127a3565b8252610b6f6044826064350101612377565b6020830152606481813501013560408301526001600160401b036084826064350101351161083157610bae36606435830160848101350160240161238b565b60608301526001600160401b0360a48260643501013511610831576024926020928392610be89036906064350160a48101350187016123f1565b60808201528152019301929050969296949394610273565b634e487b7160e01b600052604160045260246000fd5b34610831576000366003190112610831576001546040516001600160a01b039091168152602090f35b34610831576060366003190112610831576001600160401b0360043581811161083157610c709036906004016125ad565b60243582811161083157610c8890369060040161238b565b60443592831161083157610ca3610ca99336906004016123f1565b91612c5a565b6106c1610480516106cf610460519160405193849360408552604085019061244f565b34610831576000366003190112610831576000546040516001600160a01b039091168152602090f35b346108315760a0366003190112610831576001600160401b0360043581811161083157610d2690369060040161238b565b9060243581811161083157610d3f9036906004016123f1565b6103c05260443581811161083157610d5b9036906004016123f1565b6101205260643581811161083157610d7790369060040161238b565b60805260843590811161083157610d929036906004016123f1565b61038052610dad610da8825160805151906128d1565b612928565b60e0526000610180526001546001600160a01b03166102c0525b8051610180511015611d0d576000610240525b60805151610240511015611cf85761018051610ec1906001600160a01b0390610e0390846129b4565b5116610eb960018060a01b03610e1e610240516080516129b4565b511691610e3161024051610380516129b4565b51610e42610180516103c0516129b4565b5193610e5461018051610120516129b4565b5192610e66604051806103205261229c565b61032051526020610320510152604061032051019081526060610320510193845260806103205101918252610e996128e4565b50518151600060a052811115611cd95750825160a0525b5160a0516128d1565b905190612bf6565b6101e05260405163045725af60e41b81526000816004816102c0515afa801561083e57600060c052611cbc575b506040516307dc0d1d60e41b81526020816004816102c0515afa90811561083e57600091611c82575b5060018060a01b0360206103205101511660405190633654ad2760e11b82526020826004816102c0515afa91821561083e57600092611c43575b50604051635620c32d60e11b815260048101919091526001600160a01b0391821660248201529160209183916044918391165afa801561083e5760006103a052611c0f575b506103205180516001600160a01b039081166101a05260209091015116610260526040516102a0819052610fc9906122ee565b6080366102a0513760606102805260606102e05260405163045725af60e41b81526000816004816102c0515afa801561083e57600061034052611bf1575b506000610220525b61034051805161022051908110156112da576001600160a01b039161103491906129b4565b511661030052604051806101005263152e03fd60e11b9052600061010051600481610300515afa80610360521561083e57600061014052610360516112ab575b60005b61014051518110156112955760405190611090826122ee565b6003825260603660208401376101a0516110a983612987565b52610140516001600160a01b03906110c29083906129b4565b51166110cd83612994565b526101a0516110db836129a4565b5260405163b8239ebb60e01b815260a05160048201526040602482015260208180611109604482018761244f565b0381610300515afa90811561083e57600091611261575b506111b99261116f60209260405190611138826122ee565b60038252606036868401376102205161115083612987565b528561115b83612994565b52611165826129a4565b52610280516133cb565b610280526102605161118082612987565b526102605161118e826129a4565b526040518094819263b8239ebb60e01b835260a051600484015260406024840152604483019061244f565b0381610300515afa91821561083e5760009261122b575b5061121d61122692604051906111e5826122ee565b600382526060366020840137610220516111fe83612987565b528361120983612994565b52611213826129a4565b526102e0516133cb565b6102e052612978565b611077565b91506020823d602011611259575b816112466020938361233f565b810103126108315790519061121d6111d0565b3d9150611239565b90506020813d60201161128d575b8161127c6020938361233f565b8101031261083157516111b9611120565b3d915061126f565b506112a261022051612978565b6102205261100f565b6112d13d806000610100513e6112c4816101005161233f565b610100519081019061301a565b61014052611074565b505060006103e0526000806101c05260009160005b6102805180518210156113455761131361130d836103e051936129b4565b516129a4565b5111611328575b61132390612978565b6112ef565b915061133a61130d83610280516129b4565b516103e0528161131a565b505060005b6102e051805182101561139a5761136861130d836101c051936129b4565b511161137d575b61137890612978565b61134a565b925061138f61130d846102e0516129b4565b516101c0528261136f565b5050919060018060a01b036113c86113be6113b884610280516129b4565b51612987565b51610340516129b4565b51166102a051526004600060018060a01b036113ed6113be6113b886610280516129b4565b51166040519283809263152e03fd60e11b82525afa801561083e5761143d91600091611bd6575b50610280516001600160a01b03936114369161143091906129b4565b51612994565b51906129b4565b511660206102a051015260018060a01b036114616113be6113b8846102e0516129b4565b511660406102a05101526004600060018060a01b036114896113be6113b8866102e0516129b4565b51166040519283809263152e03fd60e11b82525afa801561083e576114cc91600091611bb3575b506102e0516001600160a01b03936114369161143091906129b4565b511660606102a051015260c05151600381018091116103f0576114ee90612928565b6101605260c051516003810181116103f057600361150c9101612acb565b6102005260005b60c0515181101561161857611613906115f860405161153181612309565b6001815261154160208201612bbc565b60405161154d816122b7565b60028152604036602083013761156282612987565b5261156c81612987565b5061032051516001600160a01b03166115876113b883612987565b5261032051602001516001600160a01b03166115a561143083612987565b526040516115b281612309565b600181526020368183013760c0516001600160a01b03906115d49086906129b4565b51166115df82612987565b526101e051916103a05191610320519160a0519161310a565b61160583610200516129b4565b5261035a82610160516129b4565b611513565b5061170b6116ec60405161162b81612309565b6001815261163b60208201612bbc565b604051611647816122ee565b60038152606036602083013761165c82612987565b5261166681612987565b5061032051516001600160a01b03166116816113b883612987565b526102a051602001516001600160a01b031661169f61143083612987565b5261032051602001516001600160a01b03166116bd61130d83612987565b526040516116ca81612309565b60018152602036818301376102a051516001600160a01b03166115df82612987565b60c092919251519061170182610200516129b4565b52610160516129b4565b526117df60405161171b81612309565b6001815261172b60208201612bbc565b604051611737816122ee565b60038152606036602083013761174c82612987565b5261175681612987565b5061032051516001600160a01b03166117716113b883612987565b526102a051606001516001600160a01b031661178f61143083612987565b5261032051602001516001600160a01b03166117ad61130d83612987565b526040516117ba81612309565b60018152602036818301376102a051604001516001600160a01b03166115df82612987565b60c0518051906001820182116103f05751906001820182116103f05761181b926118106001809401610200516129b4565b5201610160516129b4565b526102a05180516040909101516001600160a01b03908116911614611a9a57604051611846816122b7565b6002815260005b60408110611a895750806119ae9190604051611868816122b7565b6002815260403660208301378091604051611882816122b7565b60028152604036602083013761189782612987565b526118a181612987565b5061032051516001600160a01b03166118bc6113b883612987565b526102a051602001516001600160a01b03166118da61143083612987565b526040516118e7816122ee565b6003815260603660208301376118fc82612994565b5261190681612994565b506102a051602001516001600160a01b03166119246113b883612994565b526102a051606001516001600160a01b031661194261143083612994565b5261032051602001516001600160a01b0316906119629061130d90612994565b526102a051516001600160a01b031661197a82612987565b526102a051604001516001600160a01b0316906115df90612994565b6101e051916103a05191610320519160a0519161310a565b60c051805160029182820182116103f057519282840184116103f057611810836119dc9501610200516129b4565b526000809160005b610200518051821015611a2b576119fc8285926129b4565b5111611a11575b611a0c90612978565b6119e4565b809350611a23919250610200516129b4565b519082611a03565b505091611a739150611a4090610160516129b4565b51611a5d61024051611a5860805151610180516128d1565b6129c8565b90611a6a8260e0516129b4565b5260e0516129b4565b50611a8061024051612978565b61024052610dda565b80606060208093850101520161184d565b604051611aa681612309565b60018152611ab660208201612bbc565b80604051611ac381612309565b60018152602036818301376102a051516001600160a01b0316611ae582612987565b52604051611af28161229c565b600481526080366020830137611b0784612987565b52611b1183612987565b5061032051516001600160a01b0316611b2c6113b885612987565b526102a051602001516001600160a01b0316611b4a61143085612987565b526102a051606001516001600160a01b0316611b6861130d85612987565b5261032051602001516001600160a01b031692611b8490612987565b5192835160031015611b9d5760806119ae940152611996565b634e487b7160e01b600052603260045260246000fd5b611bd091503d806000833e611bc8818361233f565b81019061301a565b846114b0565b611beb91503d806000833e611bc8818361233f565b85611414565b611c05903d806000833e611bc8818361233f565b6103405281611007565b6020813d602011611c3b575b81611c286020938361233f565b8101031261083157516103a05281610f96565b3d9150611c1b565b91506020823d602011611c7a575b81611c5e6020938361233f565b81010312610831576044611c73602093612afd565b9250610f51565b3d9150611c51565b90506020813d602011611cb4575b81611c9d6020938361233f565b8101031261083157611cae90612afd565b82610f17565b3d9150611c90565b611cd0903d806000833e611bc8818361233f565b60c05281610eee565b611ce8611cf0918551906128d1565b825190612bf6565b60a052610eb0565b611d0461018051612978565b61018052610dc7565b611d1960e05151612928565b906000905b60e05151821015611dd8576001600160801b039160009160005b60e0518051821015611d8a576080611d518388936129b4565b51015112611d68575b611d6390612978565b611d38565b935091508291611d636080611d7f8660e0516129b4565b510151949050611d5a565b505092506001600160801b036080611dca611dd294611dab8160e0516129b4565b51611db6868a6129b4565b52611dc185896129b4565b5060e0516129b4565b510152612978565b90611d1e565b9050611de48251612928565b90611def8151612acb565b611dfc6103805151612acb565b60405191611e09836122b7565b825260208201526000604082015260005b845181101561210d576020611e2f82876129b4565b51015190611e546001600160a01b0360a0611e4a848a6129b4565b5101511685613307565b611e776001600160a01b0360e0611e6b858b6129b4565b51015116608051613307565b9060405193611e85856122b7565b8452602084015260408301526001600160a01b0360a0611ea583896129b4565b510151161580156120ee575b6120e457611ec583516020840151906129b4565b51611ed76020840151610120516129b4565b5111806120b7575b611ef257611eed9150612978565b611e1a565b611f1e611f066020840151610120516129b4565b51611f1785516020860151906129b4565b5190612c4d565b91611f47611f336040830151610380516129b4565b51611f1760208701516040850151906129b4565b815190938181106120af5750925b8084116120a7575b50611f94611f7c611f7560208401516103c0516129b4565b51856128d1565b611f8d6020840151610120516129b4565b5190612bf6565b611f9e83896129b4565b5152826020611fad848a6129b4565b5101526060611fe1611fcc82611fc3868c6129b4565b510151866128d1565b6020611fd8868c6129b4565b51015190612bf6565b90611fec848a6129b4565b51015261201661200a6040612001858b6129b4565b510151856128d1565b6020611fd8858b6129b4565b6040612022848a6129b4565b51015261204a61203283896129b4565b51604086015190612043828a6129b4565b52876129b4565b5060408401516001810181116103f057611eed93600161035a92016040870152855161208e60208501516120888461208283866129b4565b516129c8565b926129b4565b52612088604060208801519401519161208283866129b4565b925087611f5d565b905092611f55565b506120cb60208401516040840151906129b4565b516120dd6040840151610380516129b4565b5111611edf565b611eed9150612978565b506001600160a01b0360e061210383896129b4565b5101511615611eb1565b505060009160005b8151811015612177576001600160a01b0360a061213283856129b4565b51015116151580612163575b612151575b61214c90612978565b612115565b92600181018091116103f05792612143565b5061216e81836129b4565b5151151561213e565b509161218290612928565b60009260005b815181101561220b576001600160a01b0360a06121a583856129b4565b510151161515806121f7575b6121c4575b6121bf90612978565b612188565b936121cf85836129b4565b516121da82856129b4565b526121e581846129b4565b50600181018091116103f057936121b6565b5061220281836129b4565b515115156121b1565b505060005b81518110156122865761222381836129b4565b515190670de0b6b3a764000091808302928304036103f0576122819161227090611f8d6122676001600160a01b0360a061225d878a6129b4565b5101511688613307565b6103c0516129b4565b61227a82856129b4565b5152612978565b612210565b604051602080825281906106cf9082018561248c565b60a081019081106001600160401b03821117610c0057604052565b606081019081106001600160401b03821117610c0057604052565b61012081019081106001600160401b03821117610c0057604052565b608081019081106001600160401b03821117610c0057604052565b604081019081106001600160401b03821117610c0057604052565b602081019081106001600160401b03821117610c0057604052565b90601f801991011681019081106001600160401b03821117610c0057604052565b6001600160401b038111610c005760051b60200190565b35906001600160a01b038216820361083157565b81601f82011215610831578035916123a283612360565b926123b0604051948561233f565b808452602092838086019260051b820101928311610831578301905b8282106123da575050505090565b8380916123e684612377565b8152019101906123cc565b81601f820112156108315780359161240883612360565b92612416604051948561233f565b808452602092838086019260051b820101928311610831578301905b828210612440575050505090565b81358152908301908301612432565b90815180825260208080930193019160005b82811061246f575050505090565b83516001600160a01b031685529381019392810192600101612461565b90808251908181526020809101600590828085841b870101960194600092835b8685106124be57505050505050505090565b909192939495969786601f19808684030187528a519283518152828401518382015260408085015190820152606080850151908201526080808501519082015260018060a01b039060a08281870151169082015261252c60c08087015190610120809185015283019061244f565b9160e09081870151169082015261010080950151948183039101528351808252838201918480838a1b83010196019387905b83821061258157505050505050806001929a0195019501939695949291906124ac565b9193958061259c898588600196989a9c03018a528a5161244f565b9801960192018c959492939161255e565b9080601f83011215610831578135916125c583612360565b926040906125d58251958661233f565b808552602093848087019260051b8501019381851161083157858101925b858410612604575050505050505090565b6001600160401b0384358181116108315783019061012080601f198488030112610831578751928184018481108482111761275a5789528a8101358452888101358b850152606091828201358a860152608092838301359086015260a092838301359086015260c092612678848401612377565b9086015260e0928383013585811161083157898e6126989286010161238b565b90860152610100926126ab848401612377565b9086015281013590838211610831570186603f82011215610831578a810135906126d482612360565b936126e18b51958661233f565b8285528a8d86019360051b830101918983116108315790918d9694928c839997959901925b82841061272257505050508495508201528152019301926125f3565b9193959750919395978435838111610831578f916127468f8e90859487010161238b565b8152019401918e9795939198969498612706565b60246000634e487b7160e01b81526041600452fd5b90815180825260208080930193019160005b82811061278f575050505090565b835185529381019392810192600101612781565b919060a08382031261083157604051926127bc8461229c565b836127c682612377565b815260206127d5818401612377565b81830152604083013560408301526060830135606083015260808301356001600160401b039384821161083157019084601f83011215610831578135938411610c00576040519461282f601f8601601f191683018761233f565b8486528185840101116108315783608094826000940183880137850101520152565b9080601f830112156108315781359061286982612360565b92612877604051948561233f565b828452602092838086019160051b8301019280841161083157848301915b8483106128a55750505050505090565b82356001600160401b0381116108315786916128c6848480948901016127a3565b815201920191612895565b818102929181159184041417156103f057565b604051906128f1826122d2565b606061010083600080825280602083015280604083015280848301528060808301528060a08301528360c083015260e08201520152565b9061293282612360565b61293f604051918261233f565b8281528092612950601f1991612360565b019060005b82811061296157505050565b60209061296c6128e4565b82828501015201612955565b60001981146103f05760010190565b805115611b9d5760200190565b805160011015611b9d5760400190565b805160021015611b9d5760600190565b8051821015611b9d5760209160051b010190565b919082018092116103f057565b6020908181840312610831578051906001600160401b03821161083157019180601f84011215610831578251612a0a81612360565b93612a18604051958661233f565b818552838086019260051b820101928311610831578301905b828210612a3f575050505090565b81518152908301908301612a31565b9190608060018060a01b03938481511683526020948582015116858401526040810151604084015260608101516060840152015160a060808301528051908160a084015260005b828110612ab757505060c09293506000838284010152601f8019910116010190565b81810186015184820160c001528501612a95565b90612ad582612360565b612ae2604051918261233f565b8281528092612af3601f1991612360565b0190602036910137565b51906001600160a01b038216820361083157565b9092919260408252612b2f81516060604085015260a084019061244f565b6020916040612b4f8483015193603f19948588830301606089015261276f565b9101519184820301608085015281518082528382019184808360051b8301019401926000915b86848410612b91575050505050509360018060a01b0316910152565b80612bad6001939495969798601f198682030187528951612a4e565b97019301930191939290612b75565b60005b60208110612bcb575050565b606082820152602001612bbf565b60005b828110612be857505050565b606082820152602001612bdc565b8115612c00570490565b634e487b7160e01b600052601260045260246000fd5b90612c4b612c2383612360565b612c30604051918261233f565b83815260208194612c43601f1991612360565b019101612bd9565b565b919082039182116103f057565b9091612c7f928261040052610420526104405260006104605260006104805251612acb565b61046052612c906104005151612acb565b61048052612ca16104005151612928565b6104e052612ce56104005151612cc6612cb982612360565b604051806105205261233f565b806105205152612cd8601f1991612360565b0160206105205101612bd9565b6000610540525b610400518051610540519081101561301657612d14612d5291670de0b6b3a7640000936129b4565b5151612d4b612d4260018060a01b0360a0612d3561054051610400516129b4565b5101511661042051613307565b610440516129b4565b51906128d1565b0490612d7260c0612d6961054051610400516129b4565b51015151612c16565b612d8261054051610520516129b4565b52612d9361054051610520516129b4565b5060005b60c0612da961054051610400516129b4565b51015151811015612f8d5760018060a01b03612dd18260c06102cf61054051610400516129b4565b511692612deb826101006102cf61054051610400516129b4565b5193612e16604051958693636073ec6f60e11b8552600485015260806024850152608484019061244f565b600319808483030160448501526105205151808352602083019260059361056094602084821b840101865260206105205101926000935b858510612efc575050505050509280612e7983600096838097965103016064840152516104e05161248c565b03915afa92831561083e57600093612edf575b50825190816000198101116103f057612ed481612eb0612eda9460001901876129b4565b5195612ec261054051610520516129b4565b5190612ece83836129b4565b526129b4565b50612978565b612d97565b612ef59193503d806000833e610a6b818361233f565b9138612e8c565b601f198289510301845280516105009080825289519051809152895191602080840191816104c095858a1b0101855251016104a09081526000915b838310612f58575050505060206001928192518b5201940194019392612e4d565b9e9f9e60206001918e601f199051885103018152612f79875185515161276f565b8752818451018452019201919f9e9f612f37565b509060018060a01b0360e0612fa861054051610400516129b4565b51015116612fbc61054051610460516129b4565b52612fcd61054051610480516129b4565b52612fde61054051610400516129b4565b51612fef610540516104e0516129b4565b52613000610540516104e0516129b4565b5061300d61054051612978565b61054052612cec565b5050565b6020908181840312610831578051906001600160401b03821161083157019180601f8401121561083157825161304f81612360565b9361305d604051958661233f565b818552838086019260051b820101928311610831578301905b828210613084575050505090565b83809161309084612afd565b815201910190613076565b801561310457600190602081108216604e82108316176130fc578190600a925b8082116130d3575050816000190481116103f0570290565b9092806000190481116103f0578184166130f3575b800292811c906130bb565b809202916130e8565b9050600a0a90565b50600190565b9295919093946131186128e4565b50819660005b8886518210156131dd57506001600160a01b0361313b82886129b4565b511661317961314a838a6129b4565b5160409b8c5193849163b8239ebb60e01b835260048301528d602483015281806020958695604483019061244f565b03915afa9a8b156131d3575060009a6131a0575b50506131998991612978565b905061311e565b81813d83116131cc575b6131b4818361233f565b810103126131c8575198506131993861318d565b8980fd5b503d6131aa565b513d6000823e3d90fd5b90506131ef91929497969593966128d1565b926020938483019260018060a01b0391600487848751166040519283809263313ce56760e01b82525afa90811561083e576000916132c7575b509061323960ff61323f931661309b565b90612bf6565b908184039260008312858512811690868613901516176103f05764e8d4a5100093808502948505036103f0578415612c0057600160ff1b84146000198614166103f057808592511695511696604051996132988b6122d2565b8a52890152896040890152606088015205608086015260a085015260c084015260e08301526101008201529190565b8881813d8311613300575b6132dc818361233f565b810103126132fc57519060ff821682036132f95750613239613228565b80fd5b5080fd5b503d6132d2565b9060005b8251811015613345576001600160a01b038061332783866129b4565b51169083161461333f5761333a90612978565b61330b565b91505090565b50505190565b60005b81518110156133c35760206001600160a01b03808261336d85876129b4565b5101511690808616809214928361339c575b5050506133945761338f90612978565b61334e565b505050600090565b9091925060606133ac85876129b4565b510151805115611b9d57015116141538808061337f565b505050600190565b908151916001928381018091116103f0576133e590612c16565b926000815b61340b575b5050516134079161340082856129b4565b52826129b4565b5090565b825181101561343e578061342261343892856129b4565b5161342d82886129b4565b52612ed481876129b4565b816133ea565b6133ef56fea2646970667358221220fffe339de1b4608082a129ec919f4ab7c305dc2ac61d8af889a8eef8337d7d0c64736f6c63430008110033",
  "devdoc": {
    "kind": "dev",
    "methods": {},
    "version": 1
  },
  "userdoc": {
    "kind": "user",
    "methods": {
      "findMultipleSwaps(address[],uint256[],uint256[],address[],uint256[])": {
        "notice": "-------------Internal logic-------------"
      }
    },
    "version": 1
  },
  "storageLayout": {
    "storage": [
      {
        "astId": 15352,
        "contract": "contracts/UniversalSwap/SwapHelper.sol:SwapHelper",
        "label": "conversionHelper",
        "offset": 0,
        "slot": "0",
        "type": "t_contract(ConversionHelper)13157"
      },
      {
        "astId": 15355,
        "contract": "contracts/UniversalSwap/SwapHelper.sol:SwapHelper",
        "label": "universapSwap",
        "offset": 0,
        "slot": "1",
        "type": "t_contract(IUniversalSwap)19601"
      }
    ],
    "types": {
      "t_contract(ConversionHelper)13157": {
        "encoding": "inplace",
        "label": "contract ConversionHelper",
        "numberOfBytes": "20"
      },
      "t_contract(IUniversalSwap)19601": {
        "encoding": "inplace",
        "label": "contract IUniversalSwap",
        "numberOfBytes": "20"
      }
    }
  }
}