{
  "address": "0xE62c7f8D9EA1F8Cf6a5329B55348049d88F75B85",
  "abi": [
    {
      "anonymous": false,
      "inputs": [
        {
          "indexed": false,
          "internalType": "uint8",
          "name": "version",
          "type": "uint8"
        }
      ],
      "name": "Initialized",
      "type": "event"
    },
    {
      "anonymous": false,
      "inputs": [
        {
          "indexed": true,
          "internalType": "address",
          "name": "previousOwner",
          "type": "address"
        },
        {
          "indexed": true,
          "internalType": "address",
          "name": "newOwner",
          "type": "address"
        }
      ],
      "name": "OwnershipTransferred",
      "type": "event"
    },
    {
      "anonymous": false,
      "inputs": [
        {
          "indexed": false,
          "internalType": "address",
          "name": "receiver",
          "type": "address"
        },
        {
          "indexed": false,
          "internalType": "uint256",
          "name": "inputUsdValue",
          "type": "uint256"
        },
        {
          "indexed": false,
          "internalType": "address[]",
          "name": "tokens",
          "type": "address[]"
        },
        {
          "indexed": false,
          "internalType": "address[]",
          "name": "managers",
          "type": "address[]"
        },
        {
          "indexed": false,
          "internalType": "uint256[]",
          "name": "amountsAndIds",
          "type": "uint256[]"
        }
      ],
      "name": "Trade",
      "type": "event"
    },
    {
      "inputs": [],
      "name": "conversionHelper",
      "outputs": [
        {
          "internalType": "contract ConversionHelper",
          "name": "",
          "type": "address"
        }
      ],
      "stateMutability": "view",
      "type": "function"
    },
    {
      "inputs": [],
      "name": "coreLogic",
      "outputs": [
        {
          "internalType": "address",
          "name": "",
          "type": "address"
        }
      ],
      "stateMutability": "view",
      "type": "function"
    },
    {
      "inputs": [],
      "name": "currentOwner",
      "outputs": [
        {
          "internalType": "address",
          "name": "",
          "type": "address"
        }
      ],
      "stateMutability": "view",
      "type": "function"
    },
    {
      "inputs": [],
      "name": "devFee",
      "outputs": [
        {
          "internalType": "uint256",
          "name": "",
          "type": "uint256"
        }
      ],
      "stateMutability": "view",
      "type": "function"
    },
    {
      "inputs": [
        {
          "components": [
            {
              "internalType": "address[]",
              "name": "tokens",
              "type": "address[]"
            },
            {
              "internalType": "uint256[]",
              "name": "amounts",
              "type": "uint256[]"
            },
            {
              "components": [
                {
                  "internalType": "address",
                  "name": "pool",
                  "type": "address"
                },
                {
                  "internalType": "address",
                  "name": "manager",
                  "type": "address"
                },
                {
                  "internalType": "uint256",
                  "name": "tokenId",
                  "type": "uint256"
                },
                {
                  "internalType": "uint256",
                  "name": "liquidity",
                  "type": "uint256"
                },
                {
                  "internalType": "bytes",
                  "name": "data",
                  "type": "bytes"
                }
              ],
              "internalType": "struct Asset[]",
              "name": "nfts",
              "type": "tuple[]"
            }
          ],
          "internalType": "struct Provided",
          "name": "assets",
          "type": "tuple"
        },
        {
          "internalType": "address",
          "name": "inTermsOf",
          "type": "address"
        }
      ],
      "name": "estimateValue",
      "outputs": [
        {
          "internalType": "uint256",
          "name": "",
          "type": "uint256"
        }
      ],
      "stateMutability": "view",
      "type": "function"
    },
    {
      "inputs": [
        {
          "internalType": "address",
          "name": "token",
          "type": "address"
        },
        {
          "internalType": "uint256",
          "name": "amount",
          "type": "uint256"
        },
        {
          "internalType": "address",
          "name": "inTermsOf",
          "type": "address"
        }
      ],
      "name": "estimateValueERC20",
      "outputs": [
        {
          "internalType": "uint256",
          "name": "",
          "type": "uint256"
        }
      ],
      "stateMutability": "view",
      "type": "function"
    },
    {
      "inputs": [
        {
          "components": [
            {
              "internalType": "address",
              "name": "pool",
              "type": "address"
            },
            {
              "internalType": "address",
              "name": "manager",
              "type": "address"
            },
            {
              "internalType": "uint256",
              "name": "tokenId",
              "type": "uint256"
            },
            {
              "internalType": "uint256",
              "name": "liquidity",
              "type": "uint256"
            },
            {
              "internalType": "bytes",
              "name": "data",
              "type": "bytes"
            }
          ],
          "internalType": "struct Asset",
          "name": "nft",
          "type": "tuple"
        },
        {
          "internalType": "address",
          "name": "inTermsOf",
          "type": "address"
        }
      ],
      "name": "estimateValueERC721",
      "outputs": [
        {
          "internalType": "uint256",
          "name": "",
          "type": "uint256"
        }
      ],
      "stateMutability": "view",
      "type": "function"
    },
    {
      "inputs": [
        {
          "components": [
            {
              "internalType": "address[]",
              "name": "tokens",
              "type": "address[]"
            },
            {
              "internalType": "uint256[]",
              "name": "amounts",
              "type": "uint256[]"
            },
            {
              "components": [
                {
                  "internalType": "address",
                  "name": "pool",
                  "type": "address"
                },
                {
                  "internalType": "address",
                  "name": "manager",
                  "type": "address"
                },
                {
                  "internalType": "uint256",
                  "name": "tokenId",
                  "type": "uint256"
                },
                {
                  "internalType": "uint256",
                  "name": "liquidity",
                  "type": "uint256"
                },
                {
                  "internalType": "bytes",
                  "name": "data",
                  "type": "bytes"
                }
              ],
              "internalType": "struct Asset[]",
              "name": "nfts",
              "type": "tuple[]"
            }
          ],
          "internalType": "struct Provided",
          "name": "provided",
          "type": "tuple"
        },
        {
          "components": [
            {
              "internalType": "address[]",
              "name": "outputERC20s",
              "type": "address[]"
            },
            {
              "components": [
                {
                  "internalType": "address",
                  "name": "pool",
                  "type": "address"
                },
                {
                  "internalType": "address",
                  "name": "manager",
                  "type": "address"
                },
                {
                  "internalType": "uint256",
                  "name": "tokenId",
                  "type": "uint256"
                },
                {
                  "internalType": "uint256",
                  "name": "liquidity",
                  "type": "uint256"
                },
                {
                  "internalType": "bytes",
                  "name": "data",
                  "type": "bytes"
                }
              ],
              "internalType": "struct Asset[]",
              "name": "outputERC721s",
              "type": "tuple[]"
            },
            {
              "internalType": "uint256[]",
              "name": "ratios",
              "type": "uint256[]"
            },
            {
              "internalType": "uint256[]",
              "name": "minAmountsOut",
              "type": "uint256[]"
            }
          ],
          "internalType": "struct Desired",
          "name": "desired",
          "type": "tuple"
        }
      ],
      "name": "getAmountsOut",
      "outputs": [
        {
          "internalType": "uint256[]",
          "name": "amounts",
          "type": "uint256[]"
        },
        {
          "components": [
            {
              "internalType": "uint256",
              "name": "amountIn",
              "type": "uint256"
            },
            {
              "internalType": "uint256",
              "name": "valueIn",
              "type": "uint256"
            },
            {
              "internalType": "uint256",
              "name": "amountOut",
              "type": "uint256"
            },
            {
              "internalType": "uint256",
              "name": "valueOut",
              "type": "uint256"
            },
            {
              "internalType": "int256",
              "name": "slippage",
              "type": "int256"
            },
            {
              "internalType": "address",
              "name": "tokenIn",
              "type": "address"
            },
            {
              "internalType": "address[]",
              "name": "swappers",
              "type": "address[]"
            },
            {
              "internalType": "address",
              "name": "tokenOut",
              "type": "address"
            },
            {
              "internalType": "address[][]",
              "name": "paths",
              "type": "address[][]"
            }
          ],
          "internalType": "struct SwapPoint[]",
          "name": "swaps",
          "type": "tuple[]"
        },
        {
          "components": [
            {
              "components": [
                {
                  "internalType": "address",
                  "name": "pool",
                  "type": "address"
                },
                {
                  "internalType": "address",
                  "name": "manager",
                  "type": "address"
                },
                {
                  "internalType": "uint256",
                  "name": "tokenId",
                  "type": "uint256"
                },
                {
                  "internalType": "uint256",
                  "name": "liquidity",
                  "type": "uint256"
                },
                {
                  "internalType": "bytes",
                  "name": "data",
                  "type": "bytes"
                }
              ],
              "internalType": "struct Asset",
              "name": "desiredERC721",
              "type": "tuple"
            },
            {
              "internalType": "address",
              "name": "desiredERC20",
              "type": "address"
            },
            {
              "internalType": "uint256",
              "name": "value",
              "type": "uint256"
            },
            {
              "internalType": "address[]",
              "name": "underlying",
              "type": "address[]"
            },
            {
              "internalType": "uint256[]",
              "name": "underlyingValues",
              "type": "uint256[]"
            }
          ],
          "internalType": "struct Conversion[]",
          "name": "conversions",
          "type": "tuple[]"
        },
        {
          "internalType": "uint256[]",
          "name": "expectedUSDValues",
          "type": "uint256[]"
        }
      ],
      "stateMutability": "view",
      "type": "function"
    },
    {
      "inputs": [
        {
          "components": [
            {
              "internalType": "address[]",
              "name": "tokens",
              "type": "address[]"
            },
            {
              "internalType": "uint256[]",
              "name": "amounts",
              "type": "uint256[]"
            },
            {
              "components": [
                {
                  "internalType": "address",
                  "name": "pool",
                  "type": "address"
                },
                {
                  "internalType": "address",
                  "name": "manager",
                  "type": "address"
                },
                {
                  "internalType": "uint256",
                  "name": "tokenId",
                  "type": "uint256"
                },
                {
                  "internalType": "uint256",
                  "name": "liquidity",
                  "type": "uint256"
                },
                {
                  "internalType": "bytes",
                  "name": "data",
                  "type": "bytes"
                }
              ],
              "internalType": "struct Asset[]",
              "name": "nfts",
              "type": "tuple[]"
            }
          ],
          "internalType": "struct Provided",
          "name": "provided",
          "type": "tuple"
        },
        {
          "components": [
            {
              "internalType": "address[]",
              "name": "outputERC20s",
              "type": "address[]"
            },
            {
              "components": [
                {
                  "internalType": "address",
                  "name": "pool",
                  "type": "address"
                },
                {
                  "internalType": "address",
                  "name": "manager",
                  "type": "address"
                },
                {
                  "internalType": "uint256",
                  "name": "tokenId",
                  "type": "uint256"
                },
                {
                  "internalType": "uint256",
                  "name": "liquidity",
                  "type": "uint256"
                },
                {
                  "internalType": "bytes",
                  "name": "data",
                  "type": "bytes"
                }
              ],
              "internalType": "struct Asset[]",
              "name": "outputERC721s",
              "type": "tuple[]"
            },
            {
              "internalType": "uint256[]",
              "name": "ratios",
              "type": "uint256[]"
            },
            {
              "internalType": "uint256[]",
              "name": "minAmountsOut",
              "type": "uint256[]"
            }
          ],
          "internalType": "struct Desired",
          "name": "desired",
          "type": "tuple"
        },
        {
          "components": [
            {
              "internalType": "uint256",
              "name": "amountIn",
              "type": "uint256"
            },
            {
              "internalType": "uint256",
              "name": "valueIn",
              "type": "uint256"
            },
            {
              "internalType": "uint256",
              "name": "amountOut",
              "type": "uint256"
            },
            {
              "internalType": "uint256",
              "name": "valueOut",
              "type": "uint256"
            },
            {
              "internalType": "int256",
              "name": "slippage",
              "type": "int256"
            },
            {
              "internalType": "address",
              "name": "tokenIn",
              "type": "address"
            },
            {
              "internalType": "address[]",
              "name": "swappers",
              "type": "address[]"
            },
            {
              "internalType": "address",
              "name": "tokenOut",
              "type": "address"
            },
            {
              "internalType": "address[][]",
              "name": "paths",
              "type": "address[][]"
            }
          ],
          "internalType": "struct SwapPoint[]",
          "name": "swaps",
          "type": "tuple[]"
        },
        {
          "components": [
            {
              "components": [
                {
                  "internalType": "address",
                  "name": "pool",
                  "type": "address"
                },
                {
                  "internalType": "address",
                  "name": "manager",
                  "type": "address"
                },
                {
                  "internalType": "uint256",
                  "name": "tokenId",
                  "type": "uint256"
                },
                {
                  "internalType": "uint256",
                  "name": "liquidity",
                  "type": "uint256"
                },
                {
                  "internalType": "bytes",
                  "name": "data",
                  "type": "bytes"
                }
              ],
              "internalType": "struct Asset",
              "name": "desiredERC721",
              "type": "tuple"
            },
            {
              "internalType": "address",
              "name": "desiredERC20",
              "type": "address"
            },
            {
              "internalType": "uint256",
              "name": "value",
              "type": "uint256"
            },
            {
              "internalType": "address[]",
              "name": "underlying",
              "type": "address[]"
            },
            {
              "internalType": "uint256[]",
              "name": "underlyingValues",
              "type": "uint256[]"
            }
          ],
          "internalType": "struct Conversion[]",
          "name": "conversions",
          "type": "tuple[]"
        }
      ],
      "name": "getAmountsOutWithSwaps",
      "outputs": [
        {
          "internalType": "uint256[]",
          "name": "amounts",
          "type": "uint256[]"
        },
        {
          "internalType": "uint256[]",
          "name": "expectedUSDValues",
          "type": "uint256[]"
        }
      ],
      "stateMutability": "view",
      "type": "function"
    },
    {
      "inputs": [],
      "name": "getNFTPoolInteractors",
      "outputs": [
        {
          "internalType": "address[]",
          "name": "",
          "type": "address[]"
        }
      ],
      "stateMutability": "view",
      "type": "function"
    },
    {
      "inputs": [],
      "name": "getPoolInteractors",
      "outputs": [
        {
          "internalType": "address[]",
          "name": "",
          "type": "address[]"
        }
      ],
      "stateMutability": "view",
      "type": "function"
    },
    {
      "inputs": [
        {
          "internalType": "address",
          "name": "token",
          "type": "address"
        }
      ],
      "name": "getProtocol",
      "outputs": [
        {
          "internalType": "address",
          "name": "",
          "type": "address"
        }
      ],
      "stateMutability": "view",
      "type": "function"
    },
    {
      "inputs": [],
      "name": "getSwappers",
      "outputs": [
        {
          "internalType": "address[]",
          "name": "",
          "type": "address[]"
        }
      ],
      "stateMutability": "view",
      "type": "function"
    },
    {
      "inputs": [
        {
          "internalType": "address[]",
          "name": "tokens",
          "type": "address[]"
        },
        {
          "internalType": "uint256[]",
          "name": "tokenAmounts",
          "type": "uint256[]"
        }
      ],
      "name": "getTokenValues",
      "outputs": [
        {
          "internalType": "uint256[]",
          "name": "values",
          "type": "uint256[]"
        },
        {
          "internalType": "uint256",
          "name": "total",
          "type": "uint256"
        }
      ],
      "stateMutability": "view",
      "type": "function"
    },
    {
      "inputs": [
        {
          "components": [
            {
              "internalType": "address[]",
              "name": "tokens",
              "type": "address[]"
            },
            {
              "internalType": "uint256[]",
              "name": "amounts",
              "type": "uint256[]"
            },
            {
              "components": [
                {
                  "internalType": "address",
                  "name": "pool",
                  "type": "address"
                },
                {
                  "internalType": "address",
                  "name": "manager",
                  "type": "address"
                },
                {
                  "internalType": "uint256",
                  "name": "tokenId",
                  "type": "uint256"
                },
                {
                  "internalType": "uint256",
                  "name": "liquidity",
                  "type": "uint256"
                },
                {
                  "internalType": "bytes",
                  "name": "data",
                  "type": "bytes"
                }
              ],
              "internalType": "struct Asset[]",
              "name": "nfts",
              "type": "tuple[]"
            }
          ],
          "internalType": "struct Provided",
          "name": "provided",
          "type": "tuple"
        }
      ],
      "name": "getUnderlying",
      "outputs": [
        {
          "internalType": "address[]",
          "name": "",
          "type": "address[]"
        },
        {
          "internalType": "uint256[]",
          "name": "",
          "type": "uint256[]"
        }
      ],
      "stateMutability": "view",
      "type": "function"
    },
    {
      "inputs": [
        {
          "internalType": "address[]",
          "name": "_poolInteractors",
          "type": "address[]"
        },
        {
          "internalType": "address[]",
          "name": "_nftPoolInteractors",
          "type": "address[]"
        },
        {
          "internalType": "address",
          "name": "_networkToken",
          "type": "address"
        },
        {
          "internalType": "address",
          "name": "_stableToken",
          "type": "address"
        },
        {
          "internalType": "address[]",
          "name": "_swappers",
          "type": "address[]"
        },
        {
          "internalType": "address",
          "name": "_oracle",
          "type": "address"
        }
      ],
      "name": "initialize",
      "outputs": [],
      "stateMutability": "nonpayable",
      "type": "function"
    },
    {
      "inputs": [
        {
          "internalType": "address",
          "name": "token",
          "type": "address"
        }
      ],
      "name": "isSimpleToken",
      "outputs": [
        {
          "internalType": "bool",
          "name": "",
          "type": "bool"
        }
      ],
      "stateMutability": "view",
      "type": "function"
    },
    {
      "inputs": [
        {
          "internalType": "address",
          "name": "token",
          "type": "address"
        }
      ],
      "name": "isSupported",
      "outputs": [
        {
          "internalType": "bool",
          "name": "",
          "type": "bool"
        }
      ],
      "stateMutability": "view",
      "type": "function"
    },
    {
      "inputs": [],
      "name": "networkToken",
      "outputs": [
        {
          "internalType": "address",
          "name": "",
          "type": "address"
        }
      ],
      "stateMutability": "view",
      "type": "function"
    },
    {
      "inputs": [
        {
          "internalType": "uint256",
          "name": "",
          "type": "uint256"
        }
      ],
      "name": "nftPoolInteractors",
      "outputs": [
        {
          "internalType": "address",
          "name": "",
          "type": "address"
        }
      ],
      "stateMutability": "view",
      "type": "function"
    },
    {
      "inputs": [],
      "name": "oracle",
      "outputs": [
        {
          "internalType": "address",
          "name": "",
          "type": "address"
        }
      ],
      "stateMutability": "view",
      "type": "function"
    },
    {
      "inputs": [
        {
          "internalType": "uint256",
          "name": "",
          "type": "uint256"
        }
      ],
      "name": "poolInteractors",
      "outputs": [
        {
          "internalType": "address",
          "name": "",
          "type": "address"
        }
      ],
      "stateMutability": "view",
      "type": "function"
    },
    {
      "inputs": [
        {
          "components": [
            {
              "internalType": "address[]",
              "name": "tokens",
              "type": "address[]"
            },
            {
              "internalType": "uint256[]",
              "name": "amounts",
              "type": "uint256[]"
            },
            {
              "components": [
                {
                  "internalType": "address",
                  "name": "pool",
                  "type": "address"
                },
                {
                  "internalType": "address",
                  "name": "manager",
                  "type": "address"
                },
                {
                  "internalType": "uint256",
                  "name": "tokenId",
                  "type": "uint256"
                },
                {
                  "internalType": "uint256",
                  "name": "liquidity",
                  "type": "uint256"
                },
                {
                  "internalType": "bytes",
                  "name": "data",
                  "type": "bytes"
                }
              ],
              "internalType": "struct Asset[]",
              "name": "nfts",
              "type": "tuple[]"
            }
          ],
          "internalType": "struct Provided",
          "name": "provided",
          "type": "tuple"
        },
        {
          "components": [
            {
              "internalType": "address[]",
              "name": "outputERC20s",
              "type": "address[]"
            },
            {
              "components": [
                {
                  "internalType": "address",
                  "name": "pool",
                  "type": "address"
                },
                {
                  "internalType": "address",
                  "name": "manager",
                  "type": "address"
                },
                {
                  "internalType": "uint256",
                  "name": "tokenId",
                  "type": "uint256"
                },
                {
                  "internalType": "uint256",
                  "name": "liquidity",
                  "type": "uint256"
                },
                {
                  "internalType": "bytes",
                  "name": "data",
                  "type": "bytes"
                }
              ],
              "internalType": "struct Asset[]",
              "name": "outputERC721s",
              "type": "tuple[]"
            },
            {
              "internalType": "uint256[]",
              "name": "ratios",
              "type": "uint256[]"
            },
            {
              "internalType": "uint256[]",
              "name": "minAmountsOut",
              "type": "uint256[]"
            }
          ],
          "internalType": "struct Desired",
          "name": "desired",
          "type": "tuple"
        }
      ],
      "name": "preSwapCalculateSwaps",
      "outputs": [
        {
          "components": [
            {
              "internalType": "uint256",
              "name": "amountIn",
              "type": "uint256"
            },
            {
              "internalType": "uint256",
              "name": "valueIn",
              "type": "uint256"
            },
            {
              "internalType": "uint256",
              "name": "amountOut",
              "type": "uint256"
            },
            {
              "internalType": "uint256",
              "name": "valueOut",
              "type": "uint256"
            },
            {
              "internalType": "int256",
              "name": "slippage",
              "type": "int256"
            },
            {
              "internalType": "address",
              "name": "tokenIn",
              "type": "address"
            },
            {
              "internalType": "address[]",
              "name": "swappers",
              "type": "address[]"
            },
            {
              "internalType": "address",
              "name": "tokenOut",
              "type": "address"
            },
            {
              "internalType": "address[][]",
              "name": "paths",
              "type": "address[][]"
            }
          ],
          "internalType": "struct SwapPoint[]",
          "name": "swaps",
          "type": "tuple[]"
        },
        {
          "components": [
            {
              "components": [
                {
                  "internalType": "address",
                  "name": "pool",
                  "type": "address"
                },
                {
                  "internalType": "address",
                  "name": "manager",
                  "type": "address"
                },
                {
                  "internalType": "uint256",
                  "name": "tokenId",
                  "type": "uint256"
                },
                {
                  "internalType": "uint256",
                  "name": "liquidity",
                  "type": "uint256"
                },
                {
                  "internalType": "bytes",
                  "name": "data",
                  "type": "bytes"
                }
              ],
              "internalType": "struct Asset",
              "name": "desiredERC721",
              "type": "tuple"
            },
            {
              "internalType": "address",
              "name": "desiredERC20",
              "type": "address"
            },
            {
              "internalType": "uint256",
              "name": "value",
              "type": "uint256"
            },
            {
              "internalType": "address[]",
              "name": "underlying",
              "type": "address[]"
            },
            {
              "internalType": "uint256[]",
              "name": "underlyingValues",
              "type": "uint256[]"
            }
          ],
          "internalType": "struct Conversion[]",
          "name": "conversions",
          "type": "tuple[]"
        }
      ],
      "stateMutability": "view",
      "type": "function"
    },
    {
      "inputs": [
        {
          "components": [
            {
              "internalType": "address[]",
              "name": "tokens",
              "type": "address[]"
            },
            {
              "internalType": "uint256[]",
              "name": "amounts",
              "type": "uint256[]"
            },
            {
              "components": [
                {
                  "internalType": "address",
                  "name": "pool",
                  "type": "address"
                },
                {
                  "internalType": "address",
                  "name": "manager",
                  "type": "address"
                },
                {
                  "internalType": "uint256",
                  "name": "tokenId",
                  "type": "uint256"
                },
                {
                  "internalType": "uint256",
                  "name": "liquidity",
                  "type": "uint256"
                },
                {
                  "internalType": "bytes",
                  "name": "data",
                  "type": "bytes"
                }
              ],
              "internalType": "struct Asset[]",
              "name": "nfts",
              "type": "tuple[]"
            }
          ],
          "internalType": "struct Provided",
          "name": "provided",
          "type": "tuple"
        },
        {
          "components": [
            {
              "internalType": "address[]",
              "name": "outputERC20s",
              "type": "address[]"
            },
            {
              "components": [
                {
                  "internalType": "address",
                  "name": "pool",
                  "type": "address"
                },
                {
                  "internalType": "address",
                  "name": "manager",
                  "type": "address"
                },
                {
                  "internalType": "uint256",
                  "name": "tokenId",
                  "type": "uint256"
                },
                {
                  "internalType": "uint256",
                  "name": "liquidity",
                  "type": "uint256"
                },
                {
                  "internalType": "bytes",
                  "name": "data",
                  "type": "bytes"
                }
              ],
              "internalType": "struct Asset[]",
              "name": "outputERC721s",
              "type": "tuple[]"
            },
            {
              "internalType": "uint256[]",
              "name": "ratios",
              "type": "uint256[]"
            },
            {
              "internalType": "uint256[]",
              "name": "minAmountsOut",
              "type": "uint256[]"
            }
          ],
          "internalType": "struct Desired",
          "name": "desired",
          "type": "tuple"
        }
      ],
      "name": "preSwapCalculateUnderlying",
      "outputs": [
        {
          "internalType": "address[]",
          "name": "",
          "type": "address[]"
        },
        {
          "internalType": "uint256[]",
          "name": "",
          "type": "uint256[]"
        },
        {
          "internalType": "uint256[]",
          "name": "",
          "type": "uint256[]"
        },
        {
          "components": [
            {
              "components": [
                {
                  "internalType": "address",
                  "name": "pool",
                  "type": "address"
                },
                {
                  "internalType": "address",
                  "name": "manager",
                  "type": "address"
                },
                {
                  "internalType": "uint256",
                  "name": "tokenId",
                  "type": "uint256"
                },
                {
                  "internalType": "uint256",
                  "name": "liquidity",
                  "type": "uint256"
                },
                {
                  "internalType": "bytes",
                  "name": "data",
                  "type": "bytes"
                }
              ],
              "internalType": "struct Asset",
              "name": "desiredERC721",
              "type": "tuple"
            },
            {
              "internalType": "address",
              "name": "desiredERC20",
              "type": "address"
            },
            {
              "internalType": "uint256",
              "name": "value",
              "type": "uint256"
            },
            {
              "internalType": "address[]",
              "name": "underlying",
              "type": "address[]"
            },
            {
              "internalType": "uint256[]",
              "name": "underlyingValues",
              "type": "uint256[]"
            }
          ],
          "internalType": "struct Conversion[]",
          "name": "",
          "type": "tuple[]"
        },
        {
          "internalType": "address[]",
          "name": "",
          "type": "address[]"
        },
        {
          "internalType": "uint256[]",
          "name": "",
          "type": "uint256[]"
        }
      ],
      "stateMutability": "view",
      "type": "function"
    },
    {
      "inputs": [],
      "name": "providedHelper",
      "outputs": [
        {
          "internalType": "contract ProvidedHelper",
          "name": "",
          "type": "address"
        }
      ],
      "stateMutability": "view",
      "type": "function"
    },
    {
      "inputs": [],
      "name": "renounceOwnership",
      "outputs": [],
      "stateMutability": "nonpayable",
      "type": "function"
    },
    {
      "inputs": [
        {
          "internalType": "uint256",
          "name": "_fee",
          "type": "uint256"
        }
      ],
      "name": "setDevFee",
      "outputs": [],
      "stateMutability": "nonpayable",
      "type": "function"
    },
    {
      "inputs": [
        {
          "internalType": "address",
          "name": "_coreLogic",
          "type": "address"
        },
        {
          "internalType": "address",
          "name": "_providedHelper",
          "type": "address"
        },
        {
          "internalType": "address",
          "name": "_conversionHelper",
          "type": "address"
        },
        {
          "internalType": "address",
          "name": "_swapHelper",
          "type": "address"
        }
      ],
      "name": "setHelpers",
      "outputs": [],
      "stateMutability": "nonpayable",
      "type": "function"
    },
    {
      "inputs": [
        {
          "internalType": "address[]",
          "name": "_nftPoolInteractors",
          "type": "address[]"
        }
      ],
      "name": "setNFTPoolInteractors",
      "outputs": [],
      "stateMutability": "nonpayable",
      "type": "function"
    },
    {
      "inputs": [
        {
          "internalType": "address",
          "name": "_oracle",
          "type": "address"
        }
      ],
      "name": "setOracle",
      "outputs": [],
      "stateMutability": "nonpayable",
      "type": "function"
    },
    {
      "inputs": [
        {
          "internalType": "address[]",
          "name": "_poolInteractors",
          "type": "address[]"
        }
      ],
      "name": "setPoolInteractors",
      "outputs": [],
      "stateMutability": "nonpayable",
      "type": "function"
    },
    {
      "inputs": [
        {
          "internalType": "address[]",
          "name": "_swappers",
          "type": "address[]"
        }
      ],
      "name": "setSwappers",
      "outputs": [],
      "stateMutability": "nonpayable",
      "type": "function"
    },
    {
      "inputs": [
        {
          "internalType": "address",
          "name": "_treasury",
          "type": "address"
        }
      ],
      "name": "setTreasury",
      "outputs": [],
      "stateMutability": "nonpayable",
      "type": "function"
    },
    {
      "inputs": [],
      "name": "stableToken",
      "outputs": [
        {
          "internalType": "address",
          "name": "",
          "type": "address"
        }
      ],
      "stateMutability": "view",
      "type": "function"
    },
    {
      "inputs": [
        {
          "components": [
            {
              "internalType": "address[]",
              "name": "tokens",
              "type": "address[]"
            },
            {
              "internalType": "uint256[]",
              "name": "amounts",
              "type": "uint256[]"
            },
            {
              "components": [
                {
                  "internalType": "address",
                  "name": "pool",
                  "type": "address"
                },
                {
                  "internalType": "address",
                  "name": "manager",
                  "type": "address"
                },
                {
                  "internalType": "uint256",
                  "name": "tokenId",
                  "type": "uint256"
                },
                {
                  "internalType": "uint256",
                  "name": "liquidity",
                  "type": "uint256"
                },
                {
                  "internalType": "bytes",
                  "name": "data",
                  "type": "bytes"
                }
              ],
              "internalType": "struct Asset[]",
              "name": "nfts",
              "type": "tuple[]"
            }
          ],
          "internalType": "struct Provided",
          "name": "provided",
          "type": "tuple"
        },
        {
          "components": [
            {
              "internalType": "uint256",
              "name": "amountIn",
              "type": "uint256"
            },
            {
              "internalType": "uint256",
              "name": "valueIn",
              "type": "uint256"
            },
            {
              "internalType": "uint256",
              "name": "amountOut",
              "type": "uint256"
            },
            {
              "internalType": "uint256",
              "name": "valueOut",
              "type": "uint256"
            },
            {
              "internalType": "int256",
              "name": "slippage",
              "type": "int256"
            },
            {
              "internalType": "address",
              "name": "tokenIn",
              "type": "address"
            },
            {
              "internalType": "address[]",
              "name": "swappers",
              "type": "address[]"
            },
            {
              "internalType": "address",
              "name": "tokenOut",
              "type": "address"
            },
            {
              "internalType": "address[][]",
              "name": "paths",
              "type": "address[][]"
            }
          ],
          "internalType": "struct SwapPoint[]",
          "name": "swaps",
          "type": "tuple[]"
        },
        {
          "components": [
            {
              "components": [
                {
                  "internalType": "address",
                  "name": "pool",
                  "type": "address"
                },
                {
                  "internalType": "address",
                  "name": "manager",
                  "type": "address"
                },
                {
                  "internalType": "uint256",
                  "name": "tokenId",
                  "type": "uint256"
                },
                {
                  "internalType": "uint256",
                  "name": "liquidity",
                  "type": "uint256"
                },
                {
                  "internalType": "bytes",
                  "name": "data",
                  "type": "bytes"
                }
              ],
              "internalType": "struct Asset",
              "name": "desiredERC721",
              "type": "tuple"
            },
            {
              "internalType": "address",
              "name": "desiredERC20",
              "type": "address"
            },
            {
              "internalType": "uint256",
              "name": "value",
              "type": "uint256"
            },
            {
              "internalType": "address[]",
              "name": "underlying",
              "type": "address[]"
            },
            {
              "internalType": "uint256[]",
              "name": "underlyingValues",
              "type": "uint256[]"
            }
          ],
          "internalType": "struct Conversion[]",
          "name": "conversions",
          "type": "tuple[]"
        },
        {
          "components": [
            {
              "internalType": "address[]",
              "name": "outputERC20s",
              "type": "address[]"
            },
            {
              "components": [
                {
                  "internalType": "address",
                  "name": "pool",
                  "type": "address"
                },
                {
                  "internalType": "address",
                  "name": "manager",
                  "type": "address"
                },
                {
                  "internalType": "uint256",
                  "name": "tokenId",
                  "type": "uint256"
                },
                {
                  "internalType": "uint256",
                  "name": "liquidity",
                  "type": "uint256"
                },
                {
                  "internalType": "bytes",
                  "name": "data",
                  "type": "bytes"
                }
              ],
              "internalType": "struct Asset[]",
              "name": "outputERC721s",
              "type": "tuple[]"
            },
            {
              "internalType": "uint256[]",
              "name": "ratios",
              "type": "uint256[]"
            },
            {
              "internalType": "uint256[]",
              "name": "minAmountsOut",
              "type": "uint256[]"
            }
          ],
          "internalType": "struct Desired",
          "name": "desired",
          "type": "tuple"
        },
        {
          "internalType": "address",
          "name": "receiver",
          "type": "address"
        }
      ],
      "name": "swap",
      "outputs": [
        {
          "internalType": "uint256[]",
          "name": "",
          "type": "uint256[]"
        }
      ],
      "stateMutability": "payable",
      "type": "function"
    },
    {
      "inputs": [
        {
          "components": [
            {
              "internalType": "address[]",
              "name": "tokens",
              "type": "address[]"
            },
            {
              "internalType": "uint256[]",
              "name": "amounts",
              "type": "uint256[]"
            },
            {
              "components": [
                {
                  "internalType": "address",
                  "name": "pool",
                  "type": "address"
                },
                {
                  "internalType": "address",
                  "name": "manager",
                  "type": "address"
                },
                {
                  "internalType": "uint256",
                  "name": "tokenId",
                  "type": "uint256"
                },
                {
                  "internalType": "uint256",
                  "name": "liquidity",
                  "type": "uint256"
                },
                {
                  "internalType": "bytes",
                  "name": "data",
                  "type": "bytes"
                }
              ],
              "internalType": "struct Asset[]",
              "name": "nfts",
              "type": "tuple[]"
            }
          ],
          "internalType": "struct Provided",
          "name": "provided",
          "type": "tuple"
        },
        {
          "components": [
            {
              "internalType": "uint256",
              "name": "amountIn",
              "type": "uint256"
            },
            {
              "internalType": "uint256",
              "name": "valueIn",
              "type": "uint256"
            },
            {
              "internalType": "uint256",
              "name": "amountOut",
              "type": "uint256"
            },
            {
              "internalType": "uint256",
              "name": "valueOut",
              "type": "uint256"
            },
            {
              "internalType": "int256",
              "name": "slippage",
              "type": "int256"
            },
            {
              "internalType": "address",
              "name": "tokenIn",
              "type": "address"
            },
            {
              "internalType": "address[]",
              "name": "swappers",
              "type": "address[]"
            },
            {
              "internalType": "address",
              "name": "tokenOut",
              "type": "address"
            },
            {
              "internalType": "address[][]",
              "name": "paths",
              "type": "address[][]"
            }
          ],
          "internalType": "struct SwapPoint[]",
          "name": "swaps",
          "type": "tuple[]"
        },
        {
          "components": [
            {
              "components": [
                {
                  "internalType": "address",
                  "name": "pool",
                  "type": "address"
                },
                {
                  "internalType": "address",
                  "name": "manager",
                  "type": "address"
                },
                {
                  "internalType": "uint256",
                  "name": "tokenId",
                  "type": "uint256"
                },
                {
                  "internalType": "uint256",
                  "name": "liquidity",
                  "type": "uint256"
                },
                {
                  "internalType": "bytes",
                  "name": "data",
                  "type": "bytes"
                }
              ],
              "internalType": "struct Asset",
              "name": "desiredERC721",
              "type": "tuple"
            },
            {
              "internalType": "address",
              "name": "desiredERC20",
              "type": "address"
            },
            {
              "internalType": "uint256",
              "name": "value",
              "type": "uint256"
            },
            {
              "internalType": "address[]",
              "name": "underlying",
              "type": "address[]"
            },
            {
              "internalType": "uint256[]",
              "name": "underlyingValues",
              "type": "uint256[]"
            }
          ],
          "internalType": "struct Conversion[]",
          "name": "conversions",
          "type": "tuple[]"
        },
        {
          "components": [
            {
              "internalType": "address[]",
              "name": "outputERC20s",
              "type": "address[]"
            },
            {
              "components": [
                {
                  "internalType": "address",
                  "name": "pool",
                  "type": "address"
                },
                {
                  "internalType": "address",
                  "name": "manager",
                  "type": "address"
                },
                {
                  "internalType": "uint256",
                  "name": "tokenId",
                  "type": "uint256"
                },
                {
                  "internalType": "uint256",
                  "name": "liquidity",
                  "type": "uint256"
                },
                {
                  "internalType": "bytes",
                  "name": "data",
                  "type": "bytes"
                }
              ],
              "internalType": "struct Asset[]",
              "name": "outputERC721s",
              "type": "tuple[]"
            },
            {
              "internalType": "uint256[]",
              "name": "ratios",
              "type": "uint256[]"
            },
            {
              "internalType": "uint256[]",
              "name": "minAmountsOut",
              "type": "uint256[]"
            }
          ],
          "internalType": "struct Desired",
          "name": "desired",
          "type": "tuple"
        },
        {
          "internalType": "address",
          "name": "receiver",
          "type": "address"
        }
      ],
      "name": "swapAfterTransfer",
      "outputs": [
        {
          "internalType": "uint256[]",
          "name": "",
          "type": "uint256[]"
        }
      ],
      "stateMutability": "payable",
      "type": "function"
    },
    {
      "inputs": [],
      "name": "swapHelper",
      "outputs": [
        {
          "internalType": "contract SwapHelper",
          "name": "",
          "type": "address"
        }
      ],
      "stateMutability": "view",
      "type": "function"
    },
    {
      "inputs": [
        {
          "internalType": "uint256",
          "name": "",
          "type": "uint256"
        }
      ],
      "name": "swappers",
      "outputs": [
        {
          "internalType": "address",
          "name": "",
          "type": "address"
        }
      ],
      "stateMutability": "view",
      "type": "function"
    },
    {
      "inputs": [
        {
          "internalType": "address",
          "name": "newOwner",
          "type": "address"
        }
      ],
      "name": "transferOwnership",
      "outputs": [],
      "stateMutability": "nonpayable",
      "type": "function"
    },
    {
      "inputs": [],
      "name": "treasury",
      "outputs": [
        {
          "internalType": "address",
          "name": "",
          "type": "address"
        }
      ],
      "stateMutability": "view",
      "type": "function"
    },
    {
      "stateMutability": "payable",
      "type": "receive"
    }
  ],
  "transactionHash": "0x92018c5121379289305066e806cc586c9153fc3a22fd6f2afd0e0621fb3ce15f",
  "args": [],
  "numDeployments": 1,
  "solcInputHash": "a7295fb1f0a4b8ad0aae3402fc6c3096",
  "bytecode": "0x6080806040523461001657613fbf908161001c8239f35b600080fdfe608060409080825260049081361015610023575b505050361561002157600080fd5b005b600090813560e01c908163090f2f63146117f7575080630b3be65b146117095780630fc6a11c146116e057806311ef73c51461166c578063171d38f81461164357806318f7b610146115fd5780631c75b6b2146115db5780631d75097d1461156a57806321027dc5146115335780632e21e23d146114b45780633ccced4a1461144057806341b2b537146113cf57806345725af01461134c5780634f129c53146113265780634f92a1a5146112e55780635c9512db1461127257806361d027b31461124957806367f2ac13146111bc5780636827e7641461119d5780636b757755146110295780636ca95a4e146110005780636d6f00a414610f63578063715018a614610f065780637adbf97314610ec65780637dc0d1d014610e9d5780638871912514610e195780639817ad1c14610dd35780639b0b872b14610daa5780639b1fbbe714610d5e5780639d9c503b14610ca7578063a37c7a4914610a7e578063a9d75b2b14610a55578063b387ef9214610a2c578063c58d1bd21461071c578063cc62c8521461054c578063e7c87f191461051d578063f0f44260146104dd578063f2fde38b14610446578063f485d942146104195763fa3f6699036100135734610416576101f236611dc0565b9091805b835180518210156102455761022a91906001600160a01b0390819061021c908490612766565b51161561022f575b506124a7565b6101f6565b6065541661023e828751612766565b5238610224565b5050606b548551630c1eb7ed60e21b815260208187015292949186916001600160a01b0390829086908316818061027f602482018c612b45565b03915afa94851561040c57829083966103e5575b5060208798970195865287526102a7612d27565b87840152606f5496825b8151518110156103045780620186a06102d88b6102d26102ff958c51612766565b5161238b565b046102f9826102f38b51936102ed8386612766565b51612d4a565b92612766565b526124a7565b6102b1565b508287610311818461374f565b9381989195606d541691610339868a519b8c96879586956303fd2fa760e61b87528601612dd7565b03915afa9182156103db576103729584809461039f575b50509361038d9161038061039b9596835198899860808a5260808a0190611ba8565b9088820360208a0152611e06565b9186830390870152611fb3565b908382036060850152611ba8565b0390f35b61039b95506103809692945061038d93916103cb913d8091833e6103c3818361193c565b810190612d57565b9690969492969550819350610350565b84513d85823e3d90fd5b90506104049195503d8084833e6103fc818361193c565b810190612aad565b949088610293565b83513d84823e3d90fd5b80fd5b508234610442578160031936011261044257606b5490516001600160a01b039091168152602090f35b5080fd5b509190346104d95760203660031901126104d957610462611978565b9161046b613e88565b6001600160a01b03831615610487578361048484613ee0565b80f35b906020608492519162461bcd60e51b8352820152602660248201527f4f776e61626c653a206e6577206f776e657220697320746865207a65726f206160448201526564647265737360d01b6064820152fd5b8280fd5b5034610416576020366003190112610416576104f7611978565b6104ff613e88565b60018060a01b03166001600160601b0360a01b607054161760705580f35b5082346104425760203660031901126104425760209061054361053e611978565b6124ce565b90519015158152f35b508261055736612301565b6066546001600160a01b03979296929594939061057690891686612b84565b936105818651613cc8565b8651805182036106f8575b505088606e5416908651966020978882018051948a8985019384518b5198899363a93148f360e01b9085015260248401926105c693613a28565b0395601f199687810182526105db908261193c565b6105e3613b1f565b906105ed92613b68565b8a80825183010191019061060091612aad565b909152825261060d612d27565b90528a606e5416948a8751958694636631642960e11b8c870152602486019461063595613a5f565b039081018252610645908261193c565b61064d613b1f565b9061065792613b68565b8380825183010191019061066a91613aaf565b908386019283515161067b90612727565b955b86518110156106aa578089876106976106a5948951612766565b510151166102f9828a612766565b61067d565b5084917f01e8e5ad40d89ca15c2adc1d256db99291b58e6533c627ed84336b7c219eb1318761039b936106e6878c519386519485943386613ad4565b0390a151928284938452830190611ba8565b8161070291613c50565b875261071360208801918251613dc1565b9052898061058c565b5082346104425760c0366003190112610442576001600160401b038335818111610a285761074d9036908601611ae4565b90602435818111610a24576107659036908701611ae4565b9061076e61198e565b906107776119a4565b608435828111610a205761078e9036908a01611ae4565b6001600160a01b0360a4358181169491939290859003610a1c5789549a60ff8c60081c161597888d819a610a0e575b5080156109ef575b1561099557600160ff198e1681178d559b9c9a9b999a89610984575b508a5184811161094f576107f481612456565b60688e5260209b8c018b8f8e5b84821061096257505050505080519084821161094f578a8c8f9261082485612405565b0191606981525b83811061092d5750505050815192831161091a5750889061084b836123b4565b0160678b52878b5b8381106108f85750505050816001600160601b0360a01b94168460655416176065551682606654161760665581606a541617606a556064606f55339060705416176070556108b060ff865460081c166108ab81613e28565b613e28565b6108b933613ee0565b6108c1578380f35b7f7f26b83ff96e1f2b6a682f133852f6798a09c465da95921460cefb38474024989261ff0019855416855551908152a18180808380f35b8a8684511693019281600080516020613f4a8339815191520155018890610853565b634e487b7160e01b8c526041905260248bfd5b8d8984511693019281600080516020613f2a8339815191520155018b9061082b565b634e487b7160e01b8e526041835260248efd5b8a84511693019281600080516020613f6a8339815191520155018c908e610801565b61ffff1916610101178d558d6107e1565b8a5162461bcd60e51b8152602081840152602e60248201527f496e697469616c697a61626c653a20636f6e747261637420697320616c72656160448201526d191e481a5b9a5d1a585b1a5e995960921b6064820152608490fd5b50303b158d81610a00575b506107c5565b6001915060ff16148d6109fa565b6001915060ff16108d6107bd565b8980fd5b8780fd5b8480fd5b8380fd5b50823461044257816003193601126104425760335490516001600160a01b039091168152602090f35b50823461044257816003193601126104425760665490516001600160a01b039091168152602090f35b509190346104d95760803660031901126104d9576001600160401b03918135838111610a2457610ab19036908401611ca8565b91602435848111610ca357610ac99036908301611d28565b9460443585811161044257610ae19036908401612057565b9460643590811161044257610af990369084016121fd565b92815b85518051821015610b4357610b2f91906001600160a01b03908190610b22908490612766565b511615610b3457506124a7565b610afc565b6065541661023e828951612766565b5050919490929560018060a01b039687606b5416958585518098630c1eb7ed60e21b825260208b8301528180610b7c6024820187612b45565b03915afa968715610c995786908798610c7a575b506020829a999a019788528152610ba5612d27565b81860152606f5498865b825151811015610bea5780620186a0610bd08d6102d2610be5958e51612766565b046102f9826102f38d51936102ed8386612766565b610baf565b509086939291610c138a606d5416938851978896879586956303fd2fa760e61b87528601612dd7565b03915afa908115610c6e57838092610c4d575b505061039b90610c3f8351948486958652850190611ba8565b908382036020850152611ba8565b61039b9450610c6692503d8091833e6103c3818361193c565b909284610c26565b505051903d90823e3d90fd5b9050610c919197503d8088833e6103fc818361193c565b969038610b90565b85513d88823e3d90fd5b8580fd5b509190346104d95760203660031901126104d957828135916001600160401b03831161044257610cdd610d119336908301611ca8565b606b548551630c1eb7ed60e21b8152602093810193909352919384926001600160a01b031691839182916024830190612b45565b03915afa908115610c6e57838092610d3d575b505061039b90610c3f8351948486958652850190611a90565b61039b9450610d5692503d8091833e6103fc818361193c565b909238610d24565b508290346104165781600319360112610416578235906001600160401b0382116104165750610d95602093610da392369101611ca8565b610d9d61195d565b90612b84565b9051908152f35b508234610442578160031936011261044257606c5490516001600160a01b039091168152602090f35b509190346104d95760203660031901126104d957356068548110156104d95760686020935260018060a01b0390600080516020613f6a8339815191520154169051908152f35b50903461044257610e2936611bdc565b91610e32613e88565b6001600160401b038311610e8a5750610e4a82612456565b825b828110610e57578380f35b8135906001600160a01b0382168203610a2457602060019293019281600080516020613f6a833981519152015501610e4c565b634e487b7160e01b845260419052602483fd5b508234610442578160031936011261044257606a5490516001600160a01b039091168152602090f35b503461041657602036600319011261041657610ee0611978565b610ee8613e88565b60018060a01b03166001600160601b0360a01b606a541617606a5580f35b5034610416578060031936011261041657610f1f613e88565b603380546001600160a01b0319811690915581906001600160a01b03167f8be0079c531659141344cd1fd0a4f28419497f9722a3daafe3b4186f6b6457e08280a380f35b8382346104165760603660031901126104165750610f7f611978565b90610da3610f8b61198e565b8251610f9681611906565b60018152602094853681840137845190610faf82611906565b60018252863681840137610fc283612759565b6001600160a01b039091169052602435610fdb82612759565b52610fe4612d27565b90855192610ff18461189e565b83528683015284820152612b84565b50823461044257816003193601126104425760655490516001600160a01b039091168152602090f35b508261103436612301565b6066546001600160a01b03979296929594939061105390891686612b84565b9361105e8651613cc8565b865180518203611179575b505088606e5416908651966020978882018051948a8985019384518b5198899363bcf3700160e01b9085015260248401926110a393613a28565b0395601f199687810182526110b8908261193c565b6110c0613b1f565b906110ca92613b68565b8a8082518301019101906110dd91612aad565b90915282526110ea612d27565b90528a606e5416948a8751958694636631642960e11b8c870152602486019461111295613a5f565b039081018252611122908261193c565b61112a613b1f565b9061113492613b68565b8380825183010191019061114791613aaf565b908386019283515161115890612727565b955b86518110156106aa57808987610697611174948951612766565b61115a565b8161118391613c50565b875261119460208801918251613dc1565b90528980611069565b508234610442578160031936011261044257602090606f549051908152f35b838234610416575060c061039b61121f61123b61121261122d6111e76111e136611dc0565b90612e1f565b98936112048d9493969d989298519d8d8f9e8f9081520190611a90565b8c810360208e015290611ba8565b918a8303908b0152611ba8565b908782036060890152611fb3565b908582036080870152611a90565b9083820360a0850152611ba8565b50823461044257816003193601126104425760705490516001600160a01b039091168152602090f35b5090346104425761128236611bdc565b9161128b613e88565b6001600160401b038311610e8a57506112a382612405565b9082915b8183106112b2578380f35b8035926001600160a01b0384168403610a24576020600192019381600080516020613f2a833981519152015501916112a7565b5082346104425761039b906113026112fc36611dc0565b9061374f565b6113188394929451948486958652850190611e06565b908382036020850152611fb3565b50823461044257602036600319011261044257602090610543611347611978565b612cf9565b5082346104425781600319360112610442578051908180936067549081855260208095019160678252600080516020613f4a833981519152915b868282106113af57859061039b886113a08489038561193c565b51928284938452830190611a90565b83546001600160a01b031685528895509093019260019283019201611386565b509034610442576113df36611bdc565b916113e8613e88565b6001600160401b038311610e8a5750611400826123b4565b825b82811061140d578380f35b8135906001600160a01b0382168203610a2457602060019293019281600080516020613f4a833981519152015501611402565b5082346104425781600319360112610442578051908180936069549081855260208095019160698252600080516020613f2a833981519152915b8682821061149457859061039b886113a08489038561193c565b83546001600160a01b03168552889550909301926001928301920161147a565b5034610416576080366003190112610416576114ce611978565b6114d661195d565b6114de61198e565b906114e76119a4565b906114f0613e88565b60018060a01b0392838092816001600160601b0360a01b971687606e541617606e551685606b541617606b551683606c541617606c551690606d541617606d5580f35b50823461044257602036600319011261044257602090611559611554611978565b6125cb565b90516001600160a01b039091168152f35b5090346104425782600319360112610442576001600160401b038135818111610a285761159a9036908401611ae4565b9260243591821161041657506115bd92916115b791369101611b4a565b9061282f565b82518381529283926115d191840190611ba8565b9060208301520390f35b509034610442576020366003190112610442576115f6613e88565b35606f5580f35b509190346104d95760203660031901126104d957356069548110156104d95760696020935260018060a01b0390600080516020613f2a8339815191520154169051908152f35b508234610442578160031936011261044257606e5490516001600160a01b039091168152602090f35b5082346104425781600319360112610442578051908180936068549081855260208095019160688252600080516020613f6a833981519152915b868282106116c057859061039b886113a08489038561193c565b83546001600160a01b0316855288955090930192600192830192016116a6565b508234610442578160031936011261044257606d5490516001600160a01b039091168152602090f35b5082346104425780600319360112610442576001600160401b03908335828111610a285761173a90369086016119e9565b9061174361195d565b9381519161175083611906565b60018352815b6020808210156117b05782519060a082018281108982111761179d578452848252818101859052838201859052606080830186905260808301528583010152602001611756565b634e487b7160e01b865260418b52602486fd5b602083610da38a87898b6117c382612759565b526117cd81612759565b508451916117da83611921565b8083528551906117e982611921565b8152855192610ff18461189e565b905082346104d95760203660031901126104d957356067548110156104d9576067909252600080516020613f4a833981519152909101546001600160a01b03168152602090f35b606854811015611863576068600052600080516020613f6a8339815191520190600090565b634e487b7160e01b600052603260045260246000fd5b606954811015611863576069600052600080516020613f2a8339815191520190600090565b606081019081106001600160401b038211176118b957604052565b634e487b7160e01b600052604160045260246000fd5b60a081019081106001600160401b038211176118b957604052565b61012081019081106001600160401b038211176118b957604052565b604081019081106001600160401b038211176118b957604052565b602081019081106001600160401b038211176118b957604052565b90601f801991011681019081106001600160401b038211176118b957604052565b602435906001600160a01b038216820361197357565b600080fd5b600435906001600160a01b038216820361197357565b604435906001600160a01b038216820361197357565b606435906001600160a01b038216820361197357565b35906001600160a01b038216820361197357565b6001600160401b0381116118b957601f01601f191660200190565b919060a0838203126119735760405192611a02846118cf565b83611a0c826119ba565b8152602091611a1c8382016119ba565b8383015260408101356040830152606081013560608301526080810135906001600160401b038211611973570183601f8201121561197357803592611a60846119ce565b94611a6e604051968761193c565b8486528185840101116119735783608094826000940183880137850101520152565b90815180825260208080930193019160005b828110611ab0575050505090565b83516001600160a01b031685529381019392810192600101611aa2565b6001600160401b0381116118b95760051b60200190565b81601f8201121561197357803591611afb83611acd565b92611b09604051948561193c565b808452602092838086019260051b820101928311611973578301905b828210611b33575050505090565b838091611b3f846119ba565b815201910190611b25565b81601f8201121561197357803591611b6183611acd565b92611b6f604051948561193c565b808452602092838086019260051b820101928311611973578301905b828210611b99575050505090565b81358152908301908301611b8b565b90815180825260208080930193019160005b828110611bc8575050505090565b835185529381019392810192600101611bba565b906020600319830112611973576004356001600160401b039283821161197357806023830112156119735781600401359384116119735760248460051b83010111611973576024019190565b9080601f8301121561197357813590611c4082611acd565b92611c4e604051948561193c565b828452602092838086019160051b8301019280841161197357848301915b848310611c7c5750505050505090565b82356001600160401b038111611973578691611c9d848480948901016119e9565b815201920191611c6c565b91909160608184031261197357604051906001600160401b039060608301828111848210176118b957604052829481358381116119735781611ceb918401611ae4565b845260208201358381116119735781611d05918401611b4a565b6020850152604082013592831161197357604092611d239201611c28565b910152565b91909160808184031261197357604051906001600160401b039060808301828111848210176118b957604052829481358381116119735781611d6b918401611ae4565b845260208201358381116119735781611d85918401611c28565b602085015260408201358381116119735781611da2918401611b4a565b6040850152606082013592831161197357606092611d239201611b4a565b906040600319830112611973576001600160401b036004358181116119735783611dec91600401611ca8565b9260243591821161197357611e0391600401611d28565b90565b90808251908181526020809101600590828085841b870101960194600092835b868510611e3857505050505050505090565b909192939495969786601f19808684030187528a519283518152828401518382015260408085015190820152606080850151908201526080808501519082015260018060a01b039060a082818701511690820152611ea660c080870151906101208091850152830190611a90565b9160e09081870151169082015261010080950151948183039101528351808252838201918480838a1b83010196019387905b838210611efb57505050505050806001929a019501950193969594929190611e26565b91939580611f16898588600196989a9c03018a528a51611a90565b9801960192018c9594929391611ed8565b60005b838110611f3a5750506000910152565b8181015183820152602001611f2a565b90602091611f6381518092818552858086019101611f27565b601f01601f1916010190565b9060a06080611e0393600180841b03808251168552602082015116602085015260408101516040850152606081015160608501520151918160808201520190611f4a565b90815180825260208092019182818360051b82019501936000915b848310611fde5750505050505090565b909192939495848061204783856001950387528a51612034612008825160a0808652850190611f6f565b878060a01b03868401511686850152604080840151908501526060808401519085830390860152611a90565b9160808092015191818403910152611ba8565b9801930193019194939290611fce565b9080601f830112156119735781359161206f83611acd565b9260409061207f8251958661193c565b808552602093848087019260051b8501019381851161197357858101925b8584106120ae575050505050505090565b6001600160401b0384358181116119735783019061012080601f198488030112611973578751926120de846118ea565b8a8101358452888101358b850152606091828201358a860152608092838301359086015260a092838301359086015260c09261211b8484016119ba565b9086015260e0928383013585811161197357898e61213b92860101611ae4565b908601526101009261214e8484016119ba565b9086015281013590838211611973570186603f82011215611973578a8101359061217782611acd565b936121848b51958661193c565b8285528a8d86019360051b830101918983116119735790918d9694928c839997959901925b8284106121c5575050505084955082015281520193019261209d565b9193959750919395978435838111611973578f916121e98f8e908594870101611ae4565b8152019401918e97959391989694986121a9565b9080601f8301121561197357813561221481611acd565b926040916122248351958661193c565b808552602093848087019260051b8401019381851161197357858401925b858410612253575050505050505090565b6001600160401b0384358181116119735786019160a080601f19858803011261197357845190612282826118cf565b8a85013584811161197357878c61229b928801016119e9565b82526122a88686016119ba565b8b83015260609081860135878401526080918287013586811161197357898e6122d3928a0101611ae4565b90840152850135938411611973576122f2878c80979681970101611b4a565b90820152815201930192612242565b60a0600319820112611973576001600160401b0390600435828111611973578161232d91600401611ca8565b92602435838111611973578261234591600401612057565b92604435818111611973578361235d916004016121fd565b926064359182116119735761237491600401611d28565b906084356001600160a01b03811681036119735790565b8181029291811591840414171561239e57565b634e487b7160e01b600052601160045260246000fd5b600160401b81116118b95760675490806067558181106123d2575050565b60009060678252600080516020613f4a83398151915292830192015b8281106123fa57505050565b8181556001016123ee565b600160401b81116118b9576069549080606955818110612423575050565b60009060698252600080516020613f2a83398151915292830192015b82811061244b57505050565b81815560010161243f565b600160401b81116118b9576068549080606855818110612474575050565b60009060688252600080516020613f6a83398151915292830192015b82811061249c57505050565b818155600101612490565b600019811461239e5760010190565b90816020910312611973575180151581036119735790565b6065546001600160a01b0391808316918316821480156125c3575b6125bb576124f783916125cb565b166125b45760009160678054935b848110612516575050505050600090565b816000528281600080516020613f4a83398151915201541660409081518091637bea262360e11b825287600483015281602460209384935afa9283156125aa575060009261257d575b50506125735761256e906124a7565b612505565b5050505050600190565b61259c9250803d106125a3575b612594818361193c565b8101906124b6565b388061255f565b503d61258a565b513d6000823e3d90fd5b5050600090565b505050600190565b5081156124e9565b6065546001600160a01b03918216919081168214801561271f575b6125b45760685460005b81811061269c5750506069549160005b8381106126105750505050600090565b61261981611879565b905460409085825191632d53013b60e21b83528660048401528260248160209485946003998a1b1c165afa9283156125aa575060009261267f575b50506126695750612664906124a7565b612600565b9293506126769150611879565b9054911b1c1690565b6126959250803d106125a357612594818361193c565b3880612654565b6126a58161183e565b905460409085825191632d53013b60e21b83528860048401528260248160209485946003998a1b1c165afa9283156125aa5750600092612702575b50506126f557506126f0906124a7565b6125f0565b929350612676915061183e565b6127189250803d106125a357612594818361193c565b38806126e0565b5081156125e6565b9061273182611acd565b61273e604051918261193c565b828152809261274f601f1991611acd565b0190602036910137565b8051156118635760200190565b80518210156118635760209160051b010190565b90816020910312611973575160ff811681036119735790565b80156127fc57600190602081108216604e82108316176127f4578190600a925b8082116127cb5750508160001904811161239e570290565b90928060001904811161239e578184166127eb575b800292811c906127b3565b809202916127e0565b9050600a0a90565b50600190565b811561280c570490565b634e487b7160e01b600052601260045260246000fd5b9190820180921161239e57565b91906000809361283f8151612727565b91859360018060a01b0380606a54168160655416935b85518810156129c957826128698988612766565b5160408051635620c32d60e11b81526001600160a01b03939092168316600480840191909152928816602483015291906020908d9082816044818a5afa9081156129bf578d83928b8b938f9998979692612983575b50916128da6128e0926128d383899796612766565b519061238b565b98612766565b511685519485809263313ce56760e01b82525afa938415612979575060ff612946969461292494612940979461291e949261294c575b505016612793565b90612802565b61292e8b8b612766565b526129398a8a612766565b5190612822565b976124a7565b96612855565b61296b9250803d10612972575b612963818361193c565b81019061277a565b3880612916565b503d612959565b51903d90823e3d90fd5b9850505050508185813d83116129b8575b61299e818361193c565b810103126104165793518a949088908e908b6128da6128be565b503d612994565b85513d84823e3d90fd5b97965050505050509250565b51906001600160a01b038216820361197357565b81601f8201121561197357805191612a0083611acd565b92612a0e604051948561193c565b808452602092838086019260051b820101928311611973578301905b828210612a38575050505090565b838091612a44846129d5565b815201910190612a2a565b81601f8201121561197357805191612a6683611acd565b92612a74604051948561193c565b808452602092838086019260051b820101928311611973578301905b828210612a9e575050505090565b81518152908301908301612a90565b919091604081840312611973578051926001600160401b03938481116119735781612ad99184016129e9565b93602083015190811161197357611e039201612a4f565b90815180825260208092019182818360051b82019501936000915b848310612b1b5750505050505090565b9091929394958480612b3583856001950387528a51611f6f565b9801930193019194939290612b0b565b611e03916040612b73612b618451606085526060850190611a90565b60208501518482036020860152611ba8565b920151906040818403910152612af0565b90612bc3929160018060a01b039182606b541690604092835190630c1eb7ed60e21b825281602094856004830152818060009b8c956024830190612b45565b03915afa908115612ccc5792612be8819392612c39958a908b92612cdc575b5061282f565b92905086606a541690876065541697811615600014612cd6575086905b8651635620c32d60e11b81526001600160a01b03808a16600483015290921660248301529094859190829081906044820190565b03915afa928315612ccc578793612c97575b50612c59829160049461238b565b9484519384809263313ce56760e01b82525afa928315612c8e57509160ff9161291e93611e0396979261294c57505016612793565b513d87823e3d90fd5b92508183813d8311612cc5575b612cae818361193c565b81010312612cc157915191612c59612c4b565b8680fd5b503d612ca4565b84513d89823e3d90fd5b90612c05565b9050612cf291503d808c833e6103fc818361193c565b9038612be2565b612d02816124ce565b6127fc576001600160a01b0390612d18906125cb565b16612d2257600090565b600190565b604051602081018181106001600160401b038211176118b9576040526000815290565b9190820391821161239e57565b919091604081840312611973578051926001600160401b03938481116119735781612ad9918401612a4f565b611e03916060612dc6612db4612da28551608086526080860190611a90565b60208601518582036020870152612af0565b60408501518482036040860152611ba8565b920151906060818403910152611ba8565b92612e03611e039593612df5612e1194608088526080880190612b45565b908682036020880152612d83565b908482036040860152611e06565b916060818403910152611fb3565b612e8f6000612e34835160208501519061282f565b612e7c60018060a09694961b03606c541691875190612e9e604060208b01519a0151996040519a8b978896879663390d345960e11b8852608060048901526084880190611a90565b6003199384888303016024890152612af0565b91858303016044860152611ba8565b90606483015203915afa92831561374357600093613506575b5060609360009285925b85518510156130315760005b6060612ed98789612766565b5101515181101561301c57612f0f6001600160a01b03612f07836060612eff8b8d612766565b510151612766565b511688613d49565b612f22575b612f1d906124a7565b612ecd565b92969194919291906001600160a01b03612f42846060612eff868c612766565b511697855160018101811161239e576001612f5d9101612727565b9660005b8751811015612f9157612f8c906001600160a01b03612f80828b612766565b51166102f9828c612766565b612f61565b509691949890979395612fa5905183612766565b5292612fb7856080612eff8587612766565b5196885160018101811161239e576001612fd19101612727565b9660005b8a51811015612ffc5780612fec612ff7928d612766565b516102f9828c612766565b612fd5565b509397613013612f1d9394989296979a5183612766565b52979050612f14565b50919093613029906124a7565b939091612ec1565b91909350949193946130438551612727565b956000945b86518610156130fb57855b87518110156130e25780876130729211806130b3575b613077576124a7565b613053565b61308f6130848989612766565b51612939838a612766565b6130998989612766565b5260006130a68289612766565b5260016102f9828c612766565b506001600160a01b036130c6898b612766565b51166001600160a01b036130da838c612766565b511614613069565b5091946130f1909391936124a7565b9491929092613048565b93945094955060009560005b81518110156131405761311a8187612766565b5161312e575b613129906124a7565b613107565b966001810180911161239e5796613120565b5090939295919461315961315384612727565b93612727565b9460009760005b84518110156131ce576131738188612766565b51613187575b613182906124a7565b613160565b986001600160a01b0361319a8b87612766565b51166131a68288612766565b526131b18a88612766565b516131bc828a612766565b526001810180911161239e5798613179565b5092509296509392506000945b84518610156133535790956000939293925b60606131f98888612766565b51015151841015613337576132276001600160a01b0361321f866060612eff8c8c612766565b511687613d49565b15613328576001600160a01b03613244856060612eff8b8b612766565b511694600098885b88518110156132b25761326d886060613265848d612766565b510151613d05565b6060613279838c612766565b510151518103613293575b5061328e906124a7565b61324c565b819b6129396132ab926080612eff61328e968f612766565b9a90613284565b509298919550939192918115613315576132d2816080612eff8b8b612766565b51670de0b6b3a764000092818481020484148215171561239e5761330a936132fa9202612802565b6102f9826080612eff8c8c612766565b9293969091966131ed565b61330a9150670de0b6b3a76400006132fa565b939261330a90979291976124a7565b9561334891929350969394966124a7565b9492909593916131db565b9091929394506000955b85518710156134f35760005b60606133758989612766565b510151518110156134da5761339b6001600160a01b03612f07836060612eff8d8d612766565b6134d1576001600160a01b036133b7826060612eff8c8c612766565b51169060009160005b8a811115613430575050811561341d576133e0816080612eff8c8c612766565b51670de0b6b3a764000092818481020484148215171561239e57613418936134089202612802565b6102f9826080612eff8d8d612766565b613369565b6134189150670de0b6b3a7640000613408565b89826001600160a01b0360206134468585612766565b51015116146134ae578260606132658461345f94612766565b8a606061346c8483612766565b510151518203613487575b5050613482906124a7565b6133c0565b9461349f6134a6926080612eff86613482979a612766565b5190612d4a565b93908a613477565b819460406134c2613482946134cb94612766565b51015190612822565b936124a7565b613418906124a7565b5091939092956134e9906124a7565b959290939161335d565b8251602090930151929650919490939092565b9092503d806000833e613519818361193c565b60208282810103126119735781516001600160401b03811161197357818301601f82850101121561197357808301519061355282611acd565b93613560604051958661193c565b828552602085019084810160208560051b85840101011161197357602083820101915b60208560051b858401010183106135a1575050505050509138612eb7565b8251906001600160401b03821161197357601f199160a084870182018986010384011261197357604051926135d5846118cf565b6020828887010101516001600160401b0381116119735760a09083898801010191828b8801030112611973576040519061360e826118cf565b61361a602082016129d5565b8252613628604082016129d5565b6020830152606081015160408301526080810151606083015260a08101516001600160401b038111611973578a8701603f8284010112156119735760208183010151613673816119ce565b92613681604051948561193c565b8184528c89016040838584010101116119735760406136a69360208601920101611f27565b608082015283526136bd60408288870101016129d5565b6020840152838601810160608101516040850152608001516001600160401b038111611973576136f99060208a870191848a89010101016129e9565b606084015260a081878601010151916001600160401b038311611973576020936137318594938580958d8a01928c8b01010101612a4f565b60808201528152019301929050613583565b6040513d6000823e3d90fd5b91906137a16137616137d49285612e1f565b948985602083979a959c0152526137c460018060a01b03606d5416936137b4604051988997631573458360e11b895260a060048a015260a4890190611a90565b6003199a8b8983030160248a0152611ba8565b9089878303016044880152611ba8565b9087858303016064860152611a90565b9482860301608483015281806137ed6000978896611ba8565b03915afa918215613a1c578092613805575b50509190565b9091503d8082843e613817818461193c565b60208382810103126104425782516001600160401b0381116104d957818401601f8286010112156104d957808401519161385083611acd565b9461385e604051968761193c565b838652602086019282820160208660051b838501010111610ca357602081830101935b60208660051b838501010185106138a0575050505050505038806137ff565b84516001600160401b038111610a2057828401016101209081601f1982888801030112613a1857604051916138d4836118ea565b60208201518352604082015160208401526060808301516040850152608090818401519085015260a08301519084015260c06139118184016129d5565b60a085015260e090818401516001600160401b038111613a145761393d9060208b8b01918701016129e9565b9085015261394e61010084016129d5565b908401528101516001600160401b038111610a1c57868601603f828401011215610a1c576020818301015161398281611acd565b92613990604051948561193c565b818452602084019289890160408460051b838501010111613a1457604081830101935b60408460051b838501010185106139dd575050505050610100820152815260209485019401613881565b84516001600160401b038111613a1057602091613a05839260408f8f019187890101016129e9565b8152019401936139b3565b8e80fd5b8c80fd5b8880fd5b604051903d90823e3d90fd5b91613a5190613a43611e039593606086526060860190611a90565b908482036020860152611ba8565b916040818403910152612af0565b9390608093613a83613a9f94610372613a91949a999a60a08a5260a08a0190612b45565b908682036040880152611fb3565b908482036060860152612d83565b6001600160a01b03909416910152565b906020828203126119735781516001600160401b03811161197357611e039201612a4f565b9390611e039593613b1193613b039260018060a01b03168752602087015260a0604087015260a0860190611a90565b908482036060860152611a90565b916080818403910152611ba8565b60405190613b2c8261189e565b60278252660819985a5b195960ca1b6040837f416464726573733a206c6f772d6c6576656c2064656c65676174652063616c6c60208201520152565b9190823b15613bb857600081611e039460208394519201905af43d15613bb0573d90613b93826119ce565b91613ba1604051938461193c565b82523d6000602084013e613c0c565b606090613c0c565b60405162461bcd60e51b815260206004820152602660248201527f416464726573733a2064656c65676174652063616c6c20746f206e6f6e2d636f6044820152651b9d1c9858dd60d21b6064820152608490fd5b90919015613c18575090565b815115613c285750805190602001fd5b60405162461bcd60e51b815260206004820152908190613c4c906024830190611f4a565b0390fd5b8051919291600019810190811161239e57613c6a90612727565b90600093845b8251811015613cc057818103613c8f575b613c8a906124a7565b613c70565b946001600160a01b03613ca28785612766565b5116613cae8286612766565b526001810180911161239e5794613c81565b509193505050565b60005b8151811015613d00576001600160a01b03613ce68284612766565b511615613cfb57613cf6906124a7565b613ccb565b905090565b505190565b9060005b8251811015613d43576001600160a01b0380613d258386612766565b511690831614613d3d57613d38906124a7565b613d09565b91505090565b50505190565b60005b81518110156125bb5760206001600160a01b038082613d6b8587612766565b51015116908086168092149283613d9a575b505050613d9257613d8d906124a7565b613d4c565b505050600090565b909192506060613daa8587612766565b510151805115611863570151161415388080613d7d565b8051919291600019810190811161239e57613ddb90612727565b90600093845b8251811015613cc057818103613e00575b613dfb906124a7565b613de1565b94613e0b8684612766565b51613e168286612766565b526001810180911161239e5794613df2565b15613e2f57565b60405162461bcd60e51b815260206004820152602b60248201527f496e697469616c697a61626c653a20636f6e7472616374206973206e6f74206960448201526a6e697469616c697a696e6760a81b6064820152608490fd5b6033546001600160a01b03163303613e9c57565b606460405162461bcd60e51b815260206004820152602060248201527f4f776e61626c653a2063616c6c6572206973206e6f7420746865206f776e65726044820152fd5b603380546001600160a01b039283166001600160a01b0319821681179092559091167f8be0079c531659141344cd1fd0a4f28419497f9722a3daafe3b4186f6b6457e0600080a356fe7fb4302e8e91f9110a6554c2c0a24601252c2a42c2220ca988efcfe3999143089787eeb91fe3101235e4a76063c7023ecb40f923f97916639c598592fa30d6aea2153420d844928b4421650203c77babc8b33d7f2e7b450e2966db0c22097753a2646970667358221220adbe3837ab2333a8b4034efee9d6c968550a68aba03e460ab666fe948924556c64736f6c63430008110033",
  "devdoc": {
    "kind": "dev",
    "methods": {
      "currentOwner()": {
        "details": "Returns the address of the current owner."
      },
      "estimateValue((address[],uint256[],(address,address,uint256,uint256,bytes)[]),address)": {
        "params": {
          "assets": "ERC20 or ERC721 assets for whom the value needs to be estimated",
          "inTermsOf": "Token whose value equivalent value to the provided tokens needs to be returned"
        },
        "returns": {
          "_0": "The amount of inTermsOf that is equal in value to the provided tokens"
        }
      },
      "getAmountsOut((address[],uint256[],(address,address,uint256,uint256,bytes)[]),(address[],(address,address,uint256,uint256,bytes)[],uint256[],uint256[]))": {
        "returns": {
          "amounts": "Amounts of the desired assets that can be expected to be received during the actual swap",
          "conversions": "List of conversions from simple ERC20 tokens to complex assets such as LP tokens, Uniswap v3 positions, etc",
          "expectedUSDValues": "Expected usd values for the assets that can be expected from the swap",
          "swaps": "Swaps that need to be performed with the provided assets"
        }
      },
      "isSupported(address)": {
        "params": {
          "token": "Address of token to be swapped or swapped for"
        },
        "returns": {
          "_0": "Wether the provided token is supported or not"
        }
      },
      "preSwapCalculateSwaps((address[],uint256[],(address,address,uint256,uint256,bytes)[]),(address[],(address,address,uint256,uint256,bytes)[],uint256[],uint256[]))": {
        "returns": {
          "conversions": "List of conversions from simple ERC20 tokens to complex assets such as LP tokens, Uniswap v3 positions, etc",
          "swaps": "Swaps that need to be performed with the provided assets"
        }
      },
      "preSwapCalculateUnderlying((address[],uint256[],(address,address,uint256,uint256,bytes)[]),(address[],(address,address,uint256,uint256,bytes)[],uint256[],uint256[]))": {
        "params": {
          "desired": "Assets to convert provided assets into",
          "provided": "List of provided ERC20/ERC721 assets provided to convert into the desired assets"
        },
        "returns": {
          "_0": "Tokens that can be obtained by breaking down complex assets in provided",
          "_1": "Amounts of tokens that will be obtained from breaking down provided assetts",
          "_2": "Worth of the amounts of tokens, in terms of usd or network token (not relevant which for purpose of swapping)",
          "_3": "Data structures representing the conversions that need to take place from simple assets to complex assets to obtain the desired assets",
          "_4": "The simplest tokens needed in order to perform the previously mentioned conversions",
          "_5": "The values in terms of usd or network token that need to be allocated to each of the underlying tokens in order to perform the conversions"
        }
      },
      "renounceOwnership()": {
        "details": "Leaves the contract without owner. It will not be possible to call `onlyOwner` functions anymore. Can only be called by the current owner. NOTE: Renouncing ownership will leave the contract without an owner, thereby removing any functionality that is only available to the owner."
      },
      "setHelpers(address,address,address,address)": {
        "details": "_coreLogic contains all the logic to receive burn, mint and swap assets_providedHelper contains logic for dealing with Provided structs_conversionHelper contains logic for dealing with Conversion structs_swapHelper contains pre swap logic for estimating return values from swaps and calculating optimal routes"
      },
      "swap((address[],uint256[],(address,address,uint256,uint256,bytes)[]),(uint256,uint256,uint256,uint256,int256,address,address[],address,address[][])[],((address,address,uint256,uint256,bytes),address,uint256,address[],uint256[])[],(address[],(address,address,uint256,uint256,bytes)[],uint256[],uint256[]),address)": {
        "details": "Before calling, make sure UniversalSwap contract has approvals to transfer provided assetsswaps ans conversions can be provided as empty list, in which case the contract will calculate them, but this will result in high gas usage",
        "params": {
          "conversions": "List of conversions from simple ERC20 tokens to complex assets such as LP tokens, Uniswap v3 positions, etc",
          "desired": "Assets to convert provided assets into",
          "provided": "List of provided ERC20/ERC721 assets provided to convert into the desired assets",
          "receiver": "Address that will receive output desired assets",
          "swaps": "Swaps that need to be performed with the provided assets"
        },
        "returns": {
          "_0": "Amount of outputTokens obtained and Token IDs for output NFTs"
        }
      },
      "swapAfterTransfer((address[],uint256[],(address,address,uint256,uint256,bytes)[]),(uint256,uint256,uint256,uint256,int256,address,address[],address,address[][])[],((address,address,uint256,uint256,bytes),address,uint256,address[],uint256[])[],(address[],(address,address,uint256,uint256,bytes)[],uint256[],uint256[]),address)": {
        "details": "Before calling, make sure all assets in provided have been transferred to universal swap contract",
        "params": {
          "conversions": "List of conversions from simple ERC20 tokens to complex assets such as LP tokens, Uniswap v3 positions, etc. Can be provided as empty list.",
          "desired": "Assets to convert provided assets into",
          "provided": "List of provided ERC20/ERC721 assets provided to convert into the desired assets",
          "receiver": "Address that will receive output desired assets",
          "swaps": "Swaps that need to be performed with the provided assets. Can be provided as empty list, in which case it will be calculated by the contract"
        },
        "returns": {
          "_0": "Amount of outputTokens obtained and Token IDs for output NFTs"
        }
      },
      "transferOwnership(address)": {
        "details": "Transfers ownership of the contract to a new account (`newOwner`). Can only be called by the current owner."
      }
    },
    "version": 1
  },
  "userdoc": {
    "kind": "user",
    "methods": {
      "estimateValue((address[],uint256[],(address,address,uint256,uint256,bytes)[]),address)": {
        "notice": "Estimates the combined values of the provided tokens in terms of another token"
      },
      "estimateValueERC20(address,uint256,address)": {
        "notice": "Estimates the value of a single ERC20 token in terms of another ERC20 token"
      },
      "estimateValueERC721((address,address,uint256,uint256,bytes),address)": {
        "notice": "Estimates the value of an ECR721 token in terms of an ERC20 token"
      },
      "getAmountsOut((address[],uint256[],(address,address,uint256,uint256,bytes)[]),(address[],(address,address,uint256,uint256,bytes)[],uint256[],uint256[]))": {
        "notice": "-------------Pre-swap calculations-------------"
      },
      "getAmountsOutWithSwaps((address[],uint256[],(address,address,uint256,uint256,bytes)[]),(address[],(address,address,uint256,uint256,bytes)[],uint256[],uint256[]),(uint256,uint256,uint256,uint256,int256,address,address[],address,address[][])[],((address,address,uint256,uint256,bytes),address,uint256,address[],uint256[])[])": {
        "notice": "The pre swap computations can be performed off-chain much faster, hence this function was created as a faster alternative to getAmountsOutCalculates the expected amounts and usd values from a swap given the pre swap calculations"
      },
      "getProtocol(address)": {
        "notice": "Get the pool interactor for a token"
      },
      "getSwappers()": {
        "notice": "-------------Public view functions-------------"
      },
      "getTokenValues(address[],uint256[])": {
        "notice": "get values of provided tokens and amounts in terms of network token"
      },
      "getUnderlying((address[],uint256[],(address,address,uint256,uint256,bytes)[]))": {
        "notice": "Find the underlying tokens and amounts for some complex tokens"
      },
      "isSimpleToken(address)": {
        "notice": "Checks if a provided token is composed of other underlying tokens or not"
      },
      "isSupported(address)": {
        "notice": "Checks if a provided token is swappable using UniversalSwap"
      },
      "networkToken()": {
        "notice": "Getters"
      },
      "preSwapCalculateSwaps((address[],uint256[],(address,address,uint256,uint256,bytes)[]),(address[],(address,address,uint256,uint256,bytes)[],uint256[],uint256[]))": {
        "notice": "Calculates the swaps and conversions that need to be performed prior to calling swap/swapAfterTransferIt is recommended to use this function and provide the return values to swap/swapAfterTransfer as that greatly reduces gas consumption"
      },
      "preSwapCalculateUnderlying((address[],uint256[],(address,address,uint256,uint256,bytes)[]),(address[],(address,address,uint256,uint256,bytes)[],uint256[],uint256[]))": {
        "notice": "Calculate the underlying tokens, amount and values for provided assets in a swap, as well as the conversions needed to obtain desired assets along with the conversion underlying and the value that needs to be allocated to each underlying"
      },
      "setDevFee(uint256)": {
        "notice": "Set dev fee for transactions"
      },
      "setHelpers(address,address,address,address)": {
        "notice": "Set helpers for different tasks"
      },
      "setNFTPoolInteractors(address[])": {
        "notice": "Set interactors for uniswap v3 like protocols"
      },
      "setOracle(address)": {
        "notice": "Set oracle"
      },
      "setPoolInteractors(address[])": {
        "notice": "Set interactors for protocols"
      },
      "setSwappers(address[])": {
        "notice": "-------------Permissioned functions-------------"
      },
      "setTreasury(address)": {
        "notice": "Set treasury to receive fee from transactions"
      },
      "swap((address[],uint256[],(address,address,uint256,uint256,bytes)[]),(uint256,uint256,uint256,uint256,int256,address,address[],address,address[][])[],((address,address,uint256,uint256,bytes),address,uint256,address[],uint256[])[],(address[],(address,address,uint256,uint256,bytes)[],uint256[],uint256[]),address)": {
        "notice": "Swap provided assets into desired assets"
      },
      "swapAfterTransfer((address[],uint256[],(address,address,uint256,uint256,bytes)[]),(uint256,uint256,uint256,uint256,int256,address,address[],address,address[][])[],((address,address,uint256,uint256,bytes),address,uint256,address[],uint256[])[],(address[],(address,address,uint256,uint256,bytes)[],uint256[],uint256[]),address)": {
        "notice": "-------------Core logic-------------"
      }
    },
    "version": 1
  },
  "storageLayout": {
    "storage": [
      {
        "astId": 6,
        "contract": "contracts/UniversalSwap/UniversalSwap.sol:UniversalSwap",
        "label": "_initialized",
        "offset": 0,
        "slot": "0",
        "type": "t_uint8"
      },
      {
        "astId": 9,
        "contract": "contracts/UniversalSwap/UniversalSwap.sol:UniversalSwap",
        "label": "_initializing",
        "offset": 1,
        "slot": "0",
        "type": "t_bool"
      },
      {
        "astId": 609,
        "contract": "contracts/UniversalSwap/UniversalSwap.sol:UniversalSwap",
        "label": "__gap",
        "offset": 0,
        "slot": "1",
        "type": "t_array(t_uint256)50_storage"
      },
      {
        "astId": 12348,
        "contract": "contracts/UniversalSwap/UniversalSwap.sol:UniversalSwap",
        "label": "_owner",
        "offset": 0,
        "slot": "51",
        "type": "t_address"
      },
      {
        "astId": 12468,
        "contract": "contracts/UniversalSwap/UniversalSwap.sol:UniversalSwap",
        "label": "__gap",
        "offset": 0,
        "slot": "52",
        "type": "t_array(t_uint256)49_storage"
      },
      {
        "astId": 6962,
        "contract": "contracts/UniversalSwap/UniversalSwap.sol:UniversalSwap",
        "label": "networkToken",
        "offset": 0,
        "slot": "101",
        "type": "t_address"
      },
      {
        "astId": 6964,
        "contract": "contracts/UniversalSwap/UniversalSwap.sol:UniversalSwap",
        "label": "stableToken",
        "offset": 0,
        "slot": "102",
        "type": "t_address"
      },
      {
        "astId": 6967,
        "contract": "contracts/UniversalSwap/UniversalSwap.sol:UniversalSwap",
        "label": "swappers",
        "offset": 0,
        "slot": "103",
        "type": "t_array(t_address)dyn_storage"
      },
      {
        "astId": 6970,
        "contract": "contracts/UniversalSwap/UniversalSwap.sol:UniversalSwap",
        "label": "poolInteractors",
        "offset": 0,
        "slot": "104",
        "type": "t_array(t_address)dyn_storage"
      },
      {
        "astId": 6973,
        "contract": "contracts/UniversalSwap/UniversalSwap.sol:UniversalSwap",
        "label": "nftPoolInteractors",
        "offset": 0,
        "slot": "105",
        "type": "t_array(t_address)dyn_storage"
      },
      {
        "astId": 6975,
        "contract": "contracts/UniversalSwap/UniversalSwap.sol:UniversalSwap",
        "label": "oracle",
        "offset": 0,
        "slot": "106",
        "type": "t_address"
      },
      {
        "astId": 6978,
        "contract": "contracts/UniversalSwap/UniversalSwap.sol:UniversalSwap",
        "label": "providedHelper",
        "offset": 0,
        "slot": "107",
        "type": "t_contract(ProvidedHelper)5146"
      },
      {
        "astId": 6981,
        "contract": "contracts/UniversalSwap/UniversalSwap.sol:UniversalSwap",
        "label": "conversionHelper",
        "offset": 0,
        "slot": "108",
        "type": "t_contract(ConversionHelper)2988"
      },
      {
        "astId": 6984,
        "contract": "contracts/UniversalSwap/UniversalSwap.sol:UniversalSwap",
        "label": "swapHelper",
        "offset": 0,
        "slot": "109",
        "type": "t_contract(SwapHelper)6904"
      },
      {
        "astId": 6986,
        "contract": "contracts/UniversalSwap/UniversalSwap.sol:UniversalSwap",
        "label": "coreLogic",
        "offset": 0,
        "slot": "110",
        "type": "t_address"
      },
      {
        "astId": 6988,
        "contract": "contracts/UniversalSwap/UniversalSwap.sol:UniversalSwap",
        "label": "devFee",
        "offset": 0,
        "slot": "111",
        "type": "t_uint256"
      },
      {
        "astId": 6990,
        "contract": "contracts/UniversalSwap/UniversalSwap.sol:UniversalSwap",
        "label": "treasury",
        "offset": 0,
        "slot": "112",
        "type": "t_address"
      }
    ],
    "types": {
      "t_address": {
        "encoding": "inplace",
        "label": "address",
        "numberOfBytes": "20"
      },
      "t_array(t_address)dyn_storage": {
        "base": "t_address",
        "encoding": "dynamic_array",
        "label": "address[]",
        "numberOfBytes": "32"
      },
      "t_array(t_uint256)49_storage": {
        "base": "t_uint256",
        "encoding": "inplace",
        "label": "uint256[49]",
        "numberOfBytes": "1568"
      },
      "t_array(t_uint256)50_storage": {
        "base": "t_uint256",
        "encoding": "inplace",
        "label": "uint256[50]",
        "numberOfBytes": "1600"
      },
      "t_bool": {
        "encoding": "inplace",
        "label": "bool",
        "numberOfBytes": "1"
      },
      "t_contract(ConversionHelper)2988": {
        "encoding": "inplace",
        "label": "contract ConversionHelper",
        "numberOfBytes": "20"
      },
      "t_contract(ProvidedHelper)5146": {
        "encoding": "inplace",
        "label": "contract ProvidedHelper",
        "numberOfBytes": "20"
      },
      "t_contract(SwapHelper)6904": {
        "encoding": "inplace",
        "label": "contract SwapHelper",
        "numberOfBytes": "20"
      },
      "t_uint256": {
        "encoding": "inplace",
        "label": "uint256",
        "numberOfBytes": "32"
      },
      "t_uint8": {
        "encoding": "inplace",
        "label": "uint8",
        "numberOfBytes": "1"
      }
    }
  }
}